{
	"contracts/Vote.sol": {
		"Vote": {
			"abi": [
				{
					"inputs": [],
					"stateMutability": "nonpayable",
					"type": "constructor"
				},
				{
					"inputs": [
						{
							"internalType": "string",
							"name": "voteName",
							"type": "string"
						},
						{
							"internalType": "string",
							"name": "candidate",
							"type": "string"
						},
						{
							"internalType": "address",
							"name": "addr",
							"type": "address"
						}
					],
					"name": "addVote",
					"outputs": [
						{
							"internalType": "string",
							"name": "",
							"type": "string"
						}
					],
					"stateMutability": "nonpayable",
					"type": "function"
				},
				{
					"inputs": [
						{
							"internalType": "string",
							"name": "",
							"type": "string"
						},
						{
							"internalType": "uint256",
							"name": "",
							"type": "uint256"
						}
					],
					"name": "candidateVote",
					"outputs": [
						{
							"internalType": "string",
							"name": "",
							"type": "string"
						}
					],
					"stateMutability": "view",
					"type": "function"
				},
				{
					"inputs": [
						{
							"internalType": "string",
							"name": "voteName",
							"type": "string"
						},
						{
							"internalType": "string[]",
							"name": "candidateOption",
							"type": "string[]"
						}
					],
					"name": "createVote",
					"outputs": [
						{
							"internalType": "string",
							"name": "",
							"type": "string"
						}
					],
					"stateMutability": "nonpayable",
					"type": "function"
				},
				{
					"inputs": [
						{
							"internalType": "string",
							"name": "voteName",
							"type": "string"
						}
					],
					"name": "lvm",
					"outputs": [
						{
							"internalType": "uint256",
							"name": "",
							"type": "uint256"
						}
					],
					"stateMutability": "view",
					"type": "function"
				},
				{
					"inputs": [],
					"name": "myaddress",
					"outputs": [
						{
							"internalType": "address",
							"name": "",
							"type": "address"
						}
					],
					"stateMutability": "view",
					"type": "function"
				},
				{
					"inputs": [],
					"name": "test",
					"outputs": [
						{
							"internalType": "string",
							"name": "",
							"type": "string"
						}
					],
					"stateMutability": "pure",
					"type": "function"
				},
				{
					"inputs": [
						{
							"internalType": "string",
							"name": "",
							"type": "string"
						},
						{
							"internalType": "string",
							"name": "",
							"type": "string"
						}
					],
					"name": "voteCount",
					"outputs": [
						{
							"internalType": "uint256",
							"name": "",
							"type": "uint256"
						}
					],
					"stateMutability": "view",
					"type": "function"
				},
				{
					"inputs": [
						{
							"internalType": "string",
							"name": "voteName",
							"type": "string"
						}
					],
					"name": "voteResult",
					"outputs": [
						{
							"components": [
								{
									"internalType": "string",
									"name": "name",
									"type": "string"
								},
								{
									"internalType": "uint256",
									"name": "votes",
									"type": "uint256"
								}
							],
							"internalType": "struct Vote.Candidate[]",
							"name": "",
							"type": "tuple[]"
						}
					],
					"stateMutability": "view",
					"type": "function"
				},
				{
					"inputs": [
						{
							"internalType": "string",
							"name": "",
							"type": "string"
						},
						{
							"internalType": "address",
							"name": "",
							"type": "address"
						}
					],
					"name": "voters",
					"outputs": [
						{
							"internalType": "bool",
							"name": "",
							"type": "bool"
						}
					],
					"stateMutability": "view",
					"type": "function"
				}
			],
			"devdoc": {
				"kind": "dev",
				"methods": {},
				"version": 1
			},
			"evm": {
				"assembly": "    /* \"contracts/Vote.sol\":73:2523  contract Vote {... */\n  mstore(0x40, 0x80)\n    /* \"contracts/Vote.sol\":466:507  constructor(){... */\n  callvalue\n  dup1\n  iszero\n  tag_1\n  jumpi\n  0x00\n  dup1\n  revert\ntag_1:\n  pop\n    /* \"contracts/Vote.sol\":73:2523  contract Vote {... */\n  dataSize(sub_0)\n  dup1\n  dataOffset(sub_0)\n  0x00\n  codecopy\n  0x00\n  return\nstop\n\nsub_0: assembly {\n        /* \"contracts/Vote.sol\":73:2523  contract Vote {... */\n      mstore(0x40, 0x80)\n      callvalue\n      dup1\n      iszero\n      tag_1\n      jumpi\n      0x00\n      dup1\n      revert\n    tag_1:\n      pop\n      jumpi(tag_2, lt(calldatasize, 0x04))\n      shr(0xe0, calldataload(0x00))\n      dup1\n      0x90a3a11f\n      gt\n      tag_12\n      jumpi\n      dup1\n      0x90a3a11f\n      eq\n      tag_7\n      jumpi\n      dup1\n      0xaf1651c2\n      eq\n      tag_8\n      jumpi\n      dup1\n      0xd4ed9329\n      eq\n      tag_9\n      jumpi\n      dup1\n      0xf8a8fd6d\n      eq\n      tag_10\n      jumpi\n      dup1\n      0xfcf814c3\n      eq\n      tag_11\n      jumpi\n      jump(tag_2)\n    tag_12:\n      dup1\n      0x22404b9d\n      eq\n      tag_3\n      jumpi\n      dup1\n      0x371da07b\n      eq\n      tag_4\n      jumpi\n      dup1\n      0x7d5529ec\n      eq\n      tag_5\n      jumpi\n      dup1\n      0x85e5b801\n      eq\n      tag_6\n      jumpi\n    tag_2:\n      0x00\n      dup1\n      revert\n        /* \"contracts/Vote.sol\":1088:1658  function addVote(string memory voteName, string memory candidate, address addr) public returns(string memory){... */\n    tag_3:\n      tag_13\n      0x04\n      dup1\n      calldatasize\n      sub\n      dup2\n      add\n      swap1\n      tag_14\n      swap2\n      swap1\n      tag_15\n      jump\t// in\n    tag_14:\n      tag_16\n      jump\t// in\n    tag_13:\n      mload(0x40)\n      tag_17\n      swap2\n      swap1\n      tag_18\n      jump\t// in\n    tag_17:\n      mload(0x40)\n      dup1\n      swap2\n      sub\n      swap1\n      return\n        /* \"contracts/Vote.sol\":149:208  mapping(string => mapping(string => uint)) public voteCount */\n    tag_4:\n      tag_19\n      0x04\n      dup1\n      calldatasize\n      sub\n      dup2\n      add\n      swap1\n      tag_20\n      swap2\n      swap1\n      tag_21\n      jump\t// in\n    tag_20:\n      tag_22\n      jump\t// in\n    tag_19:\n      mload(0x40)\n      tag_23\n      swap2\n      swap1\n      tag_24\n      jump\t// in\n    tag_23:\n      mload(0x40)\n      dup1\n      swap2\n      sub\n      swap1\n      return\n        /* \"contracts/Vote.sol\":1666:2282  function voteResult(string memory voteName) public view returns( Candidate[] memory){... */\n    tag_5:\n      tag_25\n      0x04\n      dup1\n      calldatasize\n      sub\n      dup2\n      add\n      swap1\n      tag_26\n      swap2\n      swap1\n      tag_27\n      jump\t// in\n    tag_26:\n      tag_28\n      jump\t// in\n    tag_25:\n      mload(0x40)\n      tag_29\n      swap2\n      swap1\n      tag_30\n      jump\t// in\n    tag_29:\n      mload(0x40)\n      dup1\n      swap2\n      sub\n      swap1\n      return\n        /* \"contracts/Vote.sol\":96:142  mapping(string=>string[]) public candidateVote */\n    tag_6:\n      tag_31\n      0x04\n      dup1\n      calldatasize\n      sub\n      dup2\n      add\n      swap1\n      tag_32\n      swap2\n      swap1\n      tag_33\n      jump\t// in\n    tag_32:\n      tag_34\n      jump\t// in\n    tag_31:\n      mload(0x40)\n      tag_35\n      swap2\n      swap1\n      tag_18\n      jump\t// in\n    tag_35:\n      mload(0x40)\n      dup1\n      swap2\n      sub\n      swap1\n      return\n        /* \"contracts/Vote.sol\":515:1080  function createVote(string memory voteName, string[] memory candidateOption) public returns(string memory){... */\n    tag_7:\n      tag_36\n      0x04\n      dup1\n      calldatasize\n      sub\n      dup2\n      add\n      swap1\n      tag_37\n      swap2\n      swap1\n      tag_38\n      jump\t// in\n    tag_37:\n      tag_39\n      jump\t// in\n    tag_36:\n      mload(0x40)\n      tag_40\n      swap2\n      swap1\n      tag_18\n      jump\t// in\n    tag_40:\n      mload(0x40)\n      dup1\n      swap2\n      sub\n      swap1\n      return\n        /* \"contracts/Vote.sol\":2290:2412  function lvm(string memory voteName) public view returns(uint){... */\n    tag_8:\n      tag_41\n      0x04\n      dup1\n      calldatasize\n      sub\n      dup2\n      add\n      swap1\n      tag_42\n      swap2\n      swap1\n      tag_27\n      jump\t// in\n    tag_42:\n      tag_43\n      jump\t// in\n    tag_41:\n      mload(0x40)\n      tag_44\n      swap2\n      swap1\n      tag_24\n      jump\t// in\n    tag_44:\n      mload(0x40)\n      dup1\n      swap2\n      sub\n      swap1\n      return\n        /* \"contracts/Vote.sol\":215:270  mapping(string=>mapping(address => bool)) public voters */\n    tag_9:\n      tag_45\n      0x04\n      dup1\n      calldatasize\n      sub\n      dup2\n      add\n      swap1\n      tag_46\n      swap2\n      swap1\n      tag_47\n      jump\t// in\n    tag_46:\n      tag_48\n      jump\t// in\n    tag_45:\n      mload(0x40)\n      tag_49\n      swap2\n      swap1\n      tag_50\n      jump\t// in\n    tag_49:\n      mload(0x40)\n      dup1\n      swap2\n      sub\n      swap1\n      return\n        /* \"contracts/Vote.sol\":2420:2520  function test() public pure returns(string memory){... */\n    tag_10:\n      tag_51\n      tag_52\n      jump\t// in\n    tag_51:\n      mload(0x40)\n      tag_53\n      swap2\n      swap1\n      tag_18\n      jump\t// in\n    tag_53:\n      mload(0x40)\n      dup1\n      swap2\n      sub\n      swap1\n      return\n        /* \"contracts/Vote.sol\":280:304  address public myaddress */\n    tag_11:\n      tag_54\n      tag_55\n      jump\t// in\n    tag_54:\n      mload(0x40)\n      tag_56\n      swap2\n      swap1\n      tag_57\n      jump\t// in\n    tag_56:\n      mload(0x40)\n      dup1\n      swap2\n      sub\n      swap1\n      return\n        /* \"contracts/Vote.sol\":1088:1658  function addVote(string memory voteName, string memory candidate, address addr) public returns(string memory){... */\n    tag_16:\n        /* \"contracts/Vote.sol\":1183:1196  string memory */\n      0x60\n        /* \"contracts/Vote.sol\":1251:1252  0 */\n      0x00\n        /* \"contracts/Vote.sol\":1218:1231  candidateVote */\n      dup1\n        /* \"contracts/Vote.sol\":1232:1240  voteName */\n      dup6\n        /* \"contracts/Vote.sol\":1218:1241  candidateVote[voteName] */\n      mload(0x40)\n      tag_59\n      swap2\n      swap1\n      tag_60\n      jump\t// in\n    tag_59:\n      swap1\n      dup2\n      mstore\n      0x20\n      add\n      mload(0x40)\n      dup1\n      swap2\n      sub\n      swap1\n      keccak256\n        /* \"contracts/Vote.sol\":1218:1248  candidateVote[voteName].length */\n      dup1\n      sload\n      swap1\n      pop\n        /* \"contracts/Vote.sol\":1218:1252  candidateVote[voteName].length > 0 */\n      gt\n        /* \"contracts/Vote.sol\":1210:1277  require(candidateVote[voteName].length > 0, \"Vote does not exist.\") */\n      tag_61\n      jumpi\n      mload(0x40)\n      0x08c379a000000000000000000000000000000000000000000000000000000000\n      dup2\n      mstore\n      0x04\n      add\n      tag_62\n      swap1\n      tag_63\n      jump\t// in\n    tag_62:\n      mload(0x40)\n      dup1\n      swap2\n      sub\n      swap1\n      revert\n    tag_61:\n        /* \"contracts/Vote.sol\":1401:1407  voters */\n      0x02\n        /* \"contracts/Vote.sol\":1408:1416  voteName */\n      dup5\n        /* \"contracts/Vote.sol\":1401:1417  voters[voteName] */\n      mload(0x40)\n      tag_64\n      swap2\n      swap1\n      tag_60\n      jump\t// in\n    tag_64:\n      swap1\n      dup2\n      mstore\n      0x20\n      add\n      mload(0x40)\n      dup1\n      swap2\n      sub\n      swap1\n      keccak256\n        /* \"contracts/Vote.sol\":1401:1423  voters[voteName][addr] */\n      0x00\n        /* \"contracts/Vote.sol\":1418:1422  addr */\n      dup4\n        /* \"contracts/Vote.sol\":1401:1423  voters[voteName][addr] */\n      0xffffffffffffffffffffffffffffffffffffffff\n      and\n      0xffffffffffffffffffffffffffffffffffffffff\n      and\n      dup2\n      mstore\n      0x20\n      add\n      swap1\n      dup2\n      mstore\n      0x20\n      add\n      0x00\n      keccak256\n      0x00\n      swap1\n      sload\n      swap1\n      0x0100\n      exp\n      swap1\n      div\n      0xff\n      and\n        /* \"contracts/Vote.sol\":1400:1423  !voters[voteName][addr] */\n      iszero\n        /* \"contracts/Vote.sol\":1392:1454  require(!voters[voteName][addr], \"Address has already voted!\") */\n      tag_65\n      jumpi\n      mload(0x40)\n      0x08c379a000000000000000000000000000000000000000000000000000000000\n      dup2\n      mstore\n      0x04\n      add\n      tag_66\n      swap1\n      tag_67\n      jump\t// in\n    tag_66:\n      mload(0x40)\n      dup1\n      swap2\n      sub\n      swap1\n      revert\n    tag_65:\n        /* \"contracts/Vote.sol\":1467:1476  voteCount */\n      0x01\n        /* \"contracts/Vote.sol\":1477:1485  voteName */\n      dup5\n        /* \"contracts/Vote.sol\":1467:1486  voteCount[voteName] */\n      mload(0x40)\n      tag_68\n      swap2\n      swap1\n      tag_60\n      jump\t// in\n    tag_68:\n      swap1\n      dup2\n      mstore\n      0x20\n      add\n      mload(0x40)\n      dup1\n      swap2\n      sub\n      swap1\n      keccak256\n        /* \"contracts/Vote.sol\":1487:1496  candidate */\n      dup4\n        /* \"contracts/Vote.sol\":1467:1497  voteCount[voteName][candidate] */\n      mload(0x40)\n      tag_69\n      swap2\n      swap1\n      tag_60\n      jump\t// in\n    tag_69:\n      swap1\n      dup2\n      mstore\n      0x20\n      add\n      mload(0x40)\n      dup1\n      swap2\n      sub\n      swap1\n      keccak256\n      0x00\n        /* \"contracts/Vote.sol\":1467:1499  voteCount[voteName][candidate]++ */\n      dup2\n      sload\n      dup1\n      swap3\n      swap2\n      swap1\n      tag_70\n      swap1\n      tag_71\n      jump\t// in\n    tag_70:\n      swap2\n      swap1\n      pop\n      sstore\n      pop\n        /* \"contracts/Vote.sol\":1591:1595  true */\n      0x01\n        /* \"contracts/Vote.sol\":1566:1572  voters */\n      0x02\n        /* \"contracts/Vote.sol\":1573:1581  voteName */\n      dup6\n        /* \"contracts/Vote.sol\":1566:1582  voters[voteName] */\n      mload(0x40)\n      tag_72\n      swap2\n      swap1\n      tag_60\n      jump\t// in\n    tag_72:\n      swap1\n      dup2\n      mstore\n      0x20\n      add\n      mload(0x40)\n      dup1\n      swap2\n      sub\n      swap1\n      keccak256\n        /* \"contracts/Vote.sol\":1566:1588  voters[voteName][addr] */\n      0x00\n        /* \"contracts/Vote.sol\":1583:1587  addr */\n      dup5\n        /* \"contracts/Vote.sol\":1566:1588  voters[voteName][addr] */\n      0xffffffffffffffffffffffffffffffffffffffff\n      and\n      0xffffffffffffffffffffffffffffffffffffffff\n      and\n      dup2\n      mstore\n      0x20\n      add\n      swap1\n      dup2\n      mstore\n      0x20\n      add\n      0x00\n      keccak256\n      0x00\n        /* \"contracts/Vote.sol\":1566:1595  voters[voteName][addr] = true */\n      0x0100\n      exp\n      dup2\n      sload\n      dup2\n      0xff\n      mul\n      not\n      and\n      swap1\n      dup4\n      iszero\n      iszero\n      mul\n      or\n      swap1\n      sstore\n      pop\n        /* \"contracts/Vote.sol\":1616:1648  return \"Vote successful casted!\" */\n      mload(0x40)\n      dup1\n      0x40\n      add\n      0x40\n      mstore\n      dup1\n      0x17\n      dup2\n      mstore\n      0x20\n      add\n      0x566f7465207375636365737366756c2063617374656421000000000000000000\n      dup2\n      mstore\n      pop\n      swap1\n      pop\n        /* \"contracts/Vote.sol\":1088:1658  function addVote(string memory voteName, string memory candidate, address addr) public returns(string memory){... */\n      swap4\n      swap3\n      pop\n      pop\n      pop\n      jump\t// out\n        /* \"contracts/Vote.sol\":149:208  mapping(string => mapping(string => uint)) public voteCount */\n    tag_22:\n      0x01\n      dup3\n      dup1\n      mload\n      0x20\n      dup2\n      add\n      dup3\n      add\n      dup1\n      mload\n      dup5\n      dup3\n      mstore\n      0x20\n      dup4\n      add\n      0x20\n      dup6\n      add\n      keccak256\n      dup2\n      dup4\n      mstore\n      dup1\n      swap6\n      pop\n      pop\n      pop\n      pop\n      pop\n      pop\n      dup2\n      dup1\n      mload\n      0x20\n      dup2\n      add\n      dup3\n      add\n      dup1\n      mload\n      dup5\n      dup3\n      mstore\n      0x20\n      dup4\n      add\n      0x20\n      dup6\n      add\n      keccak256\n      dup2\n      dup4\n      mstore\n      dup1\n      swap6\n      pop\n      pop\n      pop\n      pop\n      pop\n      pop\n      0x00\n      swap2\n      pop\n      swap2\n      pop\n      pop\n      sload\n      dup2\n      jump\t// out\n        /* \"contracts/Vote.sol\":1666:2282  function voteResult(string memory voteName) public view returns( Candidate[] memory){... */\n    tag_28:\n        /* \"contracts/Vote.sol\":1731:1749  Candidate[] memory */\n      0x60\n        /* \"contracts/Vote.sol\":1804:1805  0 */\n      0x00\n        /* \"contracts/Vote.sol\":1785:1793  voteName */\n      dup3\n        /* \"contracts/Vote.sol\":1779:1801  bytes(voteName).length */\n      mload\n        /* \"contracts/Vote.sol\":1779:1805  bytes(voteName).length > 0 */\n      gt\n        /* \"contracts/Vote.sol\":1771:1835  require(bytes(voteName).length > 0, \"Vote name cannot be empty\") */\n      tag_74\n      jumpi\n      mload(0x40)\n      0x08c379a000000000000000000000000000000000000000000000000000000000\n      dup2\n      mstore\n      0x04\n      add\n      tag_75\n      swap1\n      tag_76\n      jump\t// in\n    tag_75:\n      mload(0x40)\n      dup1\n      swap2\n      sub\n      swap1\n      revert\n    tag_74:\n        /* \"contracts/Vote.sol\":1846:1872  string[] memory candidates */\n      0x00\n        /* \"contracts/Vote.sol\":1875:1888  candidateVote */\n      dup1\n        /* \"contracts/Vote.sol\":1889:1897  voteName */\n      dup4\n        /* \"contracts/Vote.sol\":1875:1898  candidateVote[voteName] */\n      mload(0x40)\n      tag_77\n      swap2\n      swap1\n      tag_60\n      jump\t// in\n    tag_77:\n      swap1\n      dup2\n      mstore\n      0x20\n      add\n      mload(0x40)\n      dup1\n      swap2\n      sub\n      swap1\n      keccak256\n        /* \"contracts/Vote.sol\":1846:1898  string[] memory candidates = candidateVote[voteName] */\n      dup1\n      sload\n      dup1\n      0x20\n      mul\n      0x20\n      add\n      mload(0x40)\n      swap1\n      dup2\n      add\n      0x40\n      mstore\n      dup1\n      swap3\n      swap2\n      swap1\n      dup2\n      dup2\n      mstore\n      0x20\n      add\n      0x00\n      swap1\n    tag_78:\n      dup3\n      dup3\n      lt\n      iszero\n      tag_79\n      jumpi\n      dup4\n      dup3\n      swap1\n      0x00\n      mstore\n      keccak256(0x00, 0x20)\n      add\n      dup1\n      sload\n      tag_81\n      swap1\n      tag_82\n      jump\t// in\n    tag_81:\n      dup1\n      0x1f\n      add\n      0x20\n      dup1\n      swap2\n      div\n      mul\n      0x20\n      add\n      mload(0x40)\n      swap1\n      dup2\n      add\n      0x40\n      mstore\n      dup1\n      swap3\n      swap2\n      swap1\n      dup2\n      dup2\n      mstore\n      0x20\n      add\n      dup3\n      dup1\n      sload\n      tag_83\n      swap1\n      tag_82\n      jump\t// in\n    tag_83:\n      dup1\n      iszero\n      tag_84\n      jumpi\n      dup1\n      0x1f\n      lt\n      tag_85\n      jumpi\n      0x0100\n      dup1\n      dup4\n      sload\n      div\n      mul\n      dup4\n      mstore\n      swap2\n      0x20\n      add\n      swap2\n      jump(tag_84)\n    tag_85:\n      dup3\n      add\n      swap2\n      swap1\n      0x00\n      mstore\n      keccak256(0x00, 0x20)\n      swap1\n    tag_86:\n      dup2\n      sload\n      dup2\n      mstore\n      swap1\n      0x01\n      add\n      swap1\n      0x20\n      add\n      dup1\n      dup4\n      gt\n      tag_86\n      jumpi\n      dup3\n      swap1\n      sub\n      0x1f\n      and\n      dup3\n      add\n      swap2\n    tag_84:\n      pop\n      pop\n      pop\n      pop\n      pop\n      dup2\n      mstore\n      0x20\n      add\n      swap1\n      0x01\n      add\n      swap1\n      jump(tag_78)\n    tag_79:\n      pop\n      pop\n      pop\n      pop\n      swap1\n      pop\n        /* \"contracts/Vote.sol\":1909:1934  Candidate[] memory result */\n      0x00\n        /* \"contracts/Vote.sol\":1953:1963  candidates */\n      dup2\n        /* \"contracts/Vote.sol\":1953:1970  candidates.length */\n      mload\n        /* \"contracts/Vote.sol\":1937:1971  new Candidate[](candidates.length) */\n      0xffffffffffffffff\n      dup2\n      gt\n      iszero\n      tag_87\n      jumpi\n      tag_88\n      tag_89\n      jump\t// in\n    tag_88:\n    tag_87:\n      mload(0x40)\n      swap1\n      dup1\n      dup3\n      mstore\n      dup1\n      0x20\n      mul\n      0x20\n      add\n      dup3\n      add\n      0x40\n      mstore\n      dup1\n      iszero\n      tag_90\n      jumpi\n      dup2\n      0x20\n      add\n    tag_91:\n      tag_92\n      tag_93\n      jump\t// in\n    tag_92:\n      dup2\n      mstore\n      0x20\n      add\n      swap1\n      0x01\n      swap1\n      sub\n      swap1\n      dup2\n      tag_91\n      jumpi\n      swap1\n      pop\n    tag_90:\n      pop\n        /* \"contracts/Vote.sol\":1909:1971  Candidate[] memory result = new Candidate[](candidates.length) */\n      swap1\n      pop\n        /* \"contracts/Vote.sol\":1984:1990  uint i */\n      0x00\n        /* \"contracts/Vote.sol\":2001:2242  for(i=0;i<candidates.length;i++){... */\n    tag_94:\n        /* \"contracts/Vote.sol\":2011:2021  candidates */\n      dup3\n        /* \"contracts/Vote.sol\":2011:2028  candidates.length */\n      mload\n        /* \"contracts/Vote.sol\":2009:2010  i */\n      dup2\n        /* \"contracts/Vote.sol\":2009:2028  i<candidates.length */\n      lt\n        /* \"contracts/Vote.sol\":2001:2242  for(i=0;i<candidates.length;i++){... */\n      iszero\n      tag_95\n      jumpi\n        /* \"contracts/Vote.sol\":2050:2077  string memory candidateName */\n      0x00\n        /* \"contracts/Vote.sol\":2080:2090  candidates */\n      dup4\n        /* \"contracts/Vote.sol\":2091:2092  i */\n      dup3\n        /* \"contracts/Vote.sol\":2080:2093  candidates[i] */\n      dup2\n      mload\n      dup2\n      lt\n      tag_97\n      jumpi\n      tag_98\n      tag_99\n      jump\t// in\n    tag_98:\n    tag_97:\n      0x20\n      mul\n      0x20\n      add\n      add\n      mload\n        /* \"contracts/Vote.sol\":2050:2093  string memory candidateName = candidates[i] */\n      swap1\n      pop\n        /* \"contracts/Vote.sol\":2108:2118  uint votes */\n      0x00\n        /* \"contracts/Vote.sol\":2122:2131  voteCount */\n      0x01\n        /* \"contracts/Vote.sol\":2132:2140  voteName */\n      dup8\n        /* \"contracts/Vote.sol\":2122:2141  voteCount[voteName] */\n      mload(0x40)\n      tag_100\n      swap2\n      swap1\n      tag_60\n      jump\t// in\n    tag_100:\n      swap1\n      dup2\n      mstore\n      0x20\n      add\n      mload(0x40)\n      dup1\n      swap2\n      sub\n      swap1\n      keccak256\n        /* \"contracts/Vote.sol\":2142:2155  candidateName */\n      dup3\n        /* \"contracts/Vote.sol\":2122:2156  voteCount[voteName][candidateName] */\n      mload(0x40)\n      tag_101\n      swap2\n      swap1\n      tag_60\n      jump\t// in\n    tag_101:\n      swap1\n      dup2\n      mstore\n      0x20\n      add\n      mload(0x40)\n      dup1\n      swap2\n      sub\n      swap1\n      keccak256\n      sload\n        /* \"contracts/Vote.sol\":2108:2156  uint votes =  voteCount[voteName][candidateName] */\n      swap1\n      pop\n        /* \"contracts/Vote.sol\":2197:2228  Candidate(candidateName, votes) */\n      mload(0x40)\n      dup1\n      0x40\n      add\n      0x40\n      mstore\n      dup1\n        /* \"contracts/Vote.sol\":2207:2220  candidateName */\n      dup4\n        /* \"contracts/Vote.sol\":2197:2228  Candidate(candidateName, votes) */\n      dup2\n      mstore\n      0x20\n      add\n        /* \"contracts/Vote.sol\":2222:2227  votes */\n      dup3\n        /* \"contracts/Vote.sol\":2197:2228  Candidate(candidateName, votes) */\n      dup2\n      mstore\n      pop\n        /* \"contracts/Vote.sol\":2185:2191  result */\n      dup5\n        /* \"contracts/Vote.sol\":2192:2193  i */\n      dup5\n        /* \"contracts/Vote.sol\":2185:2194  result[i] */\n      dup2\n      mload\n      dup2\n      lt\n      tag_102\n      jumpi\n      tag_103\n      tag_99\n      jump\t// in\n    tag_103:\n    tag_102:\n      0x20\n      mul\n      0x20\n      add\n      add\n        /* \"contracts/Vote.sol\":2185:2228  result[i] = Candidate(candidateName, votes) */\n      dup2\n      swap1\n      mstore\n      pop\n        /* \"contracts/Vote.sol\":2033:2242  {... */\n      pop\n      pop\n        /* \"contracts/Vote.sol\":2029:2032  i++ */\n      dup1\n      dup1\n      tag_104\n      swap1\n      tag_71\n      jump\t// in\n    tag_104:\n      swap2\n      pop\n      pop\n        /* \"contracts/Vote.sol\":2001:2242  for(i=0;i<candidates.length;i++){... */\n      jump(tag_94)\n    tag_95:\n        /* \"contracts/Vote.sol\":2261:2267  result */\n      dup2\n        /* \"contracts/Vote.sol\":2254:2267  return result */\n      swap4\n      pop\n      pop\n      pop\n      pop\n        /* \"contracts/Vote.sol\":1666:2282  function voteResult(string memory voteName) public view returns( Candidate[] memory){... */\n      swap2\n      swap1\n      pop\n      jump\t// out\n        /* \"contracts/Vote.sol\":96:142  mapping(string=>string[]) public candidateVote */\n    tag_34:\n      0x00\n      dup3\n      dup1\n      mload\n      0x20\n      dup2\n      add\n      dup3\n      add\n      dup1\n      mload\n      dup5\n      dup3\n      mstore\n      0x20\n      dup4\n      add\n      0x20\n      dup6\n      add\n      keccak256\n      dup2\n      dup4\n      mstore\n      dup1\n      swap6\n      pop\n      pop\n      pop\n      pop\n      pop\n      pop\n      dup2\n      dup2\n      sload\n      dup2\n      lt\n      tag_105\n      jumpi\n      0x00\n      dup1\n      revert\n    tag_105:\n      swap1\n      0x00\n      mstore\n      keccak256(0x00, 0x20)\n      add\n      0x00\n      swap2\n      pop\n      swap2\n      pop\n      pop\n      dup1\n      sload\n      tag_107\n      swap1\n      tag_82\n      jump\t// in\n    tag_107:\n      dup1\n      0x1f\n      add\n      0x20\n      dup1\n      swap2\n      div\n      mul\n      0x20\n      add\n      mload(0x40)\n      swap1\n      dup2\n      add\n      0x40\n      mstore\n      dup1\n      swap3\n      swap2\n      swap1\n      dup2\n      dup2\n      mstore\n      0x20\n      add\n      dup3\n      dup1\n      sload\n      tag_108\n      swap1\n      tag_82\n      jump\t// in\n    tag_108:\n      dup1\n      iszero\n      tag_109\n      jumpi\n      dup1\n      0x1f\n      lt\n      tag_110\n      jumpi\n      0x0100\n      dup1\n      dup4\n      sload\n      div\n      mul\n      dup4\n      mstore\n      swap2\n      0x20\n      add\n      swap2\n      jump(tag_109)\n    tag_110:\n      dup3\n      add\n      swap2\n      swap1\n      0x00\n      mstore\n      keccak256(0x00, 0x20)\n      swap1\n    tag_111:\n      dup2\n      sload\n      dup2\n      mstore\n      swap1\n      0x01\n      add\n      swap1\n      0x20\n      add\n      dup1\n      dup4\n      gt\n      tag_111\n      jumpi\n      dup3\n      swap1\n      sub\n      0x1f\n      and\n      dup3\n      add\n      swap2\n    tag_109:\n      pop\n      pop\n      pop\n      pop\n      pop\n      dup2\n      jump\t// out\n        /* \"contracts/Vote.sol\":515:1080  function createVote(string memory voteName, string[] memory candidateOption) public returns(string memory){... */\n    tag_39:\n        /* \"contracts/Vote.sol\":607:620  string memory */\n      0x60\n        /* \"contracts/Vote.sol\":667:668  0 */\n      0x00\n        /* \"contracts/Vote.sol\":648:656  voteName */\n      dup4\n        /* \"contracts/Vote.sol\":642:664  bytes(voteName).length */\n      mload\n        /* \"contracts/Vote.sol\":642:668  bytes(voteName).length > 0 */\n      gt\n        /* \"contracts/Vote.sol\":634:709  require(bytes(voteName).length > 0, \"you must set a name for your voting.\") */\n      tag_113\n      jumpi\n      mload(0x40)\n      0x08c379a000000000000000000000000000000000000000000000000000000000\n      dup2\n      mstore\n      0x04\n      add\n      tag_114\n      swap1\n      tag_115\n      jump\t// in\n    tag_114:\n      mload(0x40)\n      dup1\n      swap2\n      sub\n      swap1\n      revert\n    tag_113:\n        /* \"contracts/Vote.sol\":753:754  0 */\n      0x00\n        /* \"contracts/Vote.sol\":728:743  candidateOption */\n      dup3\n        /* \"contracts/Vote.sol\":728:750  candidateOption.length */\n      mload\n        /* \"contracts/Vote.sol\":728:754  candidateOption.length > 0 */\n      gt\n        /* \"contracts/Vote.sol\":720:793  require(candidateOption.length > 0, \"Candidate options cannot be empty.\") */\n      tag_116\n      jumpi\n      mload(0x40)\n      0x08c379a000000000000000000000000000000000000000000000000000000000\n      dup2\n      mstore\n      0x04\n      add\n      tag_117\n      swap1\n      tag_118\n      jump\t// in\n    tag_117:\n      mload(0x40)\n      dup1\n      swap2\n      sub\n      swap1\n      revert\n    tag_116:\n        /* \"contracts/Vote.sol\":846:847  0 */\n      0x00\n        /* \"contracts/Vote.sol\":812:825  candidateVote */\n      dup1\n        /* \"contracts/Vote.sol\":826:834  voteName */\n      dup5\n        /* \"contracts/Vote.sol\":812:835  candidateVote[voteName] */\n      mload(0x40)\n      tag_119\n      swap2\n      swap1\n      tag_60\n      jump\t// in\n    tag_119:\n      swap1\n      dup2\n      mstore\n      0x20\n      add\n      mload(0x40)\n      dup1\n      swap2\n      sub\n      swap1\n      keccak256\n        /* \"contracts/Vote.sol\":812:842  candidateVote[voteName].length */\n      dup1\n      sload\n      swap1\n      pop\n        /* \"contracts/Vote.sol\":812:847  candidateVote[voteName].length == 0 */\n      eq\n        /* \"contracts/Vote.sol\":804:876  require(candidateVote[voteName].length == 0,\"the Vote already existed!\") */\n      tag_120\n      jumpi\n      mload(0x40)\n      0x08c379a000000000000000000000000000000000000000000000000000000000\n      dup2\n      mstore\n      0x04\n      add\n      tag_121\n      swap1\n      tag_122\n      jump\t// in\n    tag_121:\n      mload(0x40)\n      dup1\n      swap2\n      sub\n      swap1\n      revert\n    tag_120:\n        /* \"contracts/Vote.sol\":923:938  candidateOption */\n      dup2\n        /* \"contracts/Vote.sol\":897:910  candidateVote */\n      0x00\n        /* \"contracts/Vote.sol\":911:919  voteName */\n      dup5\n        /* \"contracts/Vote.sol\":897:920  candidateVote[voteName] */\n      mload(0x40)\n      tag_123\n      swap2\n      swap1\n      tag_60\n      jump\t// in\n    tag_123:\n      swap1\n      dup2\n      mstore\n      0x20\n      add\n      mload(0x40)\n      dup1\n      swap2\n      sub\n      swap1\n      keccak256\n        /* \"contracts/Vote.sol\":897:938  candidateVote[voteName] = candidateOption */\n      swap1\n      dup1\n      mload\n      swap1\n      0x20\n      add\n      swap1\n      tag_124\n      swap3\n      swap2\n      swap1\n      tag_125\n      jump\t// in\n    tag_124:\n      pop\n        /* \"contracts/Vote.sol\":992:993  0 */\n      0x00\n        /* \"contracts/Vote.sol\":959:972  candidateVote */\n      dup1\n        /* \"contracts/Vote.sol\":973:981  voteName */\n      dup5\n        /* \"contracts/Vote.sol\":959:982  candidateVote[voteName] */\n      mload(0x40)\n      tag_126\n      swap2\n      swap1\n      tag_60\n      jump\t// in\n    tag_126:\n      swap1\n      dup2\n      mstore\n      0x20\n      add\n      mload(0x40)\n      dup1\n      swap2\n      sub\n      swap1\n      keccak256\n        /* \"contracts/Vote.sol\":959:989  candidateVote[voteName].length */\n      dup1\n      sload\n      swap1\n      pop\n        /* \"contracts/Vote.sol\":959:993  candidateVote[voteName].length > 0 */\n      gt\n        /* \"contracts/Vote.sol\":951:1017  require(candidateVote[voteName].length > 0, \"something is wrong!\") */\n      tag_127\n      jumpi\n      mload(0x40)\n      0x08c379a000000000000000000000000000000000000000000000000000000000\n      dup2\n      mstore\n      0x04\n      add\n      tag_128\n      swap1\n      tag_129\n      jump\t// in\n    tag_128:\n      mload(0x40)\n      dup1\n      swap2\n      sub\n      swap1\n      revert\n    tag_127:\n        /* \"contracts/Vote.sol\":1030:1062  return \"create vote successful!\" */\n      mload(0x40)\n      dup1\n      0x40\n      add\n      0x40\n      mstore\n      dup1\n      0x17\n      dup2\n      mstore\n      0x20\n      add\n      0x63726561746520766f7465207375636365737366756c21000000000000000000\n      dup2\n      mstore\n      pop\n      swap1\n      pop\n        /* \"contracts/Vote.sol\":515:1080  function createVote(string memory voteName, string[] memory candidateOption) public returns(string memory){... */\n      swap3\n      swap2\n      pop\n      pop\n      jump\t// out\n        /* \"contracts/Vote.sol\":2290:2412  function lvm(string memory voteName) public view returns(uint){... */\n    tag_43:\n        /* \"contracts/Vote.sol\":2347:2351  uint */\n      0x00\n        /* \"contracts/Vote.sol\":2372:2385  candidateVote */\n      dup1\n        /* \"contracts/Vote.sol\":2386:2394  voteName */\n      dup3\n        /* \"contracts/Vote.sol\":2372:2395  candidateVote[voteName] */\n      mload(0x40)\n      tag_131\n      swap2\n      swap1\n      tag_60\n      jump\t// in\n    tag_131:\n      swap1\n      dup2\n      mstore\n      0x20\n      add\n      mload(0x40)\n      dup1\n      swap2\n      sub\n      swap1\n      keccak256\n        /* \"contracts/Vote.sol\":2372:2402  candidateVote[voteName].length */\n      dup1\n      sload\n      swap1\n      pop\n        /* \"contracts/Vote.sol\":2365:2402  return candidateVote[voteName].length */\n      swap1\n      pop\n        /* \"contracts/Vote.sol\":2290:2412  function lvm(string memory voteName) public view returns(uint){... */\n      swap2\n      swap1\n      pop\n      jump\t// out\n        /* \"contracts/Vote.sol\":215:270  mapping(string=>mapping(address => bool)) public voters */\n    tag_48:\n      0x02\n      dup3\n      dup1\n      mload\n      0x20\n      dup2\n      add\n      dup3\n      add\n      dup1\n      mload\n      dup5\n      dup3\n      mstore\n      0x20\n      dup4\n      add\n      0x20\n      dup6\n      add\n      keccak256\n      dup2\n      dup4\n      mstore\n      dup1\n      swap6\n      pop\n      pop\n      pop\n      pop\n      pop\n      pop\n      0x20\n      mstore\n      dup1\n      0x00\n      mstore\n      keccak256(0x00, 0x40)\n      0x00\n      swap2\n      pop\n      swap2\n      pop\n      swap1\n      sload\n      swap1\n      0x0100\n      exp\n      swap1\n      div\n      0xff\n      and\n      dup2\n      jump\t// out\n        /* \"contracts/Vote.sol\":2420:2520  function test() public pure returns(string memory){... */\n    tag_52:\n        /* \"contracts/Vote.sol\":2456:2469  string memory */\n      0x60\n        /* \"contracts/Vote.sol\":2483:2502  return \"xmrrabbitx\" */\n      mload(0x40)\n      dup1\n      0x40\n      add\n      0x40\n      mstore\n      dup1\n      0x0a\n      dup2\n      mstore\n      0x20\n      add\n      0x786d727261626269747800000000000000000000000000000000000000000000\n      dup2\n      mstore\n      pop\n      swap1\n      pop\n        /* \"contracts/Vote.sol\":2420:2520  function test() public pure returns(string memory){... */\n      swap1\n      jump\t// out\n        /* \"contracts/Vote.sol\":280:304  address public myaddress */\n    tag_55:\n      0x03\n      0x00\n      swap1\n      sload\n      swap1\n      0x0100\n      exp\n      swap1\n      div\n      0xffffffffffffffffffffffffffffffffffffffff\n      and\n      dup2\n      jump\t// out\n    tag_93:\n      mload(0x40)\n      dup1\n      0x40\n      add\n      0x40\n      mstore\n      dup1\n      0x60\n      dup2\n      mstore\n      0x20\n      add\n      0x00\n      dup2\n      mstore\n      pop\n      swap1\n      jump\t// out\n    tag_125:\n      dup3\n      dup1\n      sload\n      dup3\n      dup3\n      sstore\n      swap1\n      0x00\n      mstore\n      keccak256(0x00, 0x20)\n      swap1\n      dup2\n      add\n      swap3\n      dup3\n      iszero\n      tag_133\n      jumpi\n      swap2\n      0x20\n      mul\n      dup3\n      add\n    tag_134:\n      dup3\n      dup2\n      gt\n      iszero\n      tag_135\n      jumpi\n      dup3\n      mload\n      dup3\n      swap1\n      dup2\n      tag_136\n      swap2\n      swap1\n      tag_137\n      jump\t// in\n    tag_136:\n      pop\n      swap2\n      0x20\n      add\n      swap2\n      swap1\n      0x01\n      add\n      swap1\n      jump(tag_134)\n    tag_135:\n    tag_133:\n      pop\n      swap1\n      pop\n      tag_138\n      swap2\n      swap1\n      tag_139\n      jump\t// in\n    tag_138:\n      pop\n      swap1\n      jump\t// out\n    tag_139:\n    tag_140:\n      dup1\n      dup3\n      gt\n      iszero\n      tag_141\n      jumpi\n      0x00\n      dup2\n      dup2\n      tag_142\n      swap2\n      swap1\n      tag_143\n      jump\t// in\n    tag_142:\n      pop\n      0x01\n      add\n      jump(tag_140)\n    tag_141:\n      pop\n      swap1\n      jump\t// out\n    tag_143:\n      pop\n      dup1\n      sload\n      tag_144\n      swap1\n      tag_82\n      jump\t// in\n    tag_144:\n      0x00\n      dup3\n      sstore\n      dup1\n      0x1f\n      lt\n      tag_146\n      jumpi\n      pop\n      jump(tag_145)\n    tag_146:\n      0x1f\n      add\n      0x20\n      swap1\n      div\n      swap1\n      0x00\n      mstore\n      keccak256(0x00, 0x20)\n      swap1\n      dup2\n      add\n      swap1\n      tag_147\n      swap2\n      swap1\n      tag_148\n      jump\t// in\n    tag_147:\n    tag_145:\n      pop\n      jump\t// out\n    tag_148:\n    tag_149:\n      dup1\n      dup3\n      gt\n      iszero\n      tag_150\n      jumpi\n      0x00\n      dup2\n      0x00\n      swap1\n      sstore\n      pop\n      0x01\n      add\n      jump(tag_149)\n    tag_150:\n      pop\n      swap1\n      jump\t// out\n        /* \"#utility.yul\":7:82   */\n    tag_151:\n        /* \"#utility.yul\":40:46   */\n      0x00\n        /* \"#utility.yul\":73:75   */\n      0x40\n        /* \"#utility.yul\":67:76   */\n      mload\n        /* \"#utility.yul\":57:76   */\n      swap1\n      pop\n        /* \"#utility.yul\":7:82   */\n      swap1\n      jump\t// out\n        /* \"#utility.yul\":88:205   */\n    tag_152:\n        /* \"#utility.yul\":197:198   */\n      0x00\n        /* \"#utility.yul\":194:195   */\n      dup1\n        /* \"#utility.yul\":187:199   */\n      revert\n        /* \"#utility.yul\":211:328   */\n    tag_153:\n        /* \"#utility.yul\":320:321   */\n      0x00\n        /* \"#utility.yul\":317:318   */\n      dup1\n        /* \"#utility.yul\":310:322   */\n      revert\n        /* \"#utility.yul\":334:451   */\n    tag_154:\n        /* \"#utility.yul\":443:444   */\n      0x00\n        /* \"#utility.yul\":440:441   */\n      dup1\n        /* \"#utility.yul\":433:445   */\n      revert\n        /* \"#utility.yul\":457:574   */\n    tag_155:\n        /* \"#utility.yul\":566:567   */\n      0x00\n        /* \"#utility.yul\":563:564   */\n      dup1\n        /* \"#utility.yul\":556:568   */\n      revert\n        /* \"#utility.yul\":580:682   */\n    tag_156:\n        /* \"#utility.yul\":621:627   */\n      0x00\n        /* \"#utility.yul\":672:674   */\n      0x1f\n        /* \"#utility.yul\":668:675   */\n      not\n        /* \"#utility.yul\":663:665   */\n      0x1f\n        /* \"#utility.yul\":656:661   */\n      dup4\n        /* \"#utility.yul\":652:666   */\n      add\n        /* \"#utility.yul\":648:676   */\n      and\n        /* \"#utility.yul\":638:676   */\n      swap1\n      pop\n        /* \"#utility.yul\":580:682   */\n      swap2\n      swap1\n      pop\n      jump\t// out\n        /* \"#utility.yul\":688:868   */\n    tag_89:\n        /* \"#utility.yul\":736:813   */\n      0x4e487b7100000000000000000000000000000000000000000000000000000000\n        /* \"#utility.yul\":733:734   */\n      0x00\n        /* \"#utility.yul\":726:814   */\n      mstore\n        /* \"#utility.yul\":833:837   */\n      0x41\n        /* \"#utility.yul\":830:831   */\n      0x04\n        /* \"#utility.yul\":823:838   */\n      mstore\n        /* \"#utility.yul\":857:861   */\n      0x24\n        /* \"#utility.yul\":854:855   */\n      0x00\n        /* \"#utility.yul\":847:862   */\n      revert\n        /* \"#utility.yul\":874:1155   */\n    tag_157:\n        /* \"#utility.yul\":957:984   */\n      tag_234\n        /* \"#utility.yul\":979:983   */\n      dup3\n        /* \"#utility.yul\":957:984   */\n      tag_156\n      jump\t// in\n    tag_234:\n        /* \"#utility.yul\":949:955   */\n      dup2\n        /* \"#utility.yul\":945:985   */\n      add\n        /* \"#utility.yul\":1087:1093   */\n      dup2\n        /* \"#utility.yul\":1075:1085   */\n      dup2\n        /* \"#utility.yul\":1072:1094   */\n      lt\n        /* \"#utility.yul\":1051:1069   */\n      0xffffffffffffffff\n        /* \"#utility.yul\":1039:1049   */\n      dup3\n        /* \"#utility.yul\":1036:1070   */\n      gt\n        /* \"#utility.yul\":1033:1095   */\n      or\n        /* \"#utility.yul\":1030:1118   */\n      iszero\n      tag_235\n      jumpi\n        /* \"#utility.yul\":1098:1116   */\n      tag_236\n      tag_89\n      jump\t// in\n    tag_236:\n        /* \"#utility.yul\":1030:1118   */\n    tag_235:\n        /* \"#utility.yul\":1138:1148   */\n      dup1\n        /* \"#utility.yul\":1134:1136   */\n      0x40\n        /* \"#utility.yul\":1127:1149   */\n      mstore\n        /* \"#utility.yul\":917:1155   */\n      pop\n        /* \"#utility.yul\":874:1155   */\n      pop\n      pop\n      jump\t// out\n        /* \"#utility.yul\":1161:1290   */\n    tag_158:\n        /* \"#utility.yul\":1195:1201   */\n      0x00\n        /* \"#utility.yul\":1222:1242   */\n      tag_238\n      tag_151\n      jump\t// in\n    tag_238:\n        /* \"#utility.yul\":1212:1242   */\n      swap1\n      pop\n        /* \"#utility.yul\":1251:1284   */\n      tag_239\n        /* \"#utility.yul\":1279:1283   */\n      dup3\n        /* \"#utility.yul\":1271:1277   */\n      dup3\n        /* \"#utility.yul\":1251:1284   */\n      tag_157\n      jump\t// in\n    tag_239:\n        /* \"#utility.yul\":1161:1290   */\n      swap2\n      swap1\n      pop\n      jump\t// out\n        /* \"#utility.yul\":1296:1604   */\n    tag_159:\n        /* \"#utility.yul\":1358:1362   */\n      0x00\n        /* \"#utility.yul\":1448:1466   */\n      0xffffffffffffffff\n        /* \"#utility.yul\":1440:1446   */\n      dup3\n        /* \"#utility.yul\":1437:1467   */\n      gt\n        /* \"#utility.yul\":1434:1490   */\n      iszero\n      tag_241\n      jumpi\n        /* \"#utility.yul\":1470:1488   */\n      tag_242\n      tag_89\n      jump\t// in\n    tag_242:\n        /* \"#utility.yul\":1434:1490   */\n    tag_241:\n        /* \"#utility.yul\":1508:1537   */\n      tag_243\n        /* \"#utility.yul\":1530:1536   */\n      dup3\n        /* \"#utility.yul\":1508:1537   */\n      tag_156\n      jump\t// in\n    tag_243:\n        /* \"#utility.yul\":1500:1537   */\n      swap1\n      pop\n        /* \"#utility.yul\":1592:1596   */\n      0x20\n        /* \"#utility.yul\":1586:1590   */\n      dup2\n        /* \"#utility.yul\":1582:1597   */\n      add\n        /* \"#utility.yul\":1574:1597   */\n      swap1\n      pop\n        /* \"#utility.yul\":1296:1604   */\n      swap2\n      swap1\n      pop\n      jump\t// out\n        /* \"#utility.yul\":1610:1756   */\n    tag_160:\n        /* \"#utility.yul\":1707:1713   */\n      dup3\n        /* \"#utility.yul\":1702:1705   */\n      dup2\n        /* \"#utility.yul\":1697:1700   */\n      dup4\n        /* \"#utility.yul\":1684:1714   */\n      calldatacopy\n        /* \"#utility.yul\":1748:1749   */\n      0x00\n        /* \"#utility.yul\":1739:1745   */\n      dup4\n        /* \"#utility.yul\":1734:1737   */\n      dup4\n        /* \"#utility.yul\":1730:1746   */\n      add\n        /* \"#utility.yul\":1723:1750   */\n      mstore\n        /* \"#utility.yul\":1610:1756   */\n      pop\n      pop\n      pop\n      jump\t// out\n        /* \"#utility.yul\":1762:2187   */\n    tag_161:\n        /* \"#utility.yul\":1840:1845   */\n      0x00\n        /* \"#utility.yul\":1865:1931   */\n      tag_246\n        /* \"#utility.yul\":1881:1930   */\n      tag_247\n        /* \"#utility.yul\":1923:1929   */\n      dup5\n        /* \"#utility.yul\":1881:1930   */\n      tag_159\n      jump\t// in\n    tag_247:\n        /* \"#utility.yul\":1865:1931   */\n      tag_158\n      jump\t// in\n    tag_246:\n        /* \"#utility.yul\":1856:1931   */\n      swap1\n      pop\n        /* \"#utility.yul\":1954:1960   */\n      dup3\n        /* \"#utility.yul\":1947:1952   */\n      dup2\n        /* \"#utility.yul\":1940:1961   */\n      mstore\n        /* \"#utility.yul\":1992:1996   */\n      0x20\n        /* \"#utility.yul\":1985:1990   */\n      dup2\n        /* \"#utility.yul\":1981:1997   */\n      add\n        /* \"#utility.yul\":2030:2033   */\n      dup5\n        /* \"#utility.yul\":2021:2027   */\n      dup5\n        /* \"#utility.yul\":2016:2019   */\n      dup5\n        /* \"#utility.yul\":2012:2028   */\n      add\n        /* \"#utility.yul\":2009:2034   */\n      gt\n        /* \"#utility.yul\":2006:2118   */\n      iszero\n      tag_248\n      jumpi\n        /* \"#utility.yul\":2037:2116   */\n      tag_249\n      tag_155\n      jump\t// in\n    tag_249:\n        /* \"#utility.yul\":2006:2118   */\n    tag_248:\n        /* \"#utility.yul\":2127:2181   */\n      tag_250\n        /* \"#utility.yul\":2174:2180   */\n      dup5\n        /* \"#utility.yul\":2169:2172   */\n      dup3\n        /* \"#utility.yul\":2164:2167   */\n      dup6\n        /* \"#utility.yul\":2127:2181   */\n      tag_160\n      jump\t// in\n    tag_250:\n        /* \"#utility.yul\":1846:2187   */\n      pop\n        /* \"#utility.yul\":1762:2187   */\n      swap4\n      swap3\n      pop\n      pop\n      pop\n      jump\t// out\n        /* \"#utility.yul\":2207:2547   */\n    tag_162:\n        /* \"#utility.yul\":2263:2268   */\n      0x00\n        /* \"#utility.yul\":2312:2315   */\n      dup3\n        /* \"#utility.yul\":2305:2309   */\n      0x1f\n        /* \"#utility.yul\":2297:2303   */\n      dup4\n        /* \"#utility.yul\":2293:2310   */\n      add\n        /* \"#utility.yul\":2289:2316   */\n      slt\n        /* \"#utility.yul\":2279:2401   */\n      tag_252\n      jumpi\n        /* \"#utility.yul\":2320:2399   */\n      tag_253\n      tag_154\n      jump\t// in\n    tag_253:\n        /* \"#utility.yul\":2279:2401   */\n    tag_252:\n        /* \"#utility.yul\":2437:2443   */\n      dup2\n        /* \"#utility.yul\":2424:2444   */\n      calldataload\n        /* \"#utility.yul\":2462:2541   */\n      tag_254\n        /* \"#utility.yul\":2537:2540   */\n      dup5\n        /* \"#utility.yul\":2529:2535   */\n      dup3\n        /* \"#utility.yul\":2522:2526   */\n      0x20\n        /* \"#utility.yul\":2514:2520   */\n      dup7\n        /* \"#utility.yul\":2510:2527   */\n      add\n        /* \"#utility.yul\":2462:2541   */\n      tag_161\n      jump\t// in\n    tag_254:\n        /* \"#utility.yul\":2453:2541   */\n      swap2\n      pop\n        /* \"#utility.yul\":2269:2547   */\n      pop\n        /* \"#utility.yul\":2207:2547   */\n      swap3\n      swap2\n      pop\n      pop\n      jump\t// out\n        /* \"#utility.yul\":2553:2679   */\n    tag_163:\n        /* \"#utility.yul\":2590:2597   */\n      0x00\n        /* \"#utility.yul\":2630:2672   */\n      0xffffffffffffffffffffffffffffffffffffffff\n        /* \"#utility.yul\":2623:2628   */\n      dup3\n        /* \"#utility.yul\":2619:2673   */\n      and\n        /* \"#utility.yul\":2608:2673   */\n      swap1\n      pop\n        /* \"#utility.yul\":2553:2679   */\n      swap2\n      swap1\n      pop\n      jump\t// out\n        /* \"#utility.yul\":2685:2781   */\n    tag_164:\n        /* \"#utility.yul\":2722:2729   */\n      0x00\n        /* \"#utility.yul\":2751:2775   */\n      tag_257\n        /* \"#utility.yul\":2769:2774   */\n      dup3\n        /* \"#utility.yul\":2751:2775   */\n      tag_163\n      jump\t// in\n    tag_257:\n        /* \"#utility.yul\":2740:2775   */\n      swap1\n      pop\n        /* \"#utility.yul\":2685:2781   */\n      swap2\n      swap1\n      pop\n      jump\t// out\n        /* \"#utility.yul\":2787:2909   */\n    tag_165:\n        /* \"#utility.yul\":2860:2884   */\n      tag_259\n        /* \"#utility.yul\":2878:2883   */\n      dup2\n        /* \"#utility.yul\":2860:2884   */\n      tag_164\n      jump\t// in\n    tag_259:\n        /* \"#utility.yul\":2853:2858   */\n      dup2\n        /* \"#utility.yul\":2850:2885   */\n      eq\n        /* \"#utility.yul\":2840:2903   */\n      tag_260\n      jumpi\n        /* \"#utility.yul\":2899:2900   */\n      0x00\n        /* \"#utility.yul\":2896:2897   */\n      dup1\n        /* \"#utility.yul\":2889:2901   */\n      revert\n        /* \"#utility.yul\":2840:2903   */\n    tag_260:\n        /* \"#utility.yul\":2787:2909   */\n      pop\n      jump\t// out\n        /* \"#utility.yul\":2915:3054   */\n    tag_166:\n        /* \"#utility.yul\":2961:2966   */\n      0x00\n        /* \"#utility.yul\":2999:3005   */\n      dup2\n        /* \"#utility.yul\":2986:3006   */\n      calldataload\n        /* \"#utility.yul\":2977:3006   */\n      swap1\n      pop\n        /* \"#utility.yul\":3015:3048   */\n      tag_262\n        /* \"#utility.yul\":3042:3047   */\n      dup2\n        /* \"#utility.yul\":3015:3048   */\n      tag_165\n      jump\t// in\n    tag_262:\n        /* \"#utility.yul\":2915:3054   */\n      swap3\n      swap2\n      pop\n      pop\n      jump\t// out\n        /* \"#utility.yul\":3060:4039   */\n    tag_15:\n        /* \"#utility.yul\":3157:3163   */\n      0x00\n        /* \"#utility.yul\":3165:3171   */\n      dup1\n        /* \"#utility.yul\":3173:3179   */\n      0x00\n        /* \"#utility.yul\":3222:3224   */\n      0x60\n        /* \"#utility.yul\":3210:3219   */\n      dup5\n        /* \"#utility.yul\":3201:3208   */\n      dup7\n        /* \"#utility.yul\":3197:3220   */\n      sub\n        /* \"#utility.yul\":3193:3225   */\n      slt\n        /* \"#utility.yul\":3190:3309   */\n      iszero\n      tag_264\n      jumpi\n        /* \"#utility.yul\":3228:3307   */\n      tag_265\n      tag_152\n      jump\t// in\n    tag_265:\n        /* \"#utility.yul\":3190:3309   */\n    tag_264:\n        /* \"#utility.yul\":3376:3377   */\n      0x00\n        /* \"#utility.yul\":3365:3374   */\n      dup5\n        /* \"#utility.yul\":3361:3378   */\n      add\n        /* \"#utility.yul\":3348:3379   */\n      calldataload\n        /* \"#utility.yul\":3406:3424   */\n      0xffffffffffffffff\n        /* \"#utility.yul\":3398:3404   */\n      dup2\n        /* \"#utility.yul\":3395:3425   */\n      gt\n        /* \"#utility.yul\":3392:3509   */\n      iszero\n      tag_266\n      jumpi\n        /* \"#utility.yul\":3428:3507   */\n      tag_267\n      tag_153\n      jump\t// in\n    tag_267:\n        /* \"#utility.yul\":3392:3509   */\n    tag_266:\n        /* \"#utility.yul\":3533:3596   */\n      tag_268\n        /* \"#utility.yul\":3588:3595   */\n      dup7\n        /* \"#utility.yul\":3579:3585   */\n      dup3\n        /* \"#utility.yul\":3568:3577   */\n      dup8\n        /* \"#utility.yul\":3564:3586   */\n      add\n        /* \"#utility.yul\":3533:3596   */\n      tag_162\n      jump\t// in\n    tag_268:\n        /* \"#utility.yul\":3523:3596   */\n      swap4\n      pop\n        /* \"#utility.yul\":3319:3606   */\n      pop\n        /* \"#utility.yul\":3673:3675   */\n      0x20\n        /* \"#utility.yul\":3662:3671   */\n      dup5\n        /* \"#utility.yul\":3658:3676   */\n      add\n        /* \"#utility.yul\":3645:3677   */\n      calldataload\n        /* \"#utility.yul\":3704:3722   */\n      0xffffffffffffffff\n        /* \"#utility.yul\":3696:3702   */\n      dup2\n        /* \"#utility.yul\":3693:3723   */\n      gt\n        /* \"#utility.yul\":3690:3807   */\n      iszero\n      tag_269\n      jumpi\n        /* \"#utility.yul\":3726:3805   */\n      tag_270\n      tag_153\n      jump\t// in\n    tag_270:\n        /* \"#utility.yul\":3690:3807   */\n    tag_269:\n        /* \"#utility.yul\":3831:3894   */\n      tag_271\n        /* \"#utility.yul\":3886:3893   */\n      dup7\n        /* \"#utility.yul\":3877:3883   */\n      dup3\n        /* \"#utility.yul\":3866:3875   */\n      dup8\n        /* \"#utility.yul\":3862:3884   */\n      add\n        /* \"#utility.yul\":3831:3894   */\n      tag_162\n      jump\t// in\n    tag_271:\n        /* \"#utility.yul\":3821:3894   */\n      swap3\n      pop\n        /* \"#utility.yul\":3616:3904   */\n      pop\n        /* \"#utility.yul\":3943:3945   */\n      0x40\n        /* \"#utility.yul\":3969:4022   */\n      tag_272\n        /* \"#utility.yul\":4014:4021   */\n      dup7\n        /* \"#utility.yul\":4005:4011   */\n      dup3\n        /* \"#utility.yul\":3994:4003   */\n      dup8\n        /* \"#utility.yul\":3990:4012   */\n      add\n        /* \"#utility.yul\":3969:4022   */\n      tag_166\n      jump\t// in\n    tag_272:\n        /* \"#utility.yul\":3959:4022   */\n      swap2\n      pop\n        /* \"#utility.yul\":3914:4032   */\n      pop\n        /* \"#utility.yul\":3060:4039   */\n      swap3\n      pop\n      swap3\n      pop\n      swap3\n      jump\t// out\n        /* \"#utility.yul\":4045:4144   */\n    tag_167:\n        /* \"#utility.yul\":4097:4103   */\n      0x00\n        /* \"#utility.yul\":4131:4136   */\n      dup2\n        /* \"#utility.yul\":4125:4137   */\n      mload\n        /* \"#utility.yul\":4115:4137   */\n      swap1\n      pop\n        /* \"#utility.yul\":4045:4144   */\n      swap2\n      swap1\n      pop\n      jump\t// out\n        /* \"#utility.yul\":4150:4319   */\n    tag_168:\n        /* \"#utility.yul\":4234:4245   */\n      0x00\n        /* \"#utility.yul\":4268:4274   */\n      dup3\n        /* \"#utility.yul\":4263:4266   */\n      dup3\n        /* \"#utility.yul\":4256:4275   */\n      mstore\n        /* \"#utility.yul\":4308:4312   */\n      0x20\n        /* \"#utility.yul\":4303:4306   */\n      dup3\n        /* \"#utility.yul\":4299:4313   */\n      add\n        /* \"#utility.yul\":4284:4313   */\n      swap1\n      pop\n        /* \"#utility.yul\":4150:4319   */\n      swap3\n      swap2\n      pop\n      pop\n      jump\t// out\n        /* \"#utility.yul\":4325:4571   */\n    tag_169:\n        /* \"#utility.yul\":4406:4407   */\n      0x00\n        /* \"#utility.yul\":4416:4529   */\n    tag_276:\n        /* \"#utility.yul\":4430:4436   */\n      dup4\n        /* \"#utility.yul\":4427:4428   */\n      dup2\n        /* \"#utility.yul\":4424:4437   */\n      lt\n        /* \"#utility.yul\":4416:4529   */\n      iszero\n      tag_278\n      jumpi\n        /* \"#utility.yul\":4515:4516   */\n      dup1\n        /* \"#utility.yul\":4510:4513   */\n      dup3\n        /* \"#utility.yul\":4506:4517   */\n      add\n        /* \"#utility.yul\":4500:4518   */\n      mload\n        /* \"#utility.yul\":4496:4497   */\n      dup2\n        /* \"#utility.yul\":4491:4494   */\n      dup5\n        /* \"#utility.yul\":4487:4498   */\n      add\n        /* \"#utility.yul\":4480:4519   */\n      mstore\n        /* \"#utility.yul\":4452:4454   */\n      0x20\n        /* \"#utility.yul\":4449:4450   */\n      dup2\n        /* \"#utility.yul\":4445:4455   */\n      add\n        /* \"#utility.yul\":4440:4455   */\n      swap1\n      pop\n        /* \"#utility.yul\":4416:4529   */\n      jump(tag_276)\n    tag_278:\n        /* \"#utility.yul\":4563:4564   */\n      0x00\n        /* \"#utility.yul\":4554:4560   */\n      dup5\n        /* \"#utility.yul\":4549:4552   */\n      dup5\n        /* \"#utility.yul\":4545:4561   */\n      add\n        /* \"#utility.yul\":4538:4565   */\n      mstore\n        /* \"#utility.yul\":4387:4571   */\n      pop\n        /* \"#utility.yul\":4325:4571   */\n      pop\n      pop\n      pop\n      jump\t// out\n        /* \"#utility.yul\":4577:4954   */\n    tag_170:\n        /* \"#utility.yul\":4665:4668   */\n      0x00\n        /* \"#utility.yul\":4693:4732   */\n      tag_280\n        /* \"#utility.yul\":4726:4731   */\n      dup3\n        /* \"#utility.yul\":4693:4732   */\n      tag_167\n      jump\t// in\n    tag_280:\n        /* \"#utility.yul\":4748:4819   */\n      tag_281\n        /* \"#utility.yul\":4812:4818   */\n      dup2\n        /* \"#utility.yul\":4807:4810   */\n      dup6\n        /* \"#utility.yul\":4748:4819   */\n      tag_168\n      jump\t// in\n    tag_281:\n        /* \"#utility.yul\":4741:4819   */\n      swap4\n      pop\n        /* \"#utility.yul\":4828:4893   */\n      tag_282\n        /* \"#utility.yul\":4886:4892   */\n      dup2\n        /* \"#utility.yul\":4881:4884   */\n      dup6\n        /* \"#utility.yul\":4874:4878   */\n      0x20\n        /* \"#utility.yul\":4867:4872   */\n      dup7\n        /* \"#utility.yul\":4863:4879   */\n      add\n        /* \"#utility.yul\":4828:4893   */\n      tag_169\n      jump\t// in\n    tag_282:\n        /* \"#utility.yul\":4918:4947   */\n      tag_283\n        /* \"#utility.yul\":4940:4946   */\n      dup2\n        /* \"#utility.yul\":4918:4947   */\n      tag_156\n      jump\t// in\n    tag_283:\n        /* \"#utility.yul\":4913:4916   */\n      dup5\n        /* \"#utility.yul\":4909:4948   */\n      add\n        /* \"#utility.yul\":4902:4948   */\n      swap2\n      pop\n        /* \"#utility.yul\":4669:4954   */\n      pop\n        /* \"#utility.yul\":4577:4954   */\n      swap3\n      swap2\n      pop\n      pop\n      jump\t// out\n        /* \"#utility.yul\":4960:5273   */\n    tag_18:\n        /* \"#utility.yul\":5073:5077   */\n      0x00\n        /* \"#utility.yul\":5111:5113   */\n      0x20\n        /* \"#utility.yul\":5100:5109   */\n      dup3\n        /* \"#utility.yul\":5096:5114   */\n      add\n        /* \"#utility.yul\":5088:5114   */\n      swap1\n      pop\n        /* \"#utility.yul\":5160:5169   */\n      dup2\n        /* \"#utility.yul\":5154:5158   */\n      dup2\n        /* \"#utility.yul\":5150:5170   */\n      sub\n        /* \"#utility.yul\":5146:5147   */\n      0x00\n        /* \"#utility.yul\":5135:5144   */\n      dup4\n        /* \"#utility.yul\":5131:5148   */\n      add\n        /* \"#utility.yul\":5124:5171   */\n      mstore\n        /* \"#utility.yul\":5188:5266   */\n      tag_285\n        /* \"#utility.yul\":5261:5265   */\n      dup2\n        /* \"#utility.yul\":5252:5258   */\n      dup5\n        /* \"#utility.yul\":5188:5266   */\n      tag_170\n      jump\t// in\n    tag_285:\n        /* \"#utility.yul\":5180:5266   */\n      swap1\n      pop\n        /* \"#utility.yul\":4960:5273   */\n      swap3\n      swap2\n      pop\n      pop\n      jump\t// out\n        /* \"#utility.yul\":5279:6113   */\n    tag_21:\n        /* \"#utility.yul\":5367:5373   */\n      0x00\n        /* \"#utility.yul\":5375:5381   */\n      dup1\n        /* \"#utility.yul\":5424:5426   */\n      0x40\n        /* \"#utility.yul\":5412:5421   */\n      dup4\n        /* \"#utility.yul\":5403:5410   */\n      dup6\n        /* \"#utility.yul\":5399:5422   */\n      sub\n        /* \"#utility.yul\":5395:5427   */\n      slt\n        /* \"#utility.yul\":5392:5511   */\n      iszero\n      tag_287\n      jumpi\n        /* \"#utility.yul\":5430:5509   */\n      tag_288\n      tag_152\n      jump\t// in\n    tag_288:\n        /* \"#utility.yul\":5392:5511   */\n    tag_287:\n        /* \"#utility.yul\":5578:5579   */\n      0x00\n        /* \"#utility.yul\":5567:5576   */\n      dup4\n        /* \"#utility.yul\":5563:5580   */\n      add\n        /* \"#utility.yul\":5550:5581   */\n      calldataload\n        /* \"#utility.yul\":5608:5626   */\n      0xffffffffffffffff\n        /* \"#utility.yul\":5600:5606   */\n      dup2\n        /* \"#utility.yul\":5597:5627   */\n      gt\n        /* \"#utility.yul\":5594:5711   */\n      iszero\n      tag_289\n      jumpi\n        /* \"#utility.yul\":5630:5709   */\n      tag_290\n      tag_153\n      jump\t// in\n    tag_290:\n        /* \"#utility.yul\":5594:5711   */\n    tag_289:\n        /* \"#utility.yul\":5735:5798   */\n      tag_291\n        /* \"#utility.yul\":5790:5797   */\n      dup6\n        /* \"#utility.yul\":5781:5787   */\n      dup3\n        /* \"#utility.yul\":5770:5779   */\n      dup7\n        /* \"#utility.yul\":5766:5788   */\n      add\n        /* \"#utility.yul\":5735:5798   */\n      tag_162\n      jump\t// in\n    tag_291:\n        /* \"#utility.yul\":5725:5798   */\n      swap3\n      pop\n        /* \"#utility.yul\":5521:5808   */\n      pop\n        /* \"#utility.yul\":5875:5877   */\n      0x20\n        /* \"#utility.yul\":5864:5873   */\n      dup4\n        /* \"#utility.yul\":5860:5878   */\n      add\n        /* \"#utility.yul\":5847:5879   */\n      calldataload\n        /* \"#utility.yul\":5906:5924   */\n      0xffffffffffffffff\n        /* \"#utility.yul\":5898:5904   */\n      dup2\n        /* \"#utility.yul\":5895:5925   */\n      gt\n        /* \"#utility.yul\":5892:6009   */\n      iszero\n      tag_292\n      jumpi\n        /* \"#utility.yul\":5928:6007   */\n      tag_293\n      tag_153\n      jump\t// in\n    tag_293:\n        /* \"#utility.yul\":5892:6009   */\n    tag_292:\n        /* \"#utility.yul\":6033:6096   */\n      tag_294\n        /* \"#utility.yul\":6088:6095   */\n      dup6\n        /* \"#utility.yul\":6079:6085   */\n      dup3\n        /* \"#utility.yul\":6068:6077   */\n      dup7\n        /* \"#utility.yul\":6064:6086   */\n      add\n        /* \"#utility.yul\":6033:6096   */\n      tag_162\n      jump\t// in\n    tag_294:\n        /* \"#utility.yul\":6023:6096   */\n      swap2\n      pop\n        /* \"#utility.yul\":5818:6106   */\n      pop\n        /* \"#utility.yul\":5279:6113   */\n      swap3\n      pop\n      swap3\n      swap1\n      pop\n      jump\t// out\n        /* \"#utility.yul\":6119:6196   */\n    tag_171:\n        /* \"#utility.yul\":6156:6163   */\n      0x00\n        /* \"#utility.yul\":6185:6190   */\n      dup2\n        /* \"#utility.yul\":6174:6190   */\n      swap1\n      pop\n        /* \"#utility.yul\":6119:6196   */\n      swap2\n      swap1\n      pop\n      jump\t// out\n        /* \"#utility.yul\":6202:6320   */\n    tag_172:\n        /* \"#utility.yul\":6289:6313   */\n      tag_297\n        /* \"#utility.yul\":6307:6312   */\n      dup2\n        /* \"#utility.yul\":6289:6313   */\n      tag_171\n      jump\t// in\n    tag_297:\n        /* \"#utility.yul\":6284:6287   */\n      dup3\n        /* \"#utility.yul\":6277:6314   */\n      mstore\n        /* \"#utility.yul\":6202:6320   */\n      pop\n      pop\n      jump\t// out\n        /* \"#utility.yul\":6326:6548   */\n    tag_24:\n        /* \"#utility.yul\":6419:6423   */\n      0x00\n        /* \"#utility.yul\":6457:6459   */\n      0x20\n        /* \"#utility.yul\":6446:6455   */\n      dup3\n        /* \"#utility.yul\":6442:6460   */\n      add\n        /* \"#utility.yul\":6434:6460   */\n      swap1\n      pop\n        /* \"#utility.yul\":6470:6541   */\n      tag_299\n        /* \"#utility.yul\":6538:6539   */\n      0x00\n        /* \"#utility.yul\":6527:6536   */\n      dup4\n        /* \"#utility.yul\":6523:6540   */\n      add\n        /* \"#utility.yul\":6514:6520   */\n      dup5\n        /* \"#utility.yul\":6470:6541   */\n      tag_172\n      jump\t// in\n    tag_299:\n        /* \"#utility.yul\":6326:6548   */\n      swap3\n      swap2\n      pop\n      pop\n      jump\t// out\n        /* \"#utility.yul\":6554:7063   */\n    tag_27:\n        /* \"#utility.yul\":6623:6629   */\n      0x00\n        /* \"#utility.yul\":6672:6674   */\n      0x20\n        /* \"#utility.yul\":6660:6669   */\n      dup3\n        /* \"#utility.yul\":6651:6658   */\n      dup5\n        /* \"#utility.yul\":6647:6670   */\n      sub\n        /* \"#utility.yul\":6643:6675   */\n      slt\n        /* \"#utility.yul\":6640:6759   */\n      iszero\n      tag_301\n      jumpi\n        /* \"#utility.yul\":6678:6757   */\n      tag_302\n      tag_152\n      jump\t// in\n    tag_302:\n        /* \"#utility.yul\":6640:6759   */\n    tag_301:\n        /* \"#utility.yul\":6826:6827   */\n      0x00\n        /* \"#utility.yul\":6815:6824   */\n      dup3\n        /* \"#utility.yul\":6811:6828   */\n      add\n        /* \"#utility.yul\":6798:6829   */\n      calldataload\n        /* \"#utility.yul\":6856:6874   */\n      0xffffffffffffffff\n        /* \"#utility.yul\":6848:6854   */\n      dup2\n        /* \"#utility.yul\":6845:6875   */\n      gt\n        /* \"#utility.yul\":6842:6959   */\n      iszero\n      tag_303\n      jumpi\n        /* \"#utility.yul\":6878:6957   */\n      tag_304\n      tag_153\n      jump\t// in\n    tag_304:\n        /* \"#utility.yul\":6842:6959   */\n    tag_303:\n        /* \"#utility.yul\":6983:7046   */\n      tag_305\n        /* \"#utility.yul\":7038:7045   */\n      dup5\n        /* \"#utility.yul\":7029:7035   */\n      dup3\n        /* \"#utility.yul\":7018:7027   */\n      dup6\n        /* \"#utility.yul\":7014:7036   */\n      add\n        /* \"#utility.yul\":6983:7046   */\n      tag_162\n      jump\t// in\n    tag_305:\n        /* \"#utility.yul\":6973:7046   */\n      swap2\n      pop\n        /* \"#utility.yul\":6769:7056   */\n      pop\n        /* \"#utility.yul\":6554:7063   */\n      swap3\n      swap2\n      pop\n      pop\n      jump\t// out\n        /* \"#utility.yul\":7069:7208   */\n    tag_173:\n        /* \"#utility.yul\":7161:7167   */\n      0x00\n        /* \"#utility.yul\":7195:7200   */\n      dup2\n        /* \"#utility.yul\":7189:7201   */\n      mload\n        /* \"#utility.yul\":7179:7201   */\n      swap1\n      pop\n        /* \"#utility.yul\":7069:7208   */\n      swap2\n      swap1\n      pop\n      jump\t// out\n        /* \"#utility.yul\":7214:7423   */\n    tag_174:\n        /* \"#utility.yul\":7338:7349   */\n      0x00\n        /* \"#utility.yul\":7372:7378   */\n      dup3\n        /* \"#utility.yul\":7367:7370   */\n      dup3\n        /* \"#utility.yul\":7360:7379   */\n      mstore\n        /* \"#utility.yul\":7412:7416   */\n      0x20\n        /* \"#utility.yul\":7407:7410   */\n      dup3\n        /* \"#utility.yul\":7403:7417   */\n      add\n        /* \"#utility.yul\":7388:7417   */\n      swap1\n      pop\n        /* \"#utility.yul\":7214:7423   */\n      swap3\n      swap2\n      pop\n      pop\n      jump\t// out\n        /* \"#utility.yul\":7429:7586   */\n    tag_175:\n        /* \"#utility.yul\":7521:7525   */\n      0x00\n        /* \"#utility.yul\":7544:7547   */\n      dup2\n        /* \"#utility.yul\":7536:7547   */\n      swap1\n      pop\n        /* \"#utility.yul\":7574:7578   */\n      0x20\n        /* \"#utility.yul\":7569:7572   */\n      dup3\n        /* \"#utility.yul\":7565:7579   */\n      add\n        /* \"#utility.yul\":7557:7579   */\n      swap1\n      pop\n        /* \"#utility.yul\":7429:7586   */\n      swap2\n      swap1\n      pop\n      jump\t// out\n        /* \"#utility.yul\":7592:7751   */\n    tag_176:\n        /* \"#utility.yul\":7666:7677   */\n      0x00\n        /* \"#utility.yul\":7700:7706   */\n      dup3\n        /* \"#utility.yul\":7695:7698   */\n      dup3\n        /* \"#utility.yul\":7688:7707   */\n      mstore\n        /* \"#utility.yul\":7740:7744   */\n      0x20\n        /* \"#utility.yul\":7735:7738   */\n      dup3\n        /* \"#utility.yul\":7731:7745   */\n      add\n        /* \"#utility.yul\":7716:7745   */\n      swap1\n      pop\n        /* \"#utility.yul\":7592:7751   */\n      swap3\n      swap2\n      pop\n      pop\n      jump\t// out\n        /* \"#utility.yul\":7757:8114   */\n    tag_177:\n        /* \"#utility.yul\":7835:7838   */\n      0x00\n        /* \"#utility.yul\":7863:7902   */\n      tag_311\n        /* \"#utility.yul\":7896:7901   */\n      dup3\n        /* \"#utility.yul\":7863:7902   */\n      tag_167\n      jump\t// in\n    tag_311:\n        /* \"#utility.yul\":7918:7979   */\n      tag_312\n        /* \"#utility.yul\":7972:7978   */\n      dup2\n        /* \"#utility.yul\":7967:7970   */\n      dup6\n        /* \"#utility.yul\":7918:7979   */\n      tag_176\n      jump\t// in\n    tag_312:\n        /* \"#utility.yul\":7911:7979   */\n      swap4\n      pop\n        /* \"#utility.yul\":7988:8053   */\n      tag_313\n        /* \"#utility.yul\":8046:8052   */\n      dup2\n        /* \"#utility.yul\":8041:8044   */\n      dup6\n        /* \"#utility.yul\":8034:8038   */\n      0x20\n        /* \"#utility.yul\":8027:8032   */\n      dup7\n        /* \"#utility.yul\":8023:8039   */\n      add\n        /* \"#utility.yul\":7988:8053   */\n      tag_169\n      jump\t// in\n    tag_313:\n        /* \"#utility.yul\":8078:8107   */\n      tag_314\n        /* \"#utility.yul\":8100:8106   */\n      dup2\n        /* \"#utility.yul\":8078:8107   */\n      tag_156\n      jump\t// in\n    tag_314:\n        /* \"#utility.yul\":8073:8076   */\n      dup5\n        /* \"#utility.yul\":8069:8108   */\n      add\n        /* \"#utility.yul\":8062:8108   */\n      swap2\n      pop\n        /* \"#utility.yul\":7839:8114   */\n      pop\n        /* \"#utility.yul\":7757:8114   */\n      swap3\n      swap2\n      pop\n      pop\n      jump\t// out\n        /* \"#utility.yul\":8120:8228   */\n    tag_178:\n        /* \"#utility.yul\":8197:8221   */\n      tag_316\n        /* \"#utility.yul\":8215:8220   */\n      dup2\n        /* \"#utility.yul\":8197:8221   */\n      tag_171\n      jump\t// in\n    tag_316:\n        /* \"#utility.yul\":8192:8195   */\n      dup3\n        /* \"#utility.yul\":8185:8222   */\n      mstore\n        /* \"#utility.yul\":8120:8228   */\n      pop\n      pop\n      jump\t// out\n        /* \"#utility.yul\":8288:8885   */\n    tag_179:\n        /* \"#utility.yul\":8397:8400   */\n      0x00\n        /* \"#utility.yul\":8433:8437   */\n      0x40\n        /* \"#utility.yul\":8428:8431   */\n      dup4\n        /* \"#utility.yul\":8424:8438   */\n      add\n        /* \"#utility.yul\":8520:8524   */\n      0x00\n        /* \"#utility.yul\":8513:8518   */\n      dup4\n        /* \"#utility.yul\":8509:8525   */\n      add\n        /* \"#utility.yul\":8503:8526   */\n      mload\n        /* \"#utility.yul\":8573:8576   */\n      dup5\n        /* \"#utility.yul\":8567:8571   */\n      dup3\n        /* \"#utility.yul\":8563:8577   */\n      sub\n        /* \"#utility.yul\":8556:8560   */\n      0x00\n        /* \"#utility.yul\":8551:8554   */\n      dup7\n        /* \"#utility.yul\":8547:8561   */\n      add\n        /* \"#utility.yul\":8540:8578   */\n      mstore\n        /* \"#utility.yul\":8599:8672   */\n      tag_318\n        /* \"#utility.yul\":8667:8671   */\n      dup3\n        /* \"#utility.yul\":8653:8665   */\n      dup3\n        /* \"#utility.yul\":8599:8672   */\n      tag_177\n      jump\t// in\n    tag_318:\n        /* \"#utility.yul\":8591:8672   */\n      swap2\n      pop\n        /* \"#utility.yul\":8448:8683   */\n      pop\n        /* \"#utility.yul\":8766:8770   */\n      0x20\n        /* \"#utility.yul\":8759:8764   */\n      dup4\n        /* \"#utility.yul\":8755:8771   */\n      add\n        /* \"#utility.yul\":8749:8772   */\n      mload\n        /* \"#utility.yul\":8785:8848   */\n      tag_319\n        /* \"#utility.yul\":8842:8846   */\n      0x20\n        /* \"#utility.yul\":8837:8840   */\n      dup7\n        /* \"#utility.yul\":8833:8847   */\n      add\n        /* \"#utility.yul\":8819:8831   */\n      dup3\n        /* \"#utility.yul\":8785:8848   */\n      tag_178\n      jump\t// in\n    tag_319:\n        /* \"#utility.yul\":8693:8858   */\n      pop\n        /* \"#utility.yul\":8875:8879   */\n      dup1\n        /* \"#utility.yul\":8868:8879   */\n      swap2\n      pop\n        /* \"#utility.yul\":8402:8885   */\n      pop\n        /* \"#utility.yul\":8288:8885   */\n      swap3\n      swap2\n      pop\n      pop\n      jump\t// out\n        /* \"#utility.yul\":8891:9147   */\n    tag_180:\n        /* \"#utility.yul\":9010:9020   */\n      0x00\n        /* \"#utility.yul\":9045:9141   */\n      tag_321\n        /* \"#utility.yul\":9137:9140   */\n      dup4\n        /* \"#utility.yul\":9129:9135   */\n      dup4\n        /* \"#utility.yul\":9045:9141   */\n      tag_179\n      jump\t// in\n    tag_321:\n        /* \"#utility.yul\":9031:9141   */\n      swap1\n      pop\n        /* \"#utility.yul\":8891:9147   */\n      swap3\n      swap2\n      pop\n      pop\n      jump\t// out\n        /* \"#utility.yul\":9153:9291   */\n    tag_181:\n        /* \"#utility.yul\":9248:9252   */\n      0x00\n        /* \"#utility.yul\":9280:9284   */\n      0x20\n        /* \"#utility.yul\":9275:9278   */\n      dup3\n        /* \"#utility.yul\":9271:9285   */\n      add\n        /* \"#utility.yul\":9263:9285   */\n      swap1\n      pop\n        /* \"#utility.yul\":9153:9291   */\n      swap2\n      swap1\n      pop\n      jump\t// out\n        /* \"#utility.yul\":9355:10466   */\n    tag_182:\n        /* \"#utility.yul\":9524:9527   */\n      0x00\n        /* \"#utility.yul\":9553:9632   */\n      tag_324\n        /* \"#utility.yul\":9626:9631   */\n      dup3\n        /* \"#utility.yul\":9553:9632   */\n      tag_173\n      jump\t// in\n    tag_324:\n        /* \"#utility.yul\":9648:9759   */\n      tag_325\n        /* \"#utility.yul\":9752:9758   */\n      dup2\n        /* \"#utility.yul\":9747:9750   */\n      dup6\n        /* \"#utility.yul\":9648:9759   */\n      tag_174\n      jump\t// in\n    tag_325:\n        /* \"#utility.yul\":9641:9759   */\n      swap4\n      pop\n        /* \"#utility.yul\":9785:9788   */\n      dup4\n        /* \"#utility.yul\":9830:9834   */\n      0x20\n        /* \"#utility.yul\":9822:9828   */\n      dup3\n        /* \"#utility.yul\":9818:9835   */\n      mul\n        /* \"#utility.yul\":9813:9816   */\n      dup6\n        /* \"#utility.yul\":9809:9836   */\n      add\n        /* \"#utility.yul\":9860:9941   */\n      tag_326\n        /* \"#utility.yul\":9935:9940   */\n      dup6\n        /* \"#utility.yul\":9860:9941   */\n      tag_175\n      jump\t// in\n    tag_326:\n        /* \"#utility.yul\":9964:9971   */\n      dup1\n        /* \"#utility.yul\":9995:9996   */\n      0x00\n        /* \"#utility.yul\":9980:10421   */\n    tag_327:\n        /* \"#utility.yul\":10005:10011   */\n      dup6\n        /* \"#utility.yul\":10002:10003   */\n      dup2\n        /* \"#utility.yul\":9999:10012   */\n      lt\n        /* \"#utility.yul\":9980:10421   */\n      iszero\n      tag_329\n      jumpi\n        /* \"#utility.yul\":10076:10085   */\n      dup5\n        /* \"#utility.yul\":10070:10074   */\n      dup5\n        /* \"#utility.yul\":10066:10086   */\n      sub\n        /* \"#utility.yul\":10061:10064   */\n      dup10\n        /* \"#utility.yul\":10054:10087   */\n      mstore\n        /* \"#utility.yul\":10127:10133   */\n      dup2\n        /* \"#utility.yul\":10121:10134   */\n      mload\n        /* \"#utility.yul\":10155:10269   */\n      tag_330\n        /* \"#utility.yul\":10264:10268   */\n      dup6\n        /* \"#utility.yul\":10249:10262   */\n      dup3\n        /* \"#utility.yul\":10155:10269   */\n      tag_180\n      jump\t// in\n    tag_330:\n        /* \"#utility.yul\":10147:10269   */\n      swap5\n      pop\n        /* \"#utility.yul\":10292:10377   */\n      tag_331\n        /* \"#utility.yul\":10370:10376   */\n      dup4\n        /* \"#utility.yul\":10292:10377   */\n      tag_181\n      jump\t// in\n    tag_331:\n        /* \"#utility.yul\":10282:10377   */\n      swap3\n      pop\n        /* \"#utility.yul\":10406:10410   */\n      0x20\n        /* \"#utility.yul\":10401:10404   */\n      dup11\n        /* \"#utility.yul\":10397:10411   */\n      add\n        /* \"#utility.yul\":10390:10411   */\n      swap10\n      pop\n        /* \"#utility.yul\":10040:10421   */\n      pop\n        /* \"#utility.yul\":10027:10028   */\n      0x01\n        /* \"#utility.yul\":10024:10025   */\n      dup2\n        /* \"#utility.yul\":10020:10029   */\n      add\n        /* \"#utility.yul\":10015:10029   */\n      swap1\n      pop\n        /* \"#utility.yul\":9980:10421   */\n      jump(tag_327)\n    tag_329:\n        /* \"#utility.yul\":9984:9998   */\n      pop\n        /* \"#utility.yul\":10437:10441   */\n      dup3\n        /* \"#utility.yul\":10430:10441   */\n      swap8\n      pop\n        /* \"#utility.yul\":10457:10460   */\n      dup8\n        /* \"#utility.yul\":10450:10460   */\n      swap6\n      pop\n        /* \"#utility.yul\":9529:10466   */\n      pop\n      pop\n      pop\n      pop\n      pop\n        /* \"#utility.yul\":9355:10466   */\n      swap3\n      swap2\n      pop\n      pop\n      jump\t// out\n        /* \"#utility.yul\":10472:10945   */\n    tag_30:\n        /* \"#utility.yul\":10665:10669   */\n      0x00\n        /* \"#utility.yul\":10703:10705   */\n      0x20\n        /* \"#utility.yul\":10692:10701   */\n      dup3\n        /* \"#utility.yul\":10688:10706   */\n      add\n        /* \"#utility.yul\":10680:10706   */\n      swap1\n      pop\n        /* \"#utility.yul\":10752:10761   */\n      dup2\n        /* \"#utility.yul\":10746:10750   */\n      dup2\n        /* \"#utility.yul\":10742:10762   */\n      sub\n        /* \"#utility.yul\":10738:10739   */\n      0x00\n        /* \"#utility.yul\":10727:10736   */\n      dup4\n        /* \"#utility.yul\":10723:10740   */\n      add\n        /* \"#utility.yul\":10716:10763   */\n      mstore\n        /* \"#utility.yul\":10780:10938   */\n      tag_333\n        /* \"#utility.yul\":10933:10937   */\n      dup2\n        /* \"#utility.yul\":10924:10930   */\n      dup5\n        /* \"#utility.yul\":10780:10938   */\n      tag_182\n      jump\t// in\n    tag_333:\n        /* \"#utility.yul\":10772:10938   */\n      swap1\n      pop\n        /* \"#utility.yul\":10472:10945   */\n      swap3\n      swap2\n      pop\n      pop\n      jump\t// out\n        /* \"#utility.yul\":10951:11073   */\n    tag_183:\n        /* \"#utility.yul\":11024:11048   */\n      tag_335\n        /* \"#utility.yul\":11042:11047   */\n      dup2\n        /* \"#utility.yul\":11024:11048   */\n      tag_171\n      jump\t// in\n    tag_335:\n        /* \"#utility.yul\":11017:11022   */\n      dup2\n        /* \"#utility.yul\":11014:11049   */\n      eq\n        /* \"#utility.yul\":11004:11067   */\n      tag_336\n      jumpi\n        /* \"#utility.yul\":11063:11064   */\n      0x00\n        /* \"#utility.yul\":11060:11061   */\n      dup1\n        /* \"#utility.yul\":11053:11065   */\n      revert\n        /* \"#utility.yul\":11004:11067   */\n    tag_336:\n        /* \"#utility.yul\":10951:11073   */\n      pop\n      jump\t// out\n        /* \"#utility.yul\":11079:11218   */\n    tag_184:\n        /* \"#utility.yul\":11125:11130   */\n      0x00\n        /* \"#utility.yul\":11163:11169   */\n      dup2\n        /* \"#utility.yul\":11150:11170   */\n      calldataload\n        /* \"#utility.yul\":11141:11170   */\n      swap1\n      pop\n        /* \"#utility.yul\":11179:11212   */\n      tag_338\n        /* \"#utility.yul\":11206:11211   */\n      dup2\n        /* \"#utility.yul\":11179:11212   */\n      tag_183\n      jump\t// in\n    tag_338:\n        /* \"#utility.yul\":11079:11218   */\n      swap3\n      swap2\n      pop\n      pop\n      jump\t// out\n        /* \"#utility.yul\":11224:11878   */\n    tag_33:\n        /* \"#utility.yul\":11302:11308   */\n      0x00\n        /* \"#utility.yul\":11310:11316   */\n      dup1\n        /* \"#utility.yul\":11359:11361   */\n      0x40\n        /* \"#utility.yul\":11347:11356   */\n      dup4\n        /* \"#utility.yul\":11338:11345   */\n      dup6\n        /* \"#utility.yul\":11334:11357   */\n      sub\n        /* \"#utility.yul\":11330:11362   */\n      slt\n        /* \"#utility.yul\":11327:11446   */\n      iszero\n      tag_340\n      jumpi\n        /* \"#utility.yul\":11365:11444   */\n      tag_341\n      tag_152\n      jump\t// in\n    tag_341:\n        /* \"#utility.yul\":11327:11446   */\n    tag_340:\n        /* \"#utility.yul\":11513:11514   */\n      0x00\n        /* \"#utility.yul\":11502:11511   */\n      dup4\n        /* \"#utility.yul\":11498:11515   */\n      add\n        /* \"#utility.yul\":11485:11516   */\n      calldataload\n        /* \"#utility.yul\":11543:11561   */\n      0xffffffffffffffff\n        /* \"#utility.yul\":11535:11541   */\n      dup2\n        /* \"#utility.yul\":11532:11562   */\n      gt\n        /* \"#utility.yul\":11529:11646   */\n      iszero\n      tag_342\n      jumpi\n        /* \"#utility.yul\":11565:11644   */\n      tag_343\n      tag_153\n      jump\t// in\n    tag_343:\n        /* \"#utility.yul\":11529:11646   */\n    tag_342:\n        /* \"#utility.yul\":11670:11733   */\n      tag_344\n        /* \"#utility.yul\":11725:11732   */\n      dup6\n        /* \"#utility.yul\":11716:11722   */\n      dup3\n        /* \"#utility.yul\":11705:11714   */\n      dup7\n        /* \"#utility.yul\":11701:11723   */\n      add\n        /* \"#utility.yul\":11670:11733   */\n      tag_162\n      jump\t// in\n    tag_344:\n        /* \"#utility.yul\":11660:11733   */\n      swap3\n      pop\n        /* \"#utility.yul\":11456:11743   */\n      pop\n        /* \"#utility.yul\":11782:11784   */\n      0x20\n        /* \"#utility.yul\":11808:11861   */\n      tag_345\n        /* \"#utility.yul\":11853:11860   */\n      dup6\n        /* \"#utility.yul\":11844:11850   */\n      dup3\n        /* \"#utility.yul\":11833:11842   */\n      dup7\n        /* \"#utility.yul\":11829:11851   */\n      add\n        /* \"#utility.yul\":11808:11861   */\n      tag_184\n      jump\t// in\n    tag_345:\n        /* \"#utility.yul\":11798:11861   */\n      swap2\n      pop\n        /* \"#utility.yul\":11753:11871   */\n      pop\n        /* \"#utility.yul\":11224:11878   */\n      swap3\n      pop\n      swap3\n      swap1\n      pop\n      jump\t// out\n        /* \"#utility.yul\":11884:12205   */\n    tag_185:\n        /* \"#utility.yul\":11971:11975   */\n      0x00\n        /* \"#utility.yul\":12061:12079   */\n      0xffffffffffffffff\n        /* \"#utility.yul\":12053:12059   */\n      dup3\n        /* \"#utility.yul\":12050:12080   */\n      gt\n        /* \"#utility.yul\":12047:12103   */\n      iszero\n      tag_347\n      jumpi\n        /* \"#utility.yul\":12083:12101   */\n      tag_348\n      tag_89\n      jump\t// in\n    tag_348:\n        /* \"#utility.yul\":12047:12103   */\n    tag_347:\n        /* \"#utility.yul\":12133:12137   */\n      0x20\n        /* \"#utility.yul\":12125:12131   */\n      dup3\n        /* \"#utility.yul\":12121:12138   */\n      mul\n        /* \"#utility.yul\":12113:12138   */\n      swap1\n      pop\n        /* \"#utility.yul\":12193:12197   */\n      0x20\n        /* \"#utility.yul\":12187:12191   */\n      dup2\n        /* \"#utility.yul\":12183:12198   */\n      add\n        /* \"#utility.yul\":12175:12198   */\n      swap1\n      pop\n        /* \"#utility.yul\":11884:12205   */\n      swap2\n      swap1\n      pop\n      jump\t// out\n        /* \"#utility.yul\":12211:12328   */\n    tag_186:\n        /* \"#utility.yul\":12320:12321   */\n      0x00\n        /* \"#utility.yul\":12317:12318   */\n      dup1\n        /* \"#utility.yul\":12310:12322   */\n      revert\n        /* \"#utility.yul\":12350:13295   */\n    tag_187:\n        /* \"#utility.yul\":12456:12461   */\n      0x00\n        /* \"#utility.yul\":12481:12572   */\n      tag_351\n        /* \"#utility.yul\":12497:12571   */\n      tag_352\n        /* \"#utility.yul\":12564:12570   */\n      dup5\n        /* \"#utility.yul\":12497:12571   */\n      tag_185\n      jump\t// in\n    tag_352:\n        /* \"#utility.yul\":12481:12572   */\n      tag_158\n      jump\t// in\n    tag_351:\n        /* \"#utility.yul\":12472:12572   */\n      swap1\n      pop\n        /* \"#utility.yul\":12592:12597   */\n      dup1\n        /* \"#utility.yul\":12621:12627   */\n      dup4\n        /* \"#utility.yul\":12614:12619   */\n      dup3\n        /* \"#utility.yul\":12607:12628   */\n      mstore\n        /* \"#utility.yul\":12655:12659   */\n      0x20\n        /* \"#utility.yul\":12648:12653   */\n      dup3\n        /* \"#utility.yul\":12644:12660   */\n      add\n        /* \"#utility.yul\":12637:12660   */\n      swap1\n      pop\n        /* \"#utility.yul\":12708:12712   */\n      0x20\n        /* \"#utility.yul\":12700:12706   */\n      dup5\n        /* \"#utility.yul\":12696:12713   */\n      mul\n        /* \"#utility.yul\":12688:12694   */\n      dup4\n        /* \"#utility.yul\":12684:12714   */\n      add\n        /* \"#utility.yul\":12737:12740   */\n      dup6\n        /* \"#utility.yul\":12729:12735   */\n      dup2\n        /* \"#utility.yul\":12726:12741   */\n      gt\n        /* \"#utility.yul\":12723:12845   */\n      iszero\n      tag_353\n      jumpi\n        /* \"#utility.yul\":12756:12835   */\n      tag_354\n      tag_186\n      jump\t// in\n    tag_354:\n        /* \"#utility.yul\":12723:12845   */\n    tag_353:\n        /* \"#utility.yul\":12871:12877   */\n      dup4\n        /* \"#utility.yul\":12854:13289   */\n    tag_355:\n        /* \"#utility.yul\":12888:12894   */\n      dup2\n        /* \"#utility.yul\":12883:12886   */\n      dup2\n        /* \"#utility.yul\":12880:12895   */\n      lt\n        /* \"#utility.yul\":12854:13289   */\n      iszero\n      tag_357\n      jumpi\n        /* \"#utility.yul\":12977:12980   */\n      dup1\n        /* \"#utility.yul\":12964:12981   */\n      calldataload\n        /* \"#utility.yul\":13013:13031   */\n      0xffffffffffffffff\n        /* \"#utility.yul\":13000:13011   */\n      dup2\n        /* \"#utility.yul\":12997:13032   */\n      gt\n        /* \"#utility.yul\":12994:13116   */\n      iszero\n      tag_358\n      jumpi\n        /* \"#utility.yul\":13035:13114   */\n      tag_359\n      tag_154\n      jump\t// in\n    tag_359:\n        /* \"#utility.yul\":12994:13116   */\n    tag_358:\n        /* \"#utility.yul\":13159:13170   */\n      dup1\n        /* \"#utility.yul\":13151:13157   */\n      dup7\n        /* \"#utility.yul\":13147:13171   */\n      add\n        /* \"#utility.yul\":13197:13244   */\n      tag_360\n        /* \"#utility.yul\":13240:13243   */\n      dup10\n        /* \"#utility.yul\":13228:13238   */\n      dup3\n        /* \"#utility.yul\":13197:13244   */\n      tag_162\n      jump\t// in\n    tag_360:\n        /* \"#utility.yul\":13192:13195   */\n      dup6\n        /* \"#utility.yul\":13185:13245   */\n      mstore\n        /* \"#utility.yul\":13274:13278   */\n      0x20\n        /* \"#utility.yul\":13269:13272   */\n      dup6\n        /* \"#utility.yul\":13265:13279   */\n      add\n        /* \"#utility.yul\":13258:13279   */\n      swap5\n      pop\n        /* \"#utility.yul\":12930:13289   */\n      pop\n      pop\n        /* \"#utility.yul\":12914:12918   */\n      0x20\n        /* \"#utility.yul\":12909:12912   */\n      dup2\n        /* \"#utility.yul\":12905:12919   */\n      add\n        /* \"#utility.yul\":12898:12919   */\n      swap1\n      pop\n        /* \"#utility.yul\":12854:13289   */\n      jump(tag_355)\n    tag_357:\n        /* \"#utility.yul\":12858:12879   */\n      pop\n        /* \"#utility.yul\":12462:13295   */\n      pop\n      pop\n        /* \"#utility.yul\":12350:13295   */\n      swap4\n      swap3\n      pop\n      pop\n      pop\n      jump\t// out\n        /* \"#utility.yul\":13317:13707   */\n    tag_188:\n        /* \"#utility.yul\":13398:13403   */\n      0x00\n        /* \"#utility.yul\":13447:13450   */\n      dup3\n        /* \"#utility.yul\":13440:13444   */\n      0x1f\n        /* \"#utility.yul\":13432:13438   */\n      dup4\n        /* \"#utility.yul\":13428:13445   */\n      add\n        /* \"#utility.yul\":13424:13451   */\n      slt\n        /* \"#utility.yul\":13414:13536   */\n      tag_362\n      jumpi\n        /* \"#utility.yul\":13455:13534   */\n      tag_363\n      tag_154\n      jump\t// in\n    tag_363:\n        /* \"#utility.yul\":13414:13536   */\n    tag_362:\n        /* \"#utility.yul\":13572:13578   */\n      dup2\n        /* \"#utility.yul\":13559:13579   */\n      calldataload\n        /* \"#utility.yul\":13597:13701   */\n      tag_364\n        /* \"#utility.yul\":13697:13700   */\n      dup5\n        /* \"#utility.yul\":13689:13695   */\n      dup3\n        /* \"#utility.yul\":13682:13686   */\n      0x20\n        /* \"#utility.yul\":13674:13680   */\n      dup7\n        /* \"#utility.yul\":13670:13687   */\n      add\n        /* \"#utility.yul\":13597:13701   */\n      tag_187\n      jump\t// in\n    tag_364:\n        /* \"#utility.yul\":13588:13701   */\n      swap2\n      pop\n        /* \"#utility.yul\":13404:13707   */\n      pop\n        /* \"#utility.yul\":13317:13707   */\n      swap3\n      swap2\n      pop\n      pop\n      jump\t// out\n        /* \"#utility.yul\":13713:14597   */\n    tag_38:\n        /* \"#utility.yul\":13826:13832   */\n      0x00\n        /* \"#utility.yul\":13834:13840   */\n      dup1\n        /* \"#utility.yul\":13883:13885   */\n      0x40\n        /* \"#utility.yul\":13871:13880   */\n      dup4\n        /* \"#utility.yul\":13862:13869   */\n      dup6\n        /* \"#utility.yul\":13858:13881   */\n      sub\n        /* \"#utility.yul\":13854:13886   */\n      slt\n        /* \"#utility.yul\":13851:13970   */\n      iszero\n      tag_366\n      jumpi\n        /* \"#utility.yul\":13889:13968   */\n      tag_367\n      tag_152\n      jump\t// in\n    tag_367:\n        /* \"#utility.yul\":13851:13970   */\n    tag_366:\n        /* \"#utility.yul\":14037:14038   */\n      0x00\n        /* \"#utility.yul\":14026:14035   */\n      dup4\n        /* \"#utility.yul\":14022:14039   */\n      add\n        /* \"#utility.yul\":14009:14040   */\n      calldataload\n        /* \"#utility.yul\":14067:14085   */\n      0xffffffffffffffff\n        /* \"#utility.yul\":14059:14065   */\n      dup2\n        /* \"#utility.yul\":14056:14086   */\n      gt\n        /* \"#utility.yul\":14053:14170   */\n      iszero\n      tag_368\n      jumpi\n        /* \"#utility.yul\":14089:14168   */\n      tag_369\n      tag_153\n      jump\t// in\n    tag_369:\n        /* \"#utility.yul\":14053:14170   */\n    tag_368:\n        /* \"#utility.yul\":14194:14257   */\n      tag_370\n        /* \"#utility.yul\":14249:14256   */\n      dup6\n        /* \"#utility.yul\":14240:14246   */\n      dup3\n        /* \"#utility.yul\":14229:14238   */\n      dup7\n        /* \"#utility.yul\":14225:14247   */\n      add\n        /* \"#utility.yul\":14194:14257   */\n      tag_162\n      jump\t// in\n    tag_370:\n        /* \"#utility.yul\":14184:14257   */\n      swap3\n      pop\n        /* \"#utility.yul\":13980:14267   */\n      pop\n        /* \"#utility.yul\":14334:14336   */\n      0x20\n        /* \"#utility.yul\":14323:14332   */\n      dup4\n        /* \"#utility.yul\":14319:14337   */\n      add\n        /* \"#utility.yul\":14306:14338   */\n      calldataload\n        /* \"#utility.yul\":14365:14383   */\n      0xffffffffffffffff\n        /* \"#utility.yul\":14357:14363   */\n      dup2\n        /* \"#utility.yul\":14354:14384   */\n      gt\n        /* \"#utility.yul\":14351:14468   */\n      iszero\n      tag_371\n      jumpi\n        /* \"#utility.yul\":14387:14466   */\n      tag_372\n      tag_153\n      jump\t// in\n    tag_372:\n        /* \"#utility.yul\":14351:14468   */\n    tag_371:\n        /* \"#utility.yul\":14492:14580   */\n      tag_373\n        /* \"#utility.yul\":14572:14579   */\n      dup6\n        /* \"#utility.yul\":14563:14569   */\n      dup3\n        /* \"#utility.yul\":14552:14561   */\n      dup7\n        /* \"#utility.yul\":14548:14570   */\n      add\n        /* \"#utility.yul\":14492:14580   */\n      tag_188\n      jump\t// in\n    tag_373:\n        /* \"#utility.yul\":14482:14580   */\n      swap2\n      pop\n        /* \"#utility.yul\":14277:14590   */\n      pop\n        /* \"#utility.yul\":13713:14597   */\n      swap3\n      pop\n      swap3\n      swap1\n      pop\n      jump\t// out\n        /* \"#utility.yul\":14603:15257   */\n    tag_47:\n        /* \"#utility.yul\":14681:14687   */\n      0x00\n        /* \"#utility.yul\":14689:14695   */\n      dup1\n        /* \"#utility.yul\":14738:14740   */\n      0x40\n        /* \"#utility.yul\":14726:14735   */\n      dup4\n        /* \"#utility.yul\":14717:14724   */\n      dup6\n        /* \"#utility.yul\":14713:14736   */\n      sub\n        /* \"#utility.yul\":14709:14741   */\n      slt\n        /* \"#utility.yul\":14706:14825   */\n      iszero\n      tag_375\n      jumpi\n        /* \"#utility.yul\":14744:14823   */\n      tag_376\n      tag_152\n      jump\t// in\n    tag_376:\n        /* \"#utility.yul\":14706:14825   */\n    tag_375:\n        /* \"#utility.yul\":14892:14893   */\n      0x00\n        /* \"#utility.yul\":14881:14890   */\n      dup4\n        /* \"#utility.yul\":14877:14894   */\n      add\n        /* \"#utility.yul\":14864:14895   */\n      calldataload\n        /* \"#utility.yul\":14922:14940   */\n      0xffffffffffffffff\n        /* \"#utility.yul\":14914:14920   */\n      dup2\n        /* \"#utility.yul\":14911:14941   */\n      gt\n        /* \"#utility.yul\":14908:15025   */\n      iszero\n      tag_377\n      jumpi\n        /* \"#utility.yul\":14944:15023   */\n      tag_378\n      tag_153\n      jump\t// in\n    tag_378:\n        /* \"#utility.yul\":14908:15025   */\n    tag_377:\n        /* \"#utility.yul\":15049:15112   */\n      tag_379\n        /* \"#utility.yul\":15104:15111   */\n      dup6\n        /* \"#utility.yul\":15095:15101   */\n      dup3\n        /* \"#utility.yul\":15084:15093   */\n      dup7\n        /* \"#utility.yul\":15080:15102   */\n      add\n        /* \"#utility.yul\":15049:15112   */\n      tag_162\n      jump\t// in\n    tag_379:\n        /* \"#utility.yul\":15039:15112   */\n      swap3\n      pop\n        /* \"#utility.yul\":14835:15122   */\n      pop\n        /* \"#utility.yul\":15161:15163   */\n      0x20\n        /* \"#utility.yul\":15187:15240   */\n      tag_380\n        /* \"#utility.yul\":15232:15239   */\n      dup6\n        /* \"#utility.yul\":15223:15229   */\n      dup3\n        /* \"#utility.yul\":15212:15221   */\n      dup7\n        /* \"#utility.yul\":15208:15230   */\n      add\n        /* \"#utility.yul\":15187:15240   */\n      tag_166\n      jump\t// in\n    tag_380:\n        /* \"#utility.yul\":15177:15240   */\n      swap2\n      pop\n        /* \"#utility.yul\":15132:15250   */\n      pop\n        /* \"#utility.yul\":14603:15257   */\n      swap3\n      pop\n      swap3\n      swap1\n      pop\n      jump\t// out\n        /* \"#utility.yul\":15263:15353   */\n    tag_189:\n        /* \"#utility.yul\":15297:15304   */\n      0x00\n        /* \"#utility.yul\":15340:15345   */\n      dup2\n        /* \"#utility.yul\":15333:15346   */\n      iszero\n        /* \"#utility.yul\":15326:15347   */\n      iszero\n        /* \"#utility.yul\":15315:15347   */\n      swap1\n      pop\n        /* \"#utility.yul\":15263:15353   */\n      swap2\n      swap1\n      pop\n      jump\t// out\n        /* \"#utility.yul\":15359:15468   */\n    tag_190:\n        /* \"#utility.yul\":15440:15461   */\n      tag_383\n        /* \"#utility.yul\":15455:15460   */\n      dup2\n        /* \"#utility.yul\":15440:15461   */\n      tag_189\n      jump\t// in\n    tag_383:\n        /* \"#utility.yul\":15435:15438   */\n      dup3\n        /* \"#utility.yul\":15428:15462   */\n      mstore\n        /* \"#utility.yul\":15359:15468   */\n      pop\n      pop\n      jump\t// out\n        /* \"#utility.yul\":15474:15684   */\n    tag_50:\n        /* \"#utility.yul\":15561:15565   */\n      0x00\n        /* \"#utility.yul\":15599:15601   */\n      0x20\n        /* \"#utility.yul\":15588:15597   */\n      dup3\n        /* \"#utility.yul\":15584:15602   */\n      add\n        /* \"#utility.yul\":15576:15602   */\n      swap1\n      pop\n        /* \"#utility.yul\":15612:15677   */\n      tag_385\n        /* \"#utility.yul\":15674:15675   */\n      0x00\n        /* \"#utility.yul\":15663:15672   */\n      dup4\n        /* \"#utility.yul\":15659:15676   */\n      add\n        /* \"#utility.yul\":15650:15656   */\n      dup5\n        /* \"#utility.yul\":15612:15677   */\n      tag_190\n      jump\t// in\n    tag_385:\n        /* \"#utility.yul\":15474:15684   */\n      swap3\n      swap2\n      pop\n      pop\n      jump\t// out\n        /* \"#utility.yul\":15690:15808   */\n    tag_191:\n        /* \"#utility.yul\":15777:15801   */\n      tag_387\n        /* \"#utility.yul\":15795:15800   */\n      dup2\n        /* \"#utility.yul\":15777:15801   */\n      tag_164\n      jump\t// in\n    tag_387:\n        /* \"#utility.yul\":15772:15775   */\n      dup3\n        /* \"#utility.yul\":15765:15802   */\n      mstore\n        /* \"#utility.yul\":15690:15808   */\n      pop\n      pop\n      jump\t// out\n        /* \"#utility.yul\":15814:16036   */\n    tag_57:\n        /* \"#utility.yul\":15907:15911   */\n      0x00\n        /* \"#utility.yul\":15945:15947   */\n      0x20\n        /* \"#utility.yul\":15934:15943   */\n      dup3\n        /* \"#utility.yul\":15930:15948   */\n      add\n        /* \"#utility.yul\":15922:15948   */\n      swap1\n      pop\n        /* \"#utility.yul\":15958:16029   */\n      tag_389\n        /* \"#utility.yul\":16026:16027   */\n      0x00\n        /* \"#utility.yul\":16015:16024   */\n      dup4\n        /* \"#utility.yul\":16011:16028   */\n      add\n        /* \"#utility.yul\":16002:16008   */\n      dup5\n        /* \"#utility.yul\":15958:16029   */\n      tag_191\n      jump\t// in\n    tag_389:\n        /* \"#utility.yul\":15814:16036   */\n      swap3\n      swap2\n      pop\n      pop\n      jump\t// out\n        /* \"#utility.yul\":16042:16190   */\n    tag_192:\n        /* \"#utility.yul\":16144:16155   */\n      0x00\n        /* \"#utility.yul\":16181:16184   */\n      dup2\n        /* \"#utility.yul\":16166:16184   */\n      swap1\n      pop\n        /* \"#utility.yul\":16042:16190   */\n      swap3\n      swap2\n      pop\n      pop\n      jump\t// out\n        /* \"#utility.yul\":16196:16586   */\n    tag_193:\n        /* \"#utility.yul\":16302:16305   */\n      0x00\n        /* \"#utility.yul\":16330:16369   */\n      tag_392\n        /* \"#utility.yul\":16363:16368   */\n      dup3\n        /* \"#utility.yul\":16330:16369   */\n      tag_167\n      jump\t// in\n    tag_392:\n        /* \"#utility.yul\":16385:16474   */\n      tag_393\n        /* \"#utility.yul\":16467:16473   */\n      dup2\n        /* \"#utility.yul\":16462:16465   */\n      dup6\n        /* \"#utility.yul\":16385:16474   */\n      tag_192\n      jump\t// in\n    tag_393:\n        /* \"#utility.yul\":16378:16474   */\n      swap4\n      pop\n        /* \"#utility.yul\":16483:16548   */\n      tag_394\n        /* \"#utility.yul\":16541:16547   */\n      dup2\n        /* \"#utility.yul\":16536:16539   */\n      dup6\n        /* \"#utility.yul\":16529:16533   */\n      0x20\n        /* \"#utility.yul\":16522:16527   */\n      dup7\n        /* \"#utility.yul\":16518:16534   */\n      add\n        /* \"#utility.yul\":16483:16548   */\n      tag_169\n      jump\t// in\n    tag_394:\n        /* \"#utility.yul\":16573:16579   */\n      dup1\n        /* \"#utility.yul\":16568:16571   */\n      dup5\n        /* \"#utility.yul\":16564:16580   */\n      add\n        /* \"#utility.yul\":16557:16580   */\n      swap2\n      pop\n        /* \"#utility.yul\":16306:16586   */\n      pop\n        /* \"#utility.yul\":16196:16586   */\n      swap3\n      swap2\n      pop\n      pop\n      jump\t// out\n        /* \"#utility.yul\":16592:16867   */\n    tag_60:\n        /* \"#utility.yul\":16724:16727   */\n      0x00\n        /* \"#utility.yul\":16746:16841   */\n      tag_396\n        /* \"#utility.yul\":16837:16840   */\n      dup3\n        /* \"#utility.yul\":16828:16834   */\n      dup5\n        /* \"#utility.yul\":16746:16841   */\n      tag_193\n      jump\t// in\n    tag_396:\n        /* \"#utility.yul\":16739:16841   */\n      swap2\n      pop\n        /* \"#utility.yul\":16858:16861   */\n      dup2\n        /* \"#utility.yul\":16851:16861   */\n      swap1\n      pop\n        /* \"#utility.yul\":16592:16867   */\n      swap3\n      swap2\n      pop\n      pop\n      jump\t// out\n        /* \"#utility.yul\":16873:17043   */\n    tag_194:\n        /* \"#utility.yul\":17013:17035   */\n      0x566f746520646f6573206e6f742065786973742e000000000000000000000000\n        /* \"#utility.yul\":17009:17010   */\n      0x00\n        /* \"#utility.yul\":17001:17007   */\n      dup3\n        /* \"#utility.yul\":16997:17011   */\n      add\n        /* \"#utility.yul\":16990:17036   */\n      mstore\n        /* \"#utility.yul\":16873:17043   */\n      pop\n      jump\t// out\n        /* \"#utility.yul\":17049:17415   */\n    tag_195:\n        /* \"#utility.yul\":17191:17194   */\n      0x00\n        /* \"#utility.yul\":17212:17279   */\n      tag_399\n        /* \"#utility.yul\":17276:17278   */\n      0x14\n        /* \"#utility.yul\":17271:17274   */\n      dup4\n        /* \"#utility.yul\":17212:17279   */\n      tag_168\n      jump\t// in\n    tag_399:\n        /* \"#utility.yul\":17205:17279   */\n      swap2\n      pop\n        /* \"#utility.yul\":17288:17381   */\n      tag_400\n        /* \"#utility.yul\":17377:17380   */\n      dup3\n        /* \"#utility.yul\":17288:17381   */\n      tag_194\n      jump\t// in\n    tag_400:\n        /* \"#utility.yul\":17406:17408   */\n      0x20\n        /* \"#utility.yul\":17401:17404   */\n      dup3\n        /* \"#utility.yul\":17397:17409   */\n      add\n        /* \"#utility.yul\":17390:17409   */\n      swap1\n      pop\n        /* \"#utility.yul\":17049:17415   */\n      swap2\n      swap1\n      pop\n      jump\t// out\n        /* \"#utility.yul\":17421:17840   */\n    tag_63:\n        /* \"#utility.yul\":17587:17591   */\n      0x00\n        /* \"#utility.yul\":17625:17627   */\n      0x20\n        /* \"#utility.yul\":17614:17623   */\n      dup3\n        /* \"#utility.yul\":17610:17628   */\n      add\n        /* \"#utility.yul\":17602:17628   */\n      swap1\n      pop\n        /* \"#utility.yul\":17674:17683   */\n      dup2\n        /* \"#utility.yul\":17668:17672   */\n      dup2\n        /* \"#utility.yul\":17664:17684   */\n      sub\n        /* \"#utility.yul\":17660:17661   */\n      0x00\n        /* \"#utility.yul\":17649:17658   */\n      dup4\n        /* \"#utility.yul\":17645:17662   */\n      add\n        /* \"#utility.yul\":17638:17685   */\n      mstore\n        /* \"#utility.yul\":17702:17833   */\n      tag_402\n        /* \"#utility.yul\":17828:17832   */\n      dup2\n        /* \"#utility.yul\":17702:17833   */\n      tag_195\n      jump\t// in\n    tag_402:\n        /* \"#utility.yul\":17694:17833   */\n      swap1\n      pop\n        /* \"#utility.yul\":17421:17840   */\n      swap2\n      swap1\n      pop\n      jump\t// out\n        /* \"#utility.yul\":17846:18022   */\n    tag_196:\n        /* \"#utility.yul\":17986:18014   */\n      0x416464726573732068617320616c726561647920766f74656421000000000000\n        /* \"#utility.yul\":17982:17983   */\n      0x00\n        /* \"#utility.yul\":17974:17980   */\n      dup3\n        /* \"#utility.yul\":17970:17984   */\n      add\n        /* \"#utility.yul\":17963:18015   */\n      mstore\n        /* \"#utility.yul\":17846:18022   */\n      pop\n      jump\t// out\n        /* \"#utility.yul\":18028:18394   */\n    tag_197:\n        /* \"#utility.yul\":18170:18173   */\n      0x00\n        /* \"#utility.yul\":18191:18258   */\n      tag_405\n        /* \"#utility.yul\":18255:18257   */\n      0x1a\n        /* \"#utility.yul\":18250:18253   */\n      dup4\n        /* \"#utility.yul\":18191:18258   */\n      tag_168\n      jump\t// in\n    tag_405:\n        /* \"#utility.yul\":18184:18258   */\n      swap2\n      pop\n        /* \"#utility.yul\":18267:18360   */\n      tag_406\n        /* \"#utility.yul\":18356:18359   */\n      dup3\n        /* \"#utility.yul\":18267:18360   */\n      tag_196\n      jump\t// in\n    tag_406:\n        /* \"#utility.yul\":18385:18387   */\n      0x20\n        /* \"#utility.yul\":18380:18383   */\n      dup3\n        /* \"#utility.yul\":18376:18388   */\n      add\n        /* \"#utility.yul\":18369:18388   */\n      swap1\n      pop\n        /* \"#utility.yul\":18028:18394   */\n      swap2\n      swap1\n      pop\n      jump\t// out\n        /* \"#utility.yul\":18400:18819   */\n    tag_67:\n        /* \"#utility.yul\":18566:18570   */\n      0x00\n        /* \"#utility.yul\":18604:18606   */\n      0x20\n        /* \"#utility.yul\":18593:18602   */\n      dup3\n        /* \"#utility.yul\":18589:18607   */\n      add\n        /* \"#utility.yul\":18581:18607   */\n      swap1\n      pop\n        /* \"#utility.yul\":18653:18662   */\n      dup2\n        /* \"#utility.yul\":18647:18651   */\n      dup2\n        /* \"#utility.yul\":18643:18663   */\n      sub\n        /* \"#utility.yul\":18639:18640   */\n      0x00\n        /* \"#utility.yul\":18628:18637   */\n      dup4\n        /* \"#utility.yul\":18624:18641   */\n      add\n        /* \"#utility.yul\":18617:18664   */\n      mstore\n        /* \"#utility.yul\":18681:18812   */\n      tag_408\n        /* \"#utility.yul\":18807:18811   */\n      dup2\n        /* \"#utility.yul\":18681:18812   */\n      tag_197\n      jump\t// in\n    tag_408:\n        /* \"#utility.yul\":18673:18812   */\n      swap1\n      pop\n        /* \"#utility.yul\":18400:18819   */\n      swap2\n      swap1\n      pop\n      jump\t// out\n        /* \"#utility.yul\":18825:19005   */\n    tag_198:\n        /* \"#utility.yul\":18873:18950   */\n      0x4e487b7100000000000000000000000000000000000000000000000000000000\n        /* \"#utility.yul\":18870:18871   */\n      0x00\n        /* \"#utility.yul\":18863:18951   */\n      mstore\n        /* \"#utility.yul\":18970:18974   */\n      0x11\n        /* \"#utility.yul\":18967:18968   */\n      0x04\n        /* \"#utility.yul\":18960:18975   */\n      mstore\n        /* \"#utility.yul\":18994:18998   */\n      0x24\n        /* \"#utility.yul\":18991:18992   */\n      0x00\n        /* \"#utility.yul\":18984:18999   */\n      revert\n        /* \"#utility.yul\":19011:19244   */\n    tag_71:\n        /* \"#utility.yul\":19050:19053   */\n      0x00\n        /* \"#utility.yul\":19073:19097   */\n      tag_411\n        /* \"#utility.yul\":19091:19096   */\n      dup3\n        /* \"#utility.yul\":19073:19097   */\n      tag_171\n      jump\t// in\n    tag_411:\n        /* \"#utility.yul\":19064:19097   */\n      swap2\n      pop\n        /* \"#utility.yul\":19119:19185   */\n      0xffffffffffffffffffffffffffffffffffffffffffffffffffffffffffffffff\n        /* \"#utility.yul\":19112:19117   */\n      dup3\n        /* \"#utility.yul\":19109:19186   */\n      sub\n        /* \"#utility.yul\":19106:19209   */\n      tag_412\n      jumpi\n        /* \"#utility.yul\":19189:19207   */\n      tag_413\n      tag_198\n      jump\t// in\n    tag_413:\n        /* \"#utility.yul\":19106:19209   */\n    tag_412:\n        /* \"#utility.yul\":19236:19237   */\n      0x01\n        /* \"#utility.yul\":19229:19234   */\n      dup3\n        /* \"#utility.yul\":19225:19238   */\n      add\n        /* \"#utility.yul\":19218:19238   */\n      swap1\n      pop\n        /* \"#utility.yul\":19011:19244   */\n      swap2\n      swap1\n      pop\n      jump\t// out\n        /* \"#utility.yul\":19250:19425   */\n    tag_199:\n        /* \"#utility.yul\":19390:19417   */\n      0x566f7465206e616d652063616e6e6f7420626520656d70747900000000000000\n        /* \"#utility.yul\":19386:19387   */\n      0x00\n        /* \"#utility.yul\":19378:19384   */\n      dup3\n        /* \"#utility.yul\":19374:19388   */\n      add\n        /* \"#utility.yul\":19367:19418   */\n      mstore\n        /* \"#utility.yul\":19250:19425   */\n      pop\n      jump\t// out\n        /* \"#utility.yul\":19431:19797   */\n    tag_200:\n        /* \"#utility.yul\":19573:19576   */\n      0x00\n        /* \"#utility.yul\":19594:19661   */\n      tag_416\n        /* \"#utility.yul\":19658:19660   */\n      0x19\n        /* \"#utility.yul\":19653:19656   */\n      dup4\n        /* \"#utility.yul\":19594:19661   */\n      tag_168\n      jump\t// in\n    tag_416:\n        /* \"#utility.yul\":19587:19661   */\n      swap2\n      pop\n        /* \"#utility.yul\":19670:19763   */\n      tag_417\n        /* \"#utility.yul\":19759:19762   */\n      dup3\n        /* \"#utility.yul\":19670:19763   */\n      tag_199\n      jump\t// in\n    tag_417:\n        /* \"#utility.yul\":19788:19790   */\n      0x20\n        /* \"#utility.yul\":19783:19786   */\n      dup3\n        /* \"#utility.yul\":19779:19791   */\n      add\n        /* \"#utility.yul\":19772:19791   */\n      swap1\n      pop\n        /* \"#utility.yul\":19431:19797   */\n      swap2\n      swap1\n      pop\n      jump\t// out\n        /* \"#utility.yul\":19803:20222   */\n    tag_76:\n        /* \"#utility.yul\":19969:19973   */\n      0x00\n        /* \"#utility.yul\":20007:20009   */\n      0x20\n        /* \"#utility.yul\":19996:20005   */\n      dup3\n        /* \"#utility.yul\":19992:20010   */\n      add\n        /* \"#utility.yul\":19984:20010   */\n      swap1\n      pop\n        /* \"#utility.yul\":20056:20065   */\n      dup2\n        /* \"#utility.yul\":20050:20054   */\n      dup2\n        /* \"#utility.yul\":20046:20066   */\n      sub\n        /* \"#utility.yul\":20042:20043   */\n      0x00\n        /* \"#utility.yul\":20031:20040   */\n      dup4\n        /* \"#utility.yul\":20027:20044   */\n      add\n        /* \"#utility.yul\":20020:20067   */\n      mstore\n        /* \"#utility.yul\":20084:20215   */\n      tag_419\n        /* \"#utility.yul\":20210:20214   */\n      dup2\n        /* \"#utility.yul\":20084:20215   */\n      tag_200\n      jump\t// in\n    tag_419:\n        /* \"#utility.yul\":20076:20215   */\n      swap1\n      pop\n        /* \"#utility.yul\":19803:20222   */\n      swap2\n      swap1\n      pop\n      jump\t// out\n        /* \"#utility.yul\":20228:20408   */\n    tag_201:\n        /* \"#utility.yul\":20276:20353   */\n      0x4e487b7100000000000000000000000000000000000000000000000000000000\n        /* \"#utility.yul\":20273:20274   */\n      0x00\n        /* \"#utility.yul\":20266:20354   */\n      mstore\n        /* \"#utility.yul\":20373:20377   */\n      0x22\n        /* \"#utility.yul\":20370:20371   */\n      0x04\n        /* \"#utility.yul\":20363:20378   */\n      mstore\n        /* \"#utility.yul\":20397:20401   */\n      0x24\n        /* \"#utility.yul\":20394:20395   */\n      0x00\n        /* \"#utility.yul\":20387:20402   */\n      revert\n        /* \"#utility.yul\":20414:20734   */\n    tag_82:\n        /* \"#utility.yul\":20458:20464   */\n      0x00\n        /* \"#utility.yul\":20495:20496   */\n      0x02\n        /* \"#utility.yul\":20489:20493   */\n      dup3\n        /* \"#utility.yul\":20485:20497   */\n      div\n        /* \"#utility.yul\":20475:20497   */\n      swap1\n      pop\n        /* \"#utility.yul\":20542:20543   */\n      0x01\n        /* \"#utility.yul\":20536:20540   */\n      dup3\n        /* \"#utility.yul\":20532:20544   */\n      and\n        /* \"#utility.yul\":20563:20581   */\n      dup1\n        /* \"#utility.yul\":20553:20634   */\n      tag_422\n      jumpi\n        /* \"#utility.yul\":20619:20623   */\n      0x7f\n        /* \"#utility.yul\":20611:20617   */\n      dup3\n        /* \"#utility.yul\":20607:20624   */\n      and\n        /* \"#utility.yul\":20597:20624   */\n      swap2\n      pop\n        /* \"#utility.yul\":20553:20634   */\n    tag_422:\n        /* \"#utility.yul\":20681:20683   */\n      0x20\n        /* \"#utility.yul\":20673:20679   */\n      dup3\n        /* \"#utility.yul\":20670:20684   */\n      lt\n        /* \"#utility.yul\":20650:20668   */\n      dup2\n        /* \"#utility.yul\":20647:20685   */\n      sub\n        /* \"#utility.yul\":20644:20728   */\n      tag_423\n      jumpi\n        /* \"#utility.yul\":20700:20718   */\n      tag_424\n      tag_201\n      jump\t// in\n    tag_424:\n        /* \"#utility.yul\":20644:20728   */\n    tag_423:\n        /* \"#utility.yul\":20465:20734   */\n      pop\n        /* \"#utility.yul\":20414:20734   */\n      swap2\n      swap1\n      pop\n      jump\t// out\n        /* \"#utility.yul\":20740:20920   */\n    tag_99:\n        /* \"#utility.yul\":20788:20865   */\n      0x4e487b7100000000000000000000000000000000000000000000000000000000\n        /* \"#utility.yul\":20785:20786   */\n      0x00\n        /* \"#utility.yul\":20778:20866   */\n      mstore\n        /* \"#utility.yul\":20885:20889   */\n      0x32\n        /* \"#utility.yul\":20882:20883   */\n      0x04\n        /* \"#utility.yul\":20875:20890   */\n      mstore\n        /* \"#utility.yul\":20909:20913   */\n      0x24\n        /* \"#utility.yul\":20906:20907   */\n      0x00\n        /* \"#utility.yul\":20899:20914   */\n      revert\n        /* \"#utility.yul\":20926:21149   */\n    tag_202:\n        /* \"#utility.yul\":21066:21100   */\n      0x796f75206d757374207365742061206e616d6520666f7220796f757220766f74\n        /* \"#utility.yul\":21062:21063   */\n      0x00\n        /* \"#utility.yul\":21054:21060   */\n      dup3\n        /* \"#utility.yul\":21050:21064   */\n      add\n        /* \"#utility.yul\":21043:21101   */\n      mstore\n        /* \"#utility.yul\":21135:21141   */\n      0x696e672e00000000000000000000000000000000000000000000000000000000\n        /* \"#utility.yul\":21130:21132   */\n      0x20\n        /* \"#utility.yul\":21122:21128   */\n      dup3\n        /* \"#utility.yul\":21118:21133   */\n      add\n        /* \"#utility.yul\":21111:21142   */\n      mstore\n        /* \"#utility.yul\":20926:21149   */\n      pop\n      jump\t// out\n        /* \"#utility.yul\":21155:21521   */\n    tag_203:\n        /* \"#utility.yul\":21297:21300   */\n      0x00\n        /* \"#utility.yul\":21318:21385   */\n      tag_428\n        /* \"#utility.yul\":21382:21384   */\n      0x24\n        /* \"#utility.yul\":21377:21380   */\n      dup4\n        /* \"#utility.yul\":21318:21385   */\n      tag_168\n      jump\t// in\n    tag_428:\n        /* \"#utility.yul\":21311:21385   */\n      swap2\n      pop\n        /* \"#utility.yul\":21394:21487   */\n      tag_429\n        /* \"#utility.yul\":21483:21486   */\n      dup3\n        /* \"#utility.yul\":21394:21487   */\n      tag_202\n      jump\t// in\n    tag_429:\n        /* \"#utility.yul\":21512:21514   */\n      0x40\n        /* \"#utility.yul\":21507:21510   */\n      dup3\n        /* \"#utility.yul\":21503:21515   */\n      add\n        /* \"#utility.yul\":21496:21515   */\n      swap1\n      pop\n        /* \"#utility.yul\":21155:21521   */\n      swap2\n      swap1\n      pop\n      jump\t// out\n        /* \"#utility.yul\":21527:21946   */\n    tag_115:\n        /* \"#utility.yul\":21693:21697   */\n      0x00\n        /* \"#utility.yul\":21731:21733   */\n      0x20\n        /* \"#utility.yul\":21720:21729   */\n      dup3\n        /* \"#utility.yul\":21716:21734   */\n      add\n        /* \"#utility.yul\":21708:21734   */\n      swap1\n      pop\n        /* \"#utility.yul\":21780:21789   */\n      dup2\n        /* \"#utility.yul\":21774:21778   */\n      dup2\n        /* \"#utility.yul\":21770:21790   */\n      sub\n        /* \"#utility.yul\":21766:21767   */\n      0x00\n        /* \"#utility.yul\":21755:21764   */\n      dup4\n        /* \"#utility.yul\":21751:21768   */\n      add\n        /* \"#utility.yul\":21744:21791   */\n      mstore\n        /* \"#utility.yul\":21808:21939   */\n      tag_431\n        /* \"#utility.yul\":21934:21938   */\n      dup2\n        /* \"#utility.yul\":21808:21939   */\n      tag_203\n      jump\t// in\n    tag_431:\n        /* \"#utility.yul\":21800:21939   */\n      swap1\n      pop\n        /* \"#utility.yul\":21527:21946   */\n      swap2\n      swap1\n      pop\n      jump\t// out\n        /* \"#utility.yul\":21952:22173   */\n    tag_204:\n        /* \"#utility.yul\":22092:22126   */\n      0x43616e646964617465206f7074696f6e732063616e6e6f7420626520656d7074\n        /* \"#utility.yul\":22088:22089   */\n      0x00\n        /* \"#utility.yul\":22080:22086   */\n      dup3\n        /* \"#utility.yul\":22076:22090   */\n      add\n        /* \"#utility.yul\":22069:22127   */\n      mstore\n        /* \"#utility.yul\":22161:22165   */\n      0x792e000000000000000000000000000000000000000000000000000000000000\n        /* \"#utility.yul\":22156:22158   */\n      0x20\n        /* \"#utility.yul\":22148:22154   */\n      dup3\n        /* \"#utility.yul\":22144:22159   */\n      add\n        /* \"#utility.yul\":22137:22166   */\n      mstore\n        /* \"#utility.yul\":21952:22173   */\n      pop\n      jump\t// out\n        /* \"#utility.yul\":22179:22545   */\n    tag_205:\n        /* \"#utility.yul\":22321:22324   */\n      0x00\n        /* \"#utility.yul\":22342:22409   */\n      tag_434\n        /* \"#utility.yul\":22406:22408   */\n      0x22\n        /* \"#utility.yul\":22401:22404   */\n      dup4\n        /* \"#utility.yul\":22342:22409   */\n      tag_168\n      jump\t// in\n    tag_434:\n        /* \"#utility.yul\":22335:22409   */\n      swap2\n      pop\n        /* \"#utility.yul\":22418:22511   */\n      tag_435\n        /* \"#utility.yul\":22507:22510   */\n      dup3\n        /* \"#utility.yul\":22418:22511   */\n      tag_204\n      jump\t// in\n    tag_435:\n        /* \"#utility.yul\":22536:22538   */\n      0x40\n        /* \"#utility.yul\":22531:22534   */\n      dup3\n        /* \"#utility.yul\":22527:22539   */\n      add\n        /* \"#utility.yul\":22520:22539   */\n      swap1\n      pop\n        /* \"#utility.yul\":22179:22545   */\n      swap2\n      swap1\n      pop\n      jump\t// out\n        /* \"#utility.yul\":22551:22970   */\n    tag_118:\n        /* \"#utility.yul\":22717:22721   */\n      0x00\n        /* \"#utility.yul\":22755:22757   */\n      0x20\n        /* \"#utility.yul\":22744:22753   */\n      dup3\n        /* \"#utility.yul\":22740:22758   */\n      add\n        /* \"#utility.yul\":22732:22758   */\n      swap1\n      pop\n        /* \"#utility.yul\":22804:22813   */\n      dup2\n        /* \"#utility.yul\":22798:22802   */\n      dup2\n        /* \"#utility.yul\":22794:22814   */\n      sub\n        /* \"#utility.yul\":22790:22791   */\n      0x00\n        /* \"#utility.yul\":22779:22788   */\n      dup4\n        /* \"#utility.yul\":22775:22792   */\n      add\n        /* \"#utility.yul\":22768:22815   */\n      mstore\n        /* \"#utility.yul\":22832:22963   */\n      tag_437\n        /* \"#utility.yul\":22958:22962   */\n      dup2\n        /* \"#utility.yul\":22832:22963   */\n      tag_205\n      jump\t// in\n    tag_437:\n        /* \"#utility.yul\":22824:22963   */\n      swap1\n      pop\n        /* \"#utility.yul\":22551:22970   */\n      swap2\n      swap1\n      pop\n      jump\t// out\n        /* \"#utility.yul\":22976:23151   */\n    tag_206:\n        /* \"#utility.yul\":23116:23143   */\n      0x74686520566f746520616c726561647920657869737465642100000000000000\n        /* \"#utility.yul\":23112:23113   */\n      0x00\n        /* \"#utility.yul\":23104:23110   */\n      dup3\n        /* \"#utility.yul\":23100:23114   */\n      add\n        /* \"#utility.yul\":23093:23144   */\n      mstore\n        /* \"#utility.yul\":22976:23151   */\n      pop\n      jump\t// out\n        /* \"#utility.yul\":23157:23523   */\n    tag_207:\n        /* \"#utility.yul\":23299:23302   */\n      0x00\n        /* \"#utility.yul\":23320:23387   */\n      tag_440\n        /* \"#utility.yul\":23384:23386   */\n      0x19\n        /* \"#utility.yul\":23379:23382   */\n      dup4\n        /* \"#utility.yul\":23320:23387   */\n      tag_168\n      jump\t// in\n    tag_440:\n        /* \"#utility.yul\":23313:23387   */\n      swap2\n      pop\n        /* \"#utility.yul\":23396:23489   */\n      tag_441\n        /* \"#utility.yul\":23485:23488   */\n      dup3\n        /* \"#utility.yul\":23396:23489   */\n      tag_206\n      jump\t// in\n    tag_441:\n        /* \"#utility.yul\":23514:23516   */\n      0x20\n        /* \"#utility.yul\":23509:23512   */\n      dup3\n        /* \"#utility.yul\":23505:23517   */\n      add\n        /* \"#utility.yul\":23498:23517   */\n      swap1\n      pop\n        /* \"#utility.yul\":23157:23523   */\n      swap2\n      swap1\n      pop\n      jump\t// out\n        /* \"#utility.yul\":23529:23948   */\n    tag_122:\n        /* \"#utility.yul\":23695:23699   */\n      0x00\n        /* \"#utility.yul\":23733:23735   */\n      0x20\n        /* \"#utility.yul\":23722:23731   */\n      dup3\n        /* \"#utility.yul\":23718:23736   */\n      add\n        /* \"#utility.yul\":23710:23736   */\n      swap1\n      pop\n        /* \"#utility.yul\":23782:23791   */\n      dup2\n        /* \"#utility.yul\":23776:23780   */\n      dup2\n        /* \"#utility.yul\":23772:23792   */\n      sub\n        /* \"#utility.yul\":23768:23769   */\n      0x00\n        /* \"#utility.yul\":23757:23766   */\n      dup4\n        /* \"#utility.yul\":23753:23770   */\n      add\n        /* \"#utility.yul\":23746:23793   */\n      mstore\n        /* \"#utility.yul\":23810:23941   */\n      tag_443\n        /* \"#utility.yul\":23936:23940   */\n      dup2\n        /* \"#utility.yul\":23810:23941   */\n      tag_207\n      jump\t// in\n    tag_443:\n        /* \"#utility.yul\":23802:23941   */\n      swap1\n      pop\n        /* \"#utility.yul\":23529:23948   */\n      swap2\n      swap1\n      pop\n      jump\t// out\n        /* \"#utility.yul\":23954:24123   */\n    tag_208:\n        /* \"#utility.yul\":24094:24115   */\n      0x736f6d657468696e672069732077726f6e672100000000000000000000000000\n        /* \"#utility.yul\":24090:24091   */\n      0x00\n        /* \"#utility.yul\":24082:24088   */\n      dup3\n        /* \"#utility.yul\":24078:24092   */\n      add\n        /* \"#utility.yul\":24071:24116   */\n      mstore\n        /* \"#utility.yul\":23954:24123   */\n      pop\n      jump\t// out\n        /* \"#utility.yul\":24129:24495   */\n    tag_209:\n        /* \"#utility.yul\":24271:24274   */\n      0x00\n        /* \"#utility.yul\":24292:24359   */\n      tag_446\n        /* \"#utility.yul\":24356:24358   */\n      0x13\n        /* \"#utility.yul\":24351:24354   */\n      dup4\n        /* \"#utility.yul\":24292:24359   */\n      tag_168\n      jump\t// in\n    tag_446:\n        /* \"#utility.yul\":24285:24359   */\n      swap2\n      pop\n        /* \"#utility.yul\":24368:24461   */\n      tag_447\n        /* \"#utility.yul\":24457:24460   */\n      dup3\n        /* \"#utility.yul\":24368:24461   */\n      tag_208\n      jump\t// in\n    tag_447:\n        /* \"#utility.yul\":24486:24488   */\n      0x20\n        /* \"#utility.yul\":24481:24484   */\n      dup3\n        /* \"#utility.yul\":24477:24489   */\n      add\n        /* \"#utility.yul\":24470:24489   */\n      swap1\n      pop\n        /* \"#utility.yul\":24129:24495   */\n      swap2\n      swap1\n      pop\n      jump\t// out\n        /* \"#utility.yul\":24501:24920   */\n    tag_129:\n        /* \"#utility.yul\":24667:24671   */\n      0x00\n        /* \"#utility.yul\":24705:24707   */\n      0x20\n        /* \"#utility.yul\":24694:24703   */\n      dup3\n        /* \"#utility.yul\":24690:24708   */\n      add\n        /* \"#utility.yul\":24682:24708   */\n      swap1\n      pop\n        /* \"#utility.yul\":24754:24763   */\n      dup2\n        /* \"#utility.yul\":24748:24752   */\n      dup2\n        /* \"#utility.yul\":24744:24764   */\n      sub\n        /* \"#utility.yul\":24740:24741   */\n      0x00\n        /* \"#utility.yul\":24729:24738   */\n      dup4\n        /* \"#utility.yul\":24725:24742   */\n      add\n        /* \"#utility.yul\":24718:24765   */\n      mstore\n        /* \"#utility.yul\":24782:24913   */\n      tag_449\n        /* \"#utility.yul\":24908:24912   */\n      dup2\n        /* \"#utility.yul\":24782:24913   */\n      tag_209\n      jump\t// in\n    tag_449:\n        /* \"#utility.yul\":24774:24913   */\n      swap1\n      pop\n        /* \"#utility.yul\":24501:24920   */\n      swap2\n      swap1\n      pop\n      jump\t// out\n        /* \"#utility.yul\":24926:25067   */\n    tag_210:\n        /* \"#utility.yul\":24975:24979   */\n      0x00\n        /* \"#utility.yul\":24998:25001   */\n      dup2\n        /* \"#utility.yul\":24990:25001   */\n      swap1\n      pop\n        /* \"#utility.yul\":25021:25024   */\n      dup2\n        /* \"#utility.yul\":25018:25019   */\n      0x00\n        /* \"#utility.yul\":25011:25025   */\n      mstore\n        /* \"#utility.yul\":25055:25059   */\n      0x20\n        /* \"#utility.yul\":25052:25053   */\n      0x00\n        /* \"#utility.yul\":25042:25060   */\n      keccak256\n        /* \"#utility.yul\":25034:25060   */\n      swap1\n      pop\n        /* \"#utility.yul\":24926:25067   */\n      swap2\n      swap1\n      pop\n      jump\t// out\n        /* \"#utility.yul\":25073:25166   */\n    tag_211:\n        /* \"#utility.yul\":25110:25116   */\n      0x00\n        /* \"#utility.yul\":25157:25159   */\n      0x20\n        /* \"#utility.yul\":25152:25154   */\n      0x1f\n        /* \"#utility.yul\":25145:25150   */\n      dup4\n        /* \"#utility.yul\":25141:25155   */\n      add\n        /* \"#utility.yul\":25137:25160   */\n      div\n        /* \"#utility.yul\":25127:25160   */\n      swap1\n      pop\n        /* \"#utility.yul\":25073:25166   */\n      swap2\n      swap1\n      pop\n      jump\t// out\n        /* \"#utility.yul\":25172:25279   */\n    tag_212:\n        /* \"#utility.yul\":25216:25224   */\n      0x00\n        /* \"#utility.yul\":25266:25271   */\n      dup3\n        /* \"#utility.yul\":25260:25264   */\n      dup3\n        /* \"#utility.yul\":25256:25272   */\n      shl\n        /* \"#utility.yul\":25235:25272   */\n      swap1\n      pop\n        /* \"#utility.yul\":25172:25279   */\n      swap3\n      swap2\n      pop\n      pop\n      jump\t// out\n        /* \"#utility.yul\":25285:25678   */\n    tag_213:\n        /* \"#utility.yul\":25354:25360   */\n      0x00\n        /* \"#utility.yul\":25404:25405   */\n      0x08\n        /* \"#utility.yul\":25392:25402   */\n      dup4\n        /* \"#utility.yul\":25388:25406   */\n      mul\n        /* \"#utility.yul\":25427:25524   */\n      tag_454\n        /* \"#utility.yul\":25457:25523   */\n      0xffffffffffffffffffffffffffffffffffffffffffffffffffffffffffffffff\n        /* \"#utility.yul\":25446:25455   */\n      dup3\n        /* \"#utility.yul\":25427:25524   */\n      tag_212\n      jump\t// in\n    tag_454:\n        /* \"#utility.yul\":25545:25584   */\n      tag_455\n        /* \"#utility.yul\":25575:25583   */\n      dup7\n        /* \"#utility.yul\":25564:25573   */\n      dup4\n        /* \"#utility.yul\":25545:25584   */\n      tag_212\n      jump\t// in\n    tag_455:\n        /* \"#utility.yul\":25533:25584   */\n      swap6\n      pop\n        /* \"#utility.yul\":25617:25621   */\n      dup1\n        /* \"#utility.yul\":25613:25622   */\n      not\n        /* \"#utility.yul\":25606:25611   */\n      dup5\n        /* \"#utility.yul\":25602:25623   */\n      and\n        /* \"#utility.yul\":25593:25623   */\n      swap4\n      pop\n        /* \"#utility.yul\":25666:25670   */\n      dup1\n        /* \"#utility.yul\":25656:25664   */\n      dup7\n        /* \"#utility.yul\":25652:25671   */\n      and\n        /* \"#utility.yul\":25645:25650   */\n      dup5\n        /* \"#utility.yul\":25642:25672   */\n      or\n        /* \"#utility.yul\":25632:25672   */\n      swap3\n      pop\n        /* \"#utility.yul\":25361:25678   */\n      pop\n      pop\n        /* \"#utility.yul\":25285:25678   */\n      swap4\n      swap3\n      pop\n      pop\n      pop\n      jump\t// out\n        /* \"#utility.yul\":25684:25744   */\n    tag_214:\n        /* \"#utility.yul\":25712:25715   */\n      0x00\n        /* \"#utility.yul\":25733:25738   */\n      dup2\n        /* \"#utility.yul\":25726:25738   */\n      swap1\n      pop\n        /* \"#utility.yul\":25684:25744   */\n      swap2\n      swap1\n      pop\n      jump\t// out\n        /* \"#utility.yul\":25750:25892   */\n    tag_215:\n        /* \"#utility.yul\":25800:25809   */\n      0x00\n        /* \"#utility.yul\":25833:25886   */\n      tag_458\n        /* \"#utility.yul\":25851:25885   */\n      tag_459\n        /* \"#utility.yul\":25860:25884   */\n      tag_460\n        /* \"#utility.yul\":25878:25883   */\n      dup5\n        /* \"#utility.yul\":25860:25884   */\n      tag_171\n      jump\t// in\n    tag_460:\n        /* \"#utility.yul\":25851:25885   */\n      tag_214\n      jump\t// in\n    tag_459:\n        /* \"#utility.yul\":25833:25886   */\n      tag_171\n      jump\t// in\n    tag_458:\n        /* \"#utility.yul\":25820:25886   */\n      swap1\n      pop\n        /* \"#utility.yul\":25750:25892   */\n      swap2\n      swap1\n      pop\n      jump\t// out\n        /* \"#utility.yul\":25898:25973   */\n    tag_216:\n        /* \"#utility.yul\":25941:25944   */\n      0x00\n        /* \"#utility.yul\":25962:25967   */\n      dup2\n        /* \"#utility.yul\":25955:25967   */\n      swap1\n      pop\n        /* \"#utility.yul\":25898:25973   */\n      swap2\n      swap1\n      pop\n      jump\t// out\n        /* \"#utility.yul\":25979:26248   */\n    tag_217:\n        /* \"#utility.yul\":26089:26128   */\n      tag_463\n        /* \"#utility.yul\":26120:26127   */\n      dup4\n        /* \"#utility.yul\":26089:26128   */\n      tag_215\n      jump\t// in\n    tag_463:\n        /* \"#utility.yul\":26150:26241   */\n      tag_464\n        /* \"#utility.yul\":26199:26240   */\n      tag_465\n        /* \"#utility.yul\":26223:26239   */\n      dup3\n        /* \"#utility.yul\":26199:26240   */\n      tag_216\n      jump\t// in\n    tag_465:\n        /* \"#utility.yul\":26191:26197   */\n      dup5\n        /* \"#utility.yul\":26184:26188   */\n      dup5\n        /* \"#utility.yul\":26178:26189   */\n      sload\n        /* \"#utility.yul\":26150:26241   */\n      tag_213\n      jump\t// in\n    tag_464:\n        /* \"#utility.yul\":26144:26148   */\n      dup3\n        /* \"#utility.yul\":26137:26242   */\n      sstore\n        /* \"#utility.yul\":26055:26248   */\n      pop\n        /* \"#utility.yul\":25979:26248   */\n      pop\n      pop\n      pop\n      jump\t// out\n        /* \"#utility.yul\":26254:26327   */\n    tag_218:\n        /* \"#utility.yul\":26299:26302   */\n      0x00\n        /* \"#utility.yul\":26254:26327   */\n      swap1\n      jump\t// out\n        /* \"#utility.yul\":26333:26522   */\n    tag_219:\n        /* \"#utility.yul\":26410:26442   */\n      tag_468\n      tag_218\n      jump\t// in\n    tag_468:\n        /* \"#utility.yul\":26451:26516   */\n      tag_469\n        /* \"#utility.yul\":26509:26515   */\n      dup2\n        /* \"#utility.yul\":26501:26507   */\n      dup5\n        /* \"#utility.yul\":26495:26499   */\n      dup5\n        /* \"#utility.yul\":26451:26516   */\n      tag_217\n      jump\t// in\n    tag_469:\n        /* \"#utility.yul\":26386:26522   */\n      pop\n        /* \"#utility.yul\":26333:26522   */\n      pop\n      pop\n      jump\t// out\n        /* \"#utility.yul\":26528:26714   */\n    tag_220:\n        /* \"#utility.yul\":26588:26708   */\n    tag_471:\n        /* \"#utility.yul\":26605:26608   */\n      dup2\n        /* \"#utility.yul\":26598:26603   */\n      dup2\n        /* \"#utility.yul\":26595:26609   */\n      lt\n        /* \"#utility.yul\":26588:26708   */\n      iszero\n      tag_473\n      jumpi\n        /* \"#utility.yul\":26659:26698   */\n      tag_474\n        /* \"#utility.yul\":26696:26697   */\n      0x00\n        /* \"#utility.yul\":26689:26694   */\n      dup3\n        /* \"#utility.yul\":26659:26698   */\n      tag_219\n      jump\t// in\n    tag_474:\n        /* \"#utility.yul\":26632:26633   */\n      0x01\n        /* \"#utility.yul\":26625:26630   */\n      dup2\n        /* \"#utility.yul\":26621:26634   */\n      add\n        /* \"#utility.yul\":26612:26634   */\n      swap1\n      pop\n        /* \"#utility.yul\":26588:26708   */\n      jump(tag_471)\n    tag_473:\n        /* \"#utility.yul\":26528:26714   */\n      pop\n      pop\n      jump\t// out\n        /* \"#utility.yul\":26720:27263   */\n    tag_221:\n        /* \"#utility.yul\":26821:26823   */\n      0x1f\n        /* \"#utility.yul\":26816:26819   */\n      dup3\n        /* \"#utility.yul\":26813:26824   */\n      gt\n        /* \"#utility.yul\":26810:27256   */\n      iszero\n      tag_476\n      jumpi\n        /* \"#utility.yul\":26855:26893   */\n      tag_477\n        /* \"#utility.yul\":26887:26892   */\n      dup2\n        /* \"#utility.yul\":26855:26893   */\n      tag_210\n      jump\t// in\n    tag_477:\n        /* \"#utility.yul\":26939:26968   */\n      tag_478\n        /* \"#utility.yul\":26957:26967   */\n      dup5\n        /* \"#utility.yul\":26939:26968   */\n      tag_211\n      jump\t// in\n    tag_478:\n        /* \"#utility.yul\":26929:26937   */\n      dup2\n        /* \"#utility.yul\":26925:26969   */\n      add\n        /* \"#utility.yul\":27122:27124   */\n      0x20\n        /* \"#utility.yul\":27110:27120   */\n      dup6\n        /* \"#utility.yul\":27107:27125   */\n      lt\n        /* \"#utility.yul\":27104:27153   */\n      iszero\n      tag_479\n      jumpi\n        /* \"#utility.yul\":27143:27151   */\n      dup2\n        /* \"#utility.yul\":27128:27151   */\n      swap1\n      pop\n        /* \"#utility.yul\":27104:27153   */\n    tag_479:\n        /* \"#utility.yul\":27166:27246   */\n      tag_480\n        /* \"#utility.yul\":27222:27244   */\n      tag_481\n        /* \"#utility.yul\":27240:27243   */\n      dup6\n        /* \"#utility.yul\":27222:27244   */\n      tag_211\n      jump\t// in\n    tag_481:\n        /* \"#utility.yul\":27212:27220   */\n      dup4\n        /* \"#utility.yul\":27208:27245   */\n      add\n        /* \"#utility.yul\":27195:27206   */\n      dup3\n        /* \"#utility.yul\":27166:27246   */\n      tag_220\n      jump\t// in\n    tag_480:\n        /* \"#utility.yul\":26825:27256   */\n      pop\n      pop\n        /* \"#utility.yul\":26810:27256   */\n    tag_476:\n        /* \"#utility.yul\":26720:27263   */\n      pop\n      pop\n      pop\n      jump\t// out\n        /* \"#utility.yul\":27269:27386   */\n    tag_222:\n        /* \"#utility.yul\":27323:27331   */\n      0x00\n        /* \"#utility.yul\":27373:27378   */\n      dup3\n        /* \"#utility.yul\":27367:27371   */\n      dup3\n        /* \"#utility.yul\":27363:27379   */\n      shr\n        /* \"#utility.yul\":27342:27379   */\n      swap1\n      pop\n        /* \"#utility.yul\":27269:27386   */\n      swap3\n      swap2\n      pop\n      pop\n      jump\t// out\n        /* \"#utility.yul\":27392:27561   */\n    tag_223:\n        /* \"#utility.yul\":27436:27442   */\n      0x00\n        /* \"#utility.yul\":27469:27520   */\n      tag_484\n        /* \"#utility.yul\":27517:27518   */\n      0x00\n        /* \"#utility.yul\":27513:27519   */\n      not\n        /* \"#utility.yul\":27505:27510   */\n      dup5\n        /* \"#utility.yul\":27502:27503   */\n      0x08\n        /* \"#utility.yul\":27498:27511   */\n      mul\n        /* \"#utility.yul\":27469:27520   */\n      tag_222\n      jump\t// in\n    tag_484:\n        /* \"#utility.yul\":27465:27521   */\n      not\n        /* \"#utility.yul\":27550:27554   */\n      dup1\n        /* \"#utility.yul\":27544:27548   */\n      dup4\n        /* \"#utility.yul\":27540:27555   */\n      and\n        /* \"#utility.yul\":27530:27555   */\n      swap2\n      pop\n        /* \"#utility.yul\":27443:27561   */\n      pop\n        /* \"#utility.yul\":27392:27561   */\n      swap3\n      swap2\n      pop\n      pop\n      jump\t// out\n        /* \"#utility.yul\":27566:27861   */\n    tag_224:\n        /* \"#utility.yul\":27642:27646   */\n      0x00\n        /* \"#utility.yul\":27788:27817   */\n      tag_486\n        /* \"#utility.yul\":27813:27816   */\n      dup4\n        /* \"#utility.yul\":27807:27811   */\n      dup4\n        /* \"#utility.yul\":27788:27817   */\n      tag_223\n      jump\t// in\n    tag_486:\n        /* \"#utility.yul\":27780:27817   */\n      swap2\n      pop\n        /* \"#utility.yul\":27850:27853   */\n      dup3\n        /* \"#utility.yul\":27847:27848   */\n      0x02\n        /* \"#utility.yul\":27843:27854   */\n      mul\n        /* \"#utility.yul\":27837:27841   */\n      dup3\n        /* \"#utility.yul\":27834:27855   */\n      or\n        /* \"#utility.yul\":27826:27855   */\n      swap1\n      pop\n        /* \"#utility.yul\":27566:27861   */\n      swap3\n      swap2\n      pop\n      pop\n      jump\t// out\n        /* \"#utility.yul\":27866:29261   */\n    tag_137:\n        /* \"#utility.yul\":27983:28020   */\n      tag_488\n        /* \"#utility.yul\":28016:28019   */\n      dup3\n        /* \"#utility.yul\":27983:28020   */\n      tag_167\n      jump\t// in\n    tag_488:\n        /* \"#utility.yul\":28085:28103   */\n      0xffffffffffffffff\n        /* \"#utility.yul\":28077:28083   */\n      dup2\n        /* \"#utility.yul\":28074:28104   */\n      gt\n        /* \"#utility.yul\":28071:28127   */\n      iszero\n      tag_489\n      jumpi\n        /* \"#utility.yul\":28107:28125   */\n      tag_490\n      tag_89\n      jump\t// in\n    tag_490:\n        /* \"#utility.yul\":28071:28127   */\n    tag_489:\n        /* \"#utility.yul\":28151:28189   */\n      tag_491\n        /* \"#utility.yul\":28183:28187   */\n      dup3\n        /* \"#utility.yul\":28177:28188   */\n      sload\n        /* \"#utility.yul\":28151:28189   */\n      tag_82\n      jump\t// in\n    tag_491:\n        /* \"#utility.yul\":28236:28303   */\n      tag_492\n        /* \"#utility.yul\":28296:28302   */\n      dup3\n        /* \"#utility.yul\":28288:28294   */\n      dup3\n        /* \"#utility.yul\":28282:28286   */\n      dup6\n        /* \"#utility.yul\":28236:28303   */\n      tag_221\n      jump\t// in\n    tag_492:\n        /* \"#utility.yul\":28330:28331   */\n      0x00\n        /* \"#utility.yul\":28354:28358   */\n      0x20\n        /* \"#utility.yul\":28341:28358   */\n      swap1\n      pop\n        /* \"#utility.yul\":28386:28388   */\n      0x1f\n        /* \"#utility.yul\":28378:28384   */\n      dup4\n        /* \"#utility.yul\":28375:28389   */\n      gt\n        /* \"#utility.yul\":28403:28404   */\n      0x01\n        /* \"#utility.yul\":28398:29016   */\n      dup2\n      eq\n      tag_494\n      jumpi\n        /* \"#utility.yul\":29060:29061   */\n      0x00\n        /* \"#utility.yul\":29077:29083   */\n      dup5\n        /* \"#utility.yul\":29074:29151   */\n      iszero\n      tag_495\n      jumpi\n        /* \"#utility.yul\":29126:29135   */\n      dup3\n        /* \"#utility.yul\":29121:29124   */\n      dup8\n        /* \"#utility.yul\":29117:29136   */\n      add\n        /* \"#utility.yul\":29111:29137   */\n      mload\n        /* \"#utility.yul\":29102:29137   */\n      swap1\n      pop\n        /* \"#utility.yul\":29074:29151   */\n    tag_495:\n        /* \"#utility.yul\":29177:29244   */\n      tag_496\n        /* \"#utility.yul\":29237:29243   */\n      dup6\n        /* \"#utility.yul\":29230:29235   */\n      dup3\n        /* \"#utility.yul\":29177:29244   */\n      tag_224\n      jump\t// in\n    tag_496:\n        /* \"#utility.yul\":29171:29175   */\n      dup7\n        /* \"#utility.yul\":29164:29245   */\n      sstore\n        /* \"#utility.yul\":29033:29255   */\n      pop\n        /* \"#utility.yul\":28368:29255   */\n      jump(tag_493)\n        /* \"#utility.yul\":28398:29016   */\n    tag_494:\n        /* \"#utility.yul\":28450:28454   */\n      0x1f\n        /* \"#utility.yul\":28446:28455   */\n      not\n        /* \"#utility.yul\":28438:28444   */\n      dup5\n        /* \"#utility.yul\":28434:28456   */\n      and\n        /* \"#utility.yul\":28484:28521   */\n      tag_497\n        /* \"#utility.yul\":28516:28520   */\n      dup7\n        /* \"#utility.yul\":28484:28521   */\n      tag_210\n      jump\t// in\n    tag_497:\n        /* \"#utility.yul\":28543:28544   */\n      0x00\n        /* \"#utility.yul\":28557:28765   */\n    tag_498:\n        /* \"#utility.yul\":28571:28578   */\n      dup3\n        /* \"#utility.yul\":28568:28569   */\n      dup2\n        /* \"#utility.yul\":28565:28579   */\n      lt\n        /* \"#utility.yul\":28557:28765   */\n      iszero\n      tag_500\n      jumpi\n        /* \"#utility.yul\":28650:28659   */\n      dup5\n        /* \"#utility.yul\":28645:28648   */\n      dup10\n        /* \"#utility.yul\":28641:28660   */\n      add\n        /* \"#utility.yul\":28635:28661   */\n      mload\n        /* \"#utility.yul\":28627:28633   */\n      dup3\n        /* \"#utility.yul\":28620:28662   */\n      sstore\n        /* \"#utility.yul\":28701:28702   */\n      0x01\n        /* \"#utility.yul\":28693:28699   */\n      dup3\n        /* \"#utility.yul\":28689:28703   */\n      add\n        /* \"#utility.yul\":28679:28703   */\n      swap2\n      pop\n        /* \"#utility.yul\":28748:28750   */\n      0x20\n        /* \"#utility.yul\":28737:28746   */\n      dup6\n        /* \"#utility.yul\":28733:28751   */\n      add\n        /* \"#utility.yul\":28720:28751   */\n      swap5\n      pop\n        /* \"#utility.yul\":28594:28598   */\n      0x20\n        /* \"#utility.yul\":28591:28592   */\n      dup2\n        /* \"#utility.yul\":28587:28599   */\n      add\n        /* \"#utility.yul\":28582:28599   */\n      swap1\n      pop\n        /* \"#utility.yul\":28557:28765   */\n      jump(tag_498)\n    tag_500:\n        /* \"#utility.yul\":28793:28799   */\n      dup7\n        /* \"#utility.yul\":28784:28791   */\n      dup4\n        /* \"#utility.yul\":28781:28800   */\n      lt\n        /* \"#utility.yul\":28778:28957   */\n      iszero\n      tag_501\n      jumpi\n        /* \"#utility.yul\":28851:28860   */\n      dup5\n        /* \"#utility.yul\":28846:28849   */\n      dup10\n        /* \"#utility.yul\":28842:28861   */\n      add\n        /* \"#utility.yul\":28836:28862   */\n      mload\n        /* \"#utility.yul\":28894:28942   */\n      tag_502\n        /* \"#utility.yul\":28936:28940   */\n      0x1f\n        /* \"#utility.yul\":28928:28934   */\n      dup10\n        /* \"#utility.yul\":28924:28941   */\n      and\n        /* \"#utility.yul\":28913:28922   */\n      dup3\n        /* \"#utility.yul\":28894:28942   */\n      tag_223\n      jump\t// in\n    tag_502:\n        /* \"#utility.yul\":28886:28892   */\n      dup4\n        /* \"#utility.yul\":28879:28943   */\n      sstore\n        /* \"#utility.yul\":28801:28957   */\n      pop\n        /* \"#utility.yul\":28778:28957   */\n    tag_501:\n        /* \"#utility.yul\":29003:29004   */\n      0x01\n        /* \"#utility.yul\":28999:29000   */\n      0x02\n        /* \"#utility.yul\":28991:28997   */\n      dup9\n        /* \"#utility.yul\":28987:29001   */\n      mul\n        /* \"#utility.yul\":28983:29005   */\n      add\n        /* \"#utility.yul\":28977:28981   */\n      dup9\n        /* \"#utility.yul\":28970:29006   */\n      sstore\n        /* \"#utility.yul\":28405:29016   */\n      pop\n      pop\n      pop\n        /* \"#utility.yul\":28368:29255   */\n    tag_493:\n      pop\n        /* \"#utility.yul\":27958:29261   */\n      pop\n      pop\n      pop\n        /* \"#utility.yul\":27866:29261   */\n      pop\n      pop\n      jump\t// out\n\n    auxdata: 0xa26469706673582212207cad9db45f137f24c0739ac696a6c9648a1e15a3078a25b769915d42f0a3387e64736f6c63430008120033\n}\n",
				"bytecode": {
					"linkReferences": {},
					"object": "608060405234801561001057600080fd5b50611a6b806100206000396000f3fe608060405234801561001057600080fd5b50600436106100935760003560e01c806390a3a11f1161006657806390a3a11f14610158578063af1651c214610188578063d4ed9329146101b8578063f8a8fd6d146101e8578063fcf814c31461020657610093565b806322404b9d14610098578063371da07b146100c85780637d5529ec146100f857806385e5b80114610128575b600080fd5b6100b260048036038101906100ad9190610ce1565b610224565b6040516100bf9190610deb565b60405180910390f35b6100e260048036038101906100dd9190610e0d565b610435565b6040516100ef9190610e9e565b60405180910390f35b610112600480360381019061010d9190610eb9565b610486565b60405161011f919061105a565b60405180910390f35b610142600480360381019061013d91906110a8565b6106d3565b60405161014f9190610deb565b60405180910390f35b610172600480360381019061016d91906111ea565b6107a2565b60405161017f9190610deb565b60405180910390f35b6101a2600480360381019061019d9190610eb9565b610963565b6040516101af9190610e9e565b60405180910390f35b6101d260048036038101906101cd9190611262565b61098d565b6040516101df91906112d9565b60405180910390f35b6101f06109d2565b6040516101fd9190610deb565b60405180910390f35b61020e610a0f565b60405161021b9190611303565b60405180910390f35b606060008085604051610237919061135a565b90815260200160405180910390208054905011610289576040517f08c379a0000000000000000000000000000000000000000000000000000000008152600401610280906113bd565b60405180910390fd5b600284604051610299919061135a565b908152602001604051809103902060008373ffffffffffffffffffffffffffffffffffffffff1673ffffffffffffffffffffffffffffffffffffffff16815260200190815260200160002060009054906101000a900460ff1615610332576040517f08c379a000000000000000000000000000000000000000000000000000000000815260040161032990611429565b60405180910390fd5b600184604051610342919061135a565b90815260200160405180910390208360405161035e919061135a565b9081526020016040518091039020600081548092919061037d90611478565b91905055506001600285604051610394919061135a565b908152602001604051809103902060008473ffffffffffffffffffffffffffffffffffffffff1673ffffffffffffffffffffffffffffffffffffffff16815260200190815260200160002060006101000a81548160ff0219169083151502179055506040518060400160405280601781526020017f566f7465207375636365737366756c206361737465642100000000000000000081525090509392505050565b60018280516020810182018051848252602083016020850120818352809550505050505081805160208101820180518482526020830160208501208183528095505050505050600091509150505481565b606060008251116104cc576040517f08c379a00000000000000000000000000000000000000000000000000000000081526004016104c39061150c565b60405180910390fd5b600080836040516104dd919061135a565b9081526020016040518091039020805480602002602001604051908101604052809291908181526020016000905b828210156105b757838290600052602060002001805461052a9061155b565b80601f01602080910402602001604051908101604052809291908181526020018280546105569061155b565b80156105a35780601f10610578576101008083540402835291602001916105a3565b820191906000526020600020905b81548152906001019060200180831161058657829003601f168201915b50505050508152602001906001019061050b565b5050505090506000815167ffffffffffffffff8111156105da576105d9610b58565b5b60405190808252806020026020018201604052801561061357816020015b610600610a35565b8152602001906001900390816105f85790505b50905060005b82518110156106c85760008382815181106106375761063661158c565b5b602002602001015190506000600187604051610653919061135a565b90815260200160405180910390208260405161066f919061135a565b90815260200160405180910390205490506040518060400160405280838152602001828152508484815181106106a8576106a761158c565b5b6020026020010181905250505080806106c090611478565b915050610619565b819350505050919050565b600082805160208101820180518482526020830160208501208183528095505050505050818154811061070557600080fd5b906000526020600020016000915091505080546107219061155b565b80601f016020809104026020016040519081016040528092919081815260200182805461074d9061155b565b801561079a5780601f1061076f5761010080835404028352916020019161079a565b820191906000526020600020905b81548152906001019060200180831161077d57829003601f168201915b505050505081565b606060008351116107e8576040517f08c379a00000000000000000000000000000000000000000000000000000000081526004016107df9061162d565b60405180910390fd5b600082511161082c576040517f08c379a0000000000000000000000000000000000000000000000000000000008152600401610823906116bf565b60405180910390fd5b6000808460405161083d919061135a565b9081526020016040518091039020805490501461088f576040517f08c379a00000000000000000000000000000000000000000000000000000000081526004016108869061172b565b60405180910390fd5b816000846040516108a0919061135a565b908152602001604051809103902090805190602001906108c1929190610a4f565b50600080846040516108d3919061135a565b90815260200160405180910390208054905011610925576040517f08c379a000000000000000000000000000000000000000000000000000000000815260040161091c90611797565b60405180910390fd5b6040518060400160405280601781526020017f63726561746520766f7465207375636365737366756c21000000000000000000815250905092915050565b60008082604051610974919061135a565b9081526020016040518091039020805490509050919050565b6002828051602081018201805184825260208301602085012081835280955050505050506020528060005260406000206000915091509054906101000a900460ff1681565b60606040518060400160405280600a81526020017f786d727261626269747800000000000000000000000000000000000000000000815250905090565b600360009054906101000a900473ffffffffffffffffffffffffffffffffffffffff1681565b604051806040016040528060608152602001600081525090565b828054828255906000526020600020908101928215610a97579160200282015b82811115610a96578251829081610a869190611963565b5091602001919060010190610a6f565b5b509050610aa49190610aa8565b5090565b5b80821115610ac85760008181610abf9190610acc565b50600101610aa9565b5090565b508054610ad89061155b565b6000825580601f10610aea5750610b09565b601f016020900490600052602060002090810190610b089190610b0c565b5b50565b5b80821115610b25576000816000905550600101610b0d565b5090565b6000604051905090565b600080fd5b600080fd5b600080fd5b600080fd5b6000601f19601f8301169050919050565b7f4e487b7100000000000000000000000000000000000000000000000000000000600052604160045260246000fd5b610b9082610b47565b810181811067ffffffffffffffff82111715610baf57610bae610b58565b5b80604052505050565b6000610bc2610b29565b9050610bce8282610b87565b919050565b600067ffffffffffffffff821115610bee57610bed610b58565b5b610bf782610b47565b9050602081019050919050565b82818337600083830152505050565b6000610c26610c2184610bd3565b610bb8565b905082815260208101848484011115610c4257610c41610b42565b5b610c4d848285610c04565b509392505050565b600082601f830112610c6a57610c69610b3d565b5b8135610c7a848260208601610c13565b91505092915050565b600073ffffffffffffffffffffffffffffffffffffffff82169050919050565b6000610cae82610c83565b9050919050565b610cbe81610ca3565b8114610cc957600080fd5b50565b600081359050610cdb81610cb5565b92915050565b600080600060608486031215610cfa57610cf9610b33565b5b600084013567ffffffffffffffff811115610d1857610d17610b38565b5b610d2486828701610c55565b935050602084013567ffffffffffffffff811115610d4557610d44610b38565b5b610d5186828701610c55565b9250506040610d6286828701610ccc565b9150509250925092565b600081519050919050565b600082825260208201905092915050565b60005b83811015610da6578082015181840152602081019050610d8b565b60008484015250505050565b6000610dbd82610d6c565b610dc78185610d77565b9350610dd7818560208601610d88565b610de081610b47565b840191505092915050565b60006020820190508181036000830152610e058184610db2565b905092915050565b60008060408385031215610e2457610e23610b33565b5b600083013567ffffffffffffffff811115610e4257610e41610b38565b5b610e4e85828601610c55565b925050602083013567ffffffffffffffff811115610e6f57610e6e610b38565b5b610e7b85828601610c55565b9150509250929050565b6000819050919050565b610e9881610e85565b82525050565b6000602082019050610eb36000830184610e8f565b92915050565b600060208284031215610ecf57610ece610b33565b5b600082013567ffffffffffffffff811115610eed57610eec610b38565b5b610ef984828501610c55565b91505092915050565b600081519050919050565b600082825260208201905092915050565b6000819050602082019050919050565b600082825260208201905092915050565b6000610f4a82610d6c565b610f548185610f2e565b9350610f64818560208601610d88565b610f6d81610b47565b840191505092915050565b610f8181610e85565b82525050565b60006040830160008301518482036000860152610fa48282610f3f565b9150506020830151610fb96020860182610f78565b508091505092915050565b6000610fd08383610f87565b905092915050565b6000602082019050919050565b6000610ff082610f02565b610ffa8185610f0d565b93508360208202850161100c85610f1e565b8060005b8581101561104857848403895281516110298582610fc4565b945061103483610fd8565b925060208a01995050600181019050611010565b50829750879550505050505092915050565b600060208201905081810360008301526110748184610fe5565b905092915050565b61108581610e85565b811461109057600080fd5b50565b6000813590506110a28161107c565b92915050565b600080604083850312156110bf576110be610b33565b5b600083013567ffffffffffffffff8111156110dd576110dc610b38565b5b6110e985828601610c55565b92505060206110fa85828601611093565b9150509250929050565b600067ffffffffffffffff82111561111f5761111e610b58565b5b602082029050602081019050919050565b600080fd5b600061114861114384611104565b610bb8565b9050808382526020820190506020840283018581111561116b5761116a611130565b5b835b818110156111b257803567ffffffffffffffff8111156111905761118f610b3d565b5b80860161119d8982610c55565b8552602085019450505060208101905061116d565b5050509392505050565b600082601f8301126111d1576111d0610b3d565b5b81356111e1848260208601611135565b91505092915050565b6000806040838503121561120157611200610b33565b5b600083013567ffffffffffffffff81111561121f5761121e610b38565b5b61122b85828601610c55565b925050602083013567ffffffffffffffff81111561124c5761124b610b38565b5b611258858286016111bc565b9150509250929050565b6000806040838503121561127957611278610b33565b5b600083013567ffffffffffffffff81111561129757611296610b38565b5b6112a385828601610c55565b92505060206112b485828601610ccc565b9150509250929050565b60008115159050919050565b6112d3816112be565b82525050565b60006020820190506112ee60008301846112ca565b92915050565b6112fd81610ca3565b82525050565b600060208201905061131860008301846112f4565b92915050565b600081905092915050565b600061133482610d6c565b61133e818561131e565b935061134e818560208601610d88565b80840191505092915050565b60006113668284611329565b915081905092915050565b7f566f746520646f6573206e6f742065786973742e000000000000000000000000600082015250565b60006113a7601483610d77565b91506113b282611371565b602082019050919050565b600060208201905081810360008301526113d68161139a565b9050919050565b7f416464726573732068617320616c726561647920766f74656421000000000000600082015250565b6000611413601a83610d77565b915061141e826113dd565b602082019050919050565b6000602082019050818103600083015261144281611406565b9050919050565b7f4e487b7100000000000000000000000000000000000000000000000000000000600052601160045260246000fd5b600061148382610e85565b91507fffffffffffffffffffffffffffffffffffffffffffffffffffffffffffffffff82036114b5576114b4611449565b5b600182019050919050565b7f566f7465206e616d652063616e6e6f7420626520656d70747900000000000000600082015250565b60006114f6601983610d77565b9150611501826114c0565b602082019050919050565b60006020820190508181036000830152611525816114e9565b9050919050565b7f4e487b7100000000000000000000000000000000000000000000000000000000600052602260045260246000fd5b6000600282049050600182168061157357607f821691505b6020821081036115865761158561152c565b5b50919050565b7f4e487b7100000000000000000000000000000000000000000000000000000000600052603260045260246000fd5b7f796f75206d757374207365742061206e616d6520666f7220796f757220766f7460008201527f696e672e00000000000000000000000000000000000000000000000000000000602082015250565b6000611617602483610d77565b9150611622826115bb565b604082019050919050565b600060208201905081810360008301526116468161160a565b9050919050565b7f43616e646964617465206f7074696f6e732063616e6e6f7420626520656d707460008201527f792e000000000000000000000000000000000000000000000000000000000000602082015250565b60006116a9602283610d77565b91506116b48261164d565b604082019050919050565b600060208201905081810360008301526116d88161169c565b9050919050565b7f74686520566f746520616c726561647920657869737465642100000000000000600082015250565b6000611715601983610d77565b9150611720826116df565b602082019050919050565b6000602082019050818103600083015261174481611708565b9050919050565b7f736f6d657468696e672069732077726f6e672100000000000000000000000000600082015250565b6000611781601383610d77565b915061178c8261174b565b602082019050919050565b600060208201905081810360008301526117b081611774565b9050919050565b60008190508160005260206000209050919050565b60006020601f8301049050919050565b600082821b905092915050565b6000600883026118197fffffffffffffffffffffffffffffffffffffffffffffffffffffffffffffffff826117dc565b61182386836117dc565b95508019841693508086168417925050509392505050565b6000819050919050565b600061186061185b61185684610e85565b61183b565b610e85565b9050919050565b6000819050919050565b61187a83611845565b61188e61188682611867565b8484546117e9565b825550505050565b600090565b6118a3611896565b6118ae818484611871565b505050565b5b818110156118d2576118c760008261189b565b6001810190506118b4565b5050565b601f821115611917576118e8816117b7565b6118f1846117cc565b81016020851015611900578190505b61191461190c856117cc565b8301826118b3565b50505b505050565b600082821c905092915050565b600061193a6000198460080261191c565b1980831691505092915050565b60006119538383611929565b9150826002028217905092915050565b61196c82610d6c565b67ffffffffffffffff81111561198557611984610b58565b5b61198f825461155b565b61199a8282856118d6565b600060209050601f8311600181146119cd57600084156119bb578287015190505b6119c58582611947565b865550611a2d565b601f1984166119db866117b7565b60005b82811015611a03578489015182556001820191506020850194506020810190506119de565b86831015611a205784890151611a1c601f891682611929565b8355505b6001600288020188555050505b50505050505056fea26469706673582212207cad9db45f137f24c0739ac696a6c9648a1e15a3078a25b769915d42f0a3387e64736f6c63430008120033",
					"opcodes": "PUSH1 0x80 PUSH1 0x40 MSTORE CALLVALUE DUP1 ISZERO PUSH2 0x10 JUMPI PUSH1 0x0 DUP1 REVERT JUMPDEST POP PUSH2 0x1A6B DUP1 PUSH2 0x20 PUSH1 0x0 CODECOPY PUSH1 0x0 RETURN INVALID PUSH1 0x80 PUSH1 0x40 MSTORE CALLVALUE DUP1 ISZERO PUSH2 0x10 JUMPI PUSH1 0x0 DUP1 REVERT JUMPDEST POP PUSH1 0x4 CALLDATASIZE LT PUSH2 0x93 JUMPI PUSH1 0x0 CALLDATALOAD PUSH1 0xE0 SHR DUP1 PUSH4 0x90A3A11F GT PUSH2 0x66 JUMPI DUP1 PUSH4 0x90A3A11F EQ PUSH2 0x158 JUMPI DUP1 PUSH4 0xAF1651C2 EQ PUSH2 0x188 JUMPI DUP1 PUSH4 0xD4ED9329 EQ PUSH2 0x1B8 JUMPI DUP1 PUSH4 0xF8A8FD6D EQ PUSH2 0x1E8 JUMPI DUP1 PUSH4 0xFCF814C3 EQ PUSH2 0x206 JUMPI PUSH2 0x93 JUMP JUMPDEST DUP1 PUSH4 0x22404B9D EQ PUSH2 0x98 JUMPI DUP1 PUSH4 0x371DA07B EQ PUSH2 0xC8 JUMPI DUP1 PUSH4 0x7D5529EC EQ PUSH2 0xF8 JUMPI DUP1 PUSH4 0x85E5B801 EQ PUSH2 0x128 JUMPI JUMPDEST PUSH1 0x0 DUP1 REVERT JUMPDEST PUSH2 0xB2 PUSH1 0x4 DUP1 CALLDATASIZE SUB DUP2 ADD SWAP1 PUSH2 0xAD SWAP2 SWAP1 PUSH2 0xCE1 JUMP JUMPDEST PUSH2 0x224 JUMP JUMPDEST PUSH1 0x40 MLOAD PUSH2 0xBF SWAP2 SWAP1 PUSH2 0xDEB JUMP JUMPDEST PUSH1 0x40 MLOAD DUP1 SWAP2 SUB SWAP1 RETURN JUMPDEST PUSH2 0xE2 PUSH1 0x4 DUP1 CALLDATASIZE SUB DUP2 ADD SWAP1 PUSH2 0xDD SWAP2 SWAP1 PUSH2 0xE0D JUMP JUMPDEST PUSH2 0x435 JUMP JUMPDEST PUSH1 0x40 MLOAD PUSH2 0xEF SWAP2 SWAP1 PUSH2 0xE9E JUMP JUMPDEST PUSH1 0x40 MLOAD DUP1 SWAP2 SUB SWAP1 RETURN JUMPDEST PUSH2 0x112 PUSH1 0x4 DUP1 CALLDATASIZE SUB DUP2 ADD SWAP1 PUSH2 0x10D SWAP2 SWAP1 PUSH2 0xEB9 JUMP JUMPDEST PUSH2 0x486 JUMP JUMPDEST PUSH1 0x40 MLOAD PUSH2 0x11F SWAP2 SWAP1 PUSH2 0x105A JUMP JUMPDEST PUSH1 0x40 MLOAD DUP1 SWAP2 SUB SWAP1 RETURN JUMPDEST PUSH2 0x142 PUSH1 0x4 DUP1 CALLDATASIZE SUB DUP2 ADD SWAP1 PUSH2 0x13D SWAP2 SWAP1 PUSH2 0x10A8 JUMP JUMPDEST PUSH2 0x6D3 JUMP JUMPDEST PUSH1 0x40 MLOAD PUSH2 0x14F SWAP2 SWAP1 PUSH2 0xDEB JUMP JUMPDEST PUSH1 0x40 MLOAD DUP1 SWAP2 SUB SWAP1 RETURN JUMPDEST PUSH2 0x172 PUSH1 0x4 DUP1 CALLDATASIZE SUB DUP2 ADD SWAP1 PUSH2 0x16D SWAP2 SWAP1 PUSH2 0x11EA JUMP JUMPDEST PUSH2 0x7A2 JUMP JUMPDEST PUSH1 0x40 MLOAD PUSH2 0x17F SWAP2 SWAP1 PUSH2 0xDEB JUMP JUMPDEST PUSH1 0x40 MLOAD DUP1 SWAP2 SUB SWAP1 RETURN JUMPDEST PUSH2 0x1A2 PUSH1 0x4 DUP1 CALLDATASIZE SUB DUP2 ADD SWAP1 PUSH2 0x19D SWAP2 SWAP1 PUSH2 0xEB9 JUMP JUMPDEST PUSH2 0x963 JUMP JUMPDEST PUSH1 0x40 MLOAD PUSH2 0x1AF SWAP2 SWAP1 PUSH2 0xE9E JUMP JUMPDEST PUSH1 0x40 MLOAD DUP1 SWAP2 SUB SWAP1 RETURN JUMPDEST PUSH2 0x1D2 PUSH1 0x4 DUP1 CALLDATASIZE SUB DUP2 ADD SWAP1 PUSH2 0x1CD SWAP2 SWAP1 PUSH2 0x1262 JUMP JUMPDEST PUSH2 0x98D JUMP JUMPDEST PUSH1 0x40 MLOAD PUSH2 0x1DF SWAP2 SWAP1 PUSH2 0x12D9 JUMP JUMPDEST PUSH1 0x40 MLOAD DUP1 SWAP2 SUB SWAP1 RETURN JUMPDEST PUSH2 0x1F0 PUSH2 0x9D2 JUMP JUMPDEST PUSH1 0x40 MLOAD PUSH2 0x1FD SWAP2 SWAP1 PUSH2 0xDEB JUMP JUMPDEST PUSH1 0x40 MLOAD DUP1 SWAP2 SUB SWAP1 RETURN JUMPDEST PUSH2 0x20E PUSH2 0xA0F JUMP JUMPDEST PUSH1 0x40 MLOAD PUSH2 0x21B SWAP2 SWAP1 PUSH2 0x1303 JUMP JUMPDEST PUSH1 0x40 MLOAD DUP1 SWAP2 SUB SWAP1 RETURN JUMPDEST PUSH1 0x60 PUSH1 0x0 DUP1 DUP6 PUSH1 0x40 MLOAD PUSH2 0x237 SWAP2 SWAP1 PUSH2 0x135A JUMP JUMPDEST SWAP1 DUP2 MSTORE PUSH1 0x20 ADD PUSH1 0x40 MLOAD DUP1 SWAP2 SUB SWAP1 KECCAK256 DUP1 SLOAD SWAP1 POP GT PUSH2 0x289 JUMPI PUSH1 0x40 MLOAD PUSH32 0x8C379A000000000000000000000000000000000000000000000000000000000 DUP2 MSTORE PUSH1 0x4 ADD PUSH2 0x280 SWAP1 PUSH2 0x13BD JUMP JUMPDEST PUSH1 0x40 MLOAD DUP1 SWAP2 SUB SWAP1 REVERT JUMPDEST PUSH1 0x2 DUP5 PUSH1 0x40 MLOAD PUSH2 0x299 SWAP2 SWAP1 PUSH2 0x135A JUMP JUMPDEST SWAP1 DUP2 MSTORE PUSH1 0x20 ADD PUSH1 0x40 MLOAD DUP1 SWAP2 SUB SWAP1 KECCAK256 PUSH1 0x0 DUP4 PUSH20 0xFFFFFFFFFFFFFFFFFFFFFFFFFFFFFFFFFFFFFFFF AND PUSH20 0xFFFFFFFFFFFFFFFFFFFFFFFFFFFFFFFFFFFFFFFF AND DUP2 MSTORE PUSH1 0x20 ADD SWAP1 DUP2 MSTORE PUSH1 0x20 ADD PUSH1 0x0 KECCAK256 PUSH1 0x0 SWAP1 SLOAD SWAP1 PUSH2 0x100 EXP SWAP1 DIV PUSH1 0xFF AND ISZERO PUSH2 0x332 JUMPI PUSH1 0x40 MLOAD PUSH32 0x8C379A000000000000000000000000000000000000000000000000000000000 DUP2 MSTORE PUSH1 0x4 ADD PUSH2 0x329 SWAP1 PUSH2 0x1429 JUMP JUMPDEST PUSH1 0x40 MLOAD DUP1 SWAP2 SUB SWAP1 REVERT JUMPDEST PUSH1 0x1 DUP5 PUSH1 0x40 MLOAD PUSH2 0x342 SWAP2 SWAP1 PUSH2 0x135A JUMP JUMPDEST SWAP1 DUP2 MSTORE PUSH1 0x20 ADD PUSH1 0x40 MLOAD DUP1 SWAP2 SUB SWAP1 KECCAK256 DUP4 PUSH1 0x40 MLOAD PUSH2 0x35E SWAP2 SWAP1 PUSH2 0x135A JUMP JUMPDEST SWAP1 DUP2 MSTORE PUSH1 0x20 ADD PUSH1 0x40 MLOAD DUP1 SWAP2 SUB SWAP1 KECCAK256 PUSH1 0x0 DUP2 SLOAD DUP1 SWAP3 SWAP2 SWAP1 PUSH2 0x37D SWAP1 PUSH2 0x1478 JUMP JUMPDEST SWAP2 SWAP1 POP SSTORE POP PUSH1 0x1 PUSH1 0x2 DUP6 PUSH1 0x40 MLOAD PUSH2 0x394 SWAP2 SWAP1 PUSH2 0x135A JUMP JUMPDEST SWAP1 DUP2 MSTORE PUSH1 0x20 ADD PUSH1 0x40 MLOAD DUP1 SWAP2 SUB SWAP1 KECCAK256 PUSH1 0x0 DUP5 PUSH20 0xFFFFFFFFFFFFFFFFFFFFFFFFFFFFFFFFFFFFFFFF AND PUSH20 0xFFFFFFFFFFFFFFFFFFFFFFFFFFFFFFFFFFFFFFFF AND DUP2 MSTORE PUSH1 0x20 ADD SWAP1 DUP2 MSTORE PUSH1 0x20 ADD PUSH1 0x0 KECCAK256 PUSH1 0x0 PUSH2 0x100 EXP DUP2 SLOAD DUP2 PUSH1 0xFF MUL NOT AND SWAP1 DUP4 ISZERO ISZERO MUL OR SWAP1 SSTORE POP PUSH1 0x40 MLOAD DUP1 PUSH1 0x40 ADD PUSH1 0x40 MSTORE DUP1 PUSH1 0x17 DUP2 MSTORE PUSH1 0x20 ADD PUSH32 0x566F7465207375636365737366756C2063617374656421000000000000000000 DUP2 MSTORE POP SWAP1 POP SWAP4 SWAP3 POP POP POP JUMP JUMPDEST PUSH1 0x1 DUP3 DUP1 MLOAD PUSH1 0x20 DUP2 ADD DUP3 ADD DUP1 MLOAD DUP5 DUP3 MSTORE PUSH1 0x20 DUP4 ADD PUSH1 0x20 DUP6 ADD KECCAK256 DUP2 DUP4 MSTORE DUP1 SWAP6 POP POP POP POP POP POP DUP2 DUP1 MLOAD PUSH1 0x20 DUP2 ADD DUP3 ADD DUP1 MLOAD DUP5 DUP3 MSTORE PUSH1 0x20 DUP4 ADD PUSH1 0x20 DUP6 ADD KECCAK256 DUP2 DUP4 MSTORE DUP1 SWAP6 POP POP POP POP POP POP PUSH1 0x0 SWAP2 POP SWAP2 POP POP SLOAD DUP2 JUMP JUMPDEST PUSH1 0x60 PUSH1 0x0 DUP3 MLOAD GT PUSH2 0x4CC JUMPI PUSH1 0x40 MLOAD PUSH32 0x8C379A000000000000000000000000000000000000000000000000000000000 DUP2 MSTORE PUSH1 0x4 ADD PUSH2 0x4C3 SWAP1 PUSH2 0x150C JUMP JUMPDEST PUSH1 0x40 MLOAD DUP1 SWAP2 SUB SWAP1 REVERT JUMPDEST PUSH1 0x0 DUP1 DUP4 PUSH1 0x40 MLOAD PUSH2 0x4DD SWAP2 SWAP1 PUSH2 0x135A JUMP JUMPDEST SWAP1 DUP2 MSTORE PUSH1 0x20 ADD PUSH1 0x40 MLOAD DUP1 SWAP2 SUB SWAP1 KECCAK256 DUP1 SLOAD DUP1 PUSH1 0x20 MUL PUSH1 0x20 ADD PUSH1 0x40 MLOAD SWAP1 DUP2 ADD PUSH1 0x40 MSTORE DUP1 SWAP3 SWAP2 SWAP1 DUP2 DUP2 MSTORE PUSH1 0x20 ADD PUSH1 0x0 SWAP1 JUMPDEST DUP3 DUP3 LT ISZERO PUSH2 0x5B7 JUMPI DUP4 DUP3 SWAP1 PUSH1 0x0 MSTORE PUSH1 0x20 PUSH1 0x0 KECCAK256 ADD DUP1 SLOAD PUSH2 0x52A SWAP1 PUSH2 0x155B JUMP JUMPDEST DUP1 PUSH1 0x1F ADD PUSH1 0x20 DUP1 SWAP2 DIV MUL PUSH1 0x20 ADD PUSH1 0x40 MLOAD SWAP1 DUP2 ADD PUSH1 0x40 MSTORE DUP1 SWAP3 SWAP2 SWAP1 DUP2 DUP2 MSTORE PUSH1 0x20 ADD DUP3 DUP1 SLOAD PUSH2 0x556 SWAP1 PUSH2 0x155B JUMP JUMPDEST DUP1 ISZERO PUSH2 0x5A3 JUMPI DUP1 PUSH1 0x1F LT PUSH2 0x578 JUMPI PUSH2 0x100 DUP1 DUP4 SLOAD DIV MUL DUP4 MSTORE SWAP2 PUSH1 0x20 ADD SWAP2 PUSH2 0x5A3 JUMP JUMPDEST DUP3 ADD SWAP2 SWAP1 PUSH1 0x0 MSTORE PUSH1 0x20 PUSH1 0x0 KECCAK256 SWAP1 JUMPDEST DUP2 SLOAD DUP2 MSTORE SWAP1 PUSH1 0x1 ADD SWAP1 PUSH1 0x20 ADD DUP1 DUP4 GT PUSH2 0x586 JUMPI DUP3 SWAP1 SUB PUSH1 0x1F AND DUP3 ADD SWAP2 JUMPDEST POP POP POP POP POP DUP2 MSTORE PUSH1 0x20 ADD SWAP1 PUSH1 0x1 ADD SWAP1 PUSH2 0x50B JUMP JUMPDEST POP POP POP POP SWAP1 POP PUSH1 0x0 DUP2 MLOAD PUSH8 0xFFFFFFFFFFFFFFFF DUP2 GT ISZERO PUSH2 0x5DA JUMPI PUSH2 0x5D9 PUSH2 0xB58 JUMP JUMPDEST JUMPDEST PUSH1 0x40 MLOAD SWAP1 DUP1 DUP3 MSTORE DUP1 PUSH1 0x20 MUL PUSH1 0x20 ADD DUP3 ADD PUSH1 0x40 MSTORE DUP1 ISZERO PUSH2 0x613 JUMPI DUP2 PUSH1 0x20 ADD JUMPDEST PUSH2 0x600 PUSH2 0xA35 JUMP JUMPDEST DUP2 MSTORE PUSH1 0x20 ADD SWAP1 PUSH1 0x1 SWAP1 SUB SWAP1 DUP2 PUSH2 0x5F8 JUMPI SWAP1 POP JUMPDEST POP SWAP1 POP PUSH1 0x0 JUMPDEST DUP3 MLOAD DUP2 LT ISZERO PUSH2 0x6C8 JUMPI PUSH1 0x0 DUP4 DUP3 DUP2 MLOAD DUP2 LT PUSH2 0x637 JUMPI PUSH2 0x636 PUSH2 0x158C JUMP JUMPDEST JUMPDEST PUSH1 0x20 MUL PUSH1 0x20 ADD ADD MLOAD SWAP1 POP PUSH1 0x0 PUSH1 0x1 DUP8 PUSH1 0x40 MLOAD PUSH2 0x653 SWAP2 SWAP1 PUSH2 0x135A JUMP JUMPDEST SWAP1 DUP2 MSTORE PUSH1 0x20 ADD PUSH1 0x40 MLOAD DUP1 SWAP2 SUB SWAP1 KECCAK256 DUP3 PUSH1 0x40 MLOAD PUSH2 0x66F SWAP2 SWAP1 PUSH2 0x135A JUMP JUMPDEST SWAP1 DUP2 MSTORE PUSH1 0x20 ADD PUSH1 0x40 MLOAD DUP1 SWAP2 SUB SWAP1 KECCAK256 SLOAD SWAP1 POP PUSH1 0x40 MLOAD DUP1 PUSH1 0x40 ADD PUSH1 0x40 MSTORE DUP1 DUP4 DUP2 MSTORE PUSH1 0x20 ADD DUP3 DUP2 MSTORE POP DUP5 DUP5 DUP2 MLOAD DUP2 LT PUSH2 0x6A8 JUMPI PUSH2 0x6A7 PUSH2 0x158C JUMP JUMPDEST JUMPDEST PUSH1 0x20 MUL PUSH1 0x20 ADD ADD DUP2 SWAP1 MSTORE POP POP POP DUP1 DUP1 PUSH2 0x6C0 SWAP1 PUSH2 0x1478 JUMP JUMPDEST SWAP2 POP POP PUSH2 0x619 JUMP JUMPDEST DUP2 SWAP4 POP POP POP POP SWAP2 SWAP1 POP JUMP JUMPDEST PUSH1 0x0 DUP3 DUP1 MLOAD PUSH1 0x20 DUP2 ADD DUP3 ADD DUP1 MLOAD DUP5 DUP3 MSTORE PUSH1 0x20 DUP4 ADD PUSH1 0x20 DUP6 ADD KECCAK256 DUP2 DUP4 MSTORE DUP1 SWAP6 POP POP POP POP POP POP DUP2 DUP2 SLOAD DUP2 LT PUSH2 0x705 JUMPI PUSH1 0x0 DUP1 REVERT JUMPDEST SWAP1 PUSH1 0x0 MSTORE PUSH1 0x20 PUSH1 0x0 KECCAK256 ADD PUSH1 0x0 SWAP2 POP SWAP2 POP POP DUP1 SLOAD PUSH2 0x721 SWAP1 PUSH2 0x155B JUMP JUMPDEST DUP1 PUSH1 0x1F ADD PUSH1 0x20 DUP1 SWAP2 DIV MUL PUSH1 0x20 ADD PUSH1 0x40 MLOAD SWAP1 DUP2 ADD PUSH1 0x40 MSTORE DUP1 SWAP3 SWAP2 SWAP1 DUP2 DUP2 MSTORE PUSH1 0x20 ADD DUP3 DUP1 SLOAD PUSH2 0x74D SWAP1 PUSH2 0x155B JUMP JUMPDEST DUP1 ISZERO PUSH2 0x79A JUMPI DUP1 PUSH1 0x1F LT PUSH2 0x76F JUMPI PUSH2 0x100 DUP1 DUP4 SLOAD DIV MUL DUP4 MSTORE SWAP2 PUSH1 0x20 ADD SWAP2 PUSH2 0x79A JUMP JUMPDEST DUP3 ADD SWAP2 SWAP1 PUSH1 0x0 MSTORE PUSH1 0x20 PUSH1 0x0 KECCAK256 SWAP1 JUMPDEST DUP2 SLOAD DUP2 MSTORE SWAP1 PUSH1 0x1 ADD SWAP1 PUSH1 0x20 ADD DUP1 DUP4 GT PUSH2 0x77D JUMPI DUP3 SWAP1 SUB PUSH1 0x1F AND DUP3 ADD SWAP2 JUMPDEST POP POP POP POP POP DUP2 JUMP JUMPDEST PUSH1 0x60 PUSH1 0x0 DUP4 MLOAD GT PUSH2 0x7E8 JUMPI PUSH1 0x40 MLOAD PUSH32 0x8C379A000000000000000000000000000000000000000000000000000000000 DUP2 MSTORE PUSH1 0x4 ADD PUSH2 0x7DF SWAP1 PUSH2 0x162D JUMP JUMPDEST PUSH1 0x40 MLOAD DUP1 SWAP2 SUB SWAP1 REVERT JUMPDEST PUSH1 0x0 DUP3 MLOAD GT PUSH2 0x82C JUMPI PUSH1 0x40 MLOAD PUSH32 0x8C379A000000000000000000000000000000000000000000000000000000000 DUP2 MSTORE PUSH1 0x4 ADD PUSH2 0x823 SWAP1 PUSH2 0x16BF JUMP JUMPDEST PUSH1 0x40 MLOAD DUP1 SWAP2 SUB SWAP1 REVERT JUMPDEST PUSH1 0x0 DUP1 DUP5 PUSH1 0x40 MLOAD PUSH2 0x83D SWAP2 SWAP1 PUSH2 0x135A JUMP JUMPDEST SWAP1 DUP2 MSTORE PUSH1 0x20 ADD PUSH1 0x40 MLOAD DUP1 SWAP2 SUB SWAP1 KECCAK256 DUP1 SLOAD SWAP1 POP EQ PUSH2 0x88F JUMPI PUSH1 0x40 MLOAD PUSH32 0x8C379A000000000000000000000000000000000000000000000000000000000 DUP2 MSTORE PUSH1 0x4 ADD PUSH2 0x886 SWAP1 PUSH2 0x172B JUMP JUMPDEST PUSH1 0x40 MLOAD DUP1 SWAP2 SUB SWAP1 REVERT JUMPDEST DUP2 PUSH1 0x0 DUP5 PUSH1 0x40 MLOAD PUSH2 0x8A0 SWAP2 SWAP1 PUSH2 0x135A JUMP JUMPDEST SWAP1 DUP2 MSTORE PUSH1 0x20 ADD PUSH1 0x40 MLOAD DUP1 SWAP2 SUB SWAP1 KECCAK256 SWAP1 DUP1 MLOAD SWAP1 PUSH1 0x20 ADD SWAP1 PUSH2 0x8C1 SWAP3 SWAP2 SWAP1 PUSH2 0xA4F JUMP JUMPDEST POP PUSH1 0x0 DUP1 DUP5 PUSH1 0x40 MLOAD PUSH2 0x8D3 SWAP2 SWAP1 PUSH2 0x135A JUMP JUMPDEST SWAP1 DUP2 MSTORE PUSH1 0x20 ADD PUSH1 0x40 MLOAD DUP1 SWAP2 SUB SWAP1 KECCAK256 DUP1 SLOAD SWAP1 POP GT PUSH2 0x925 JUMPI PUSH1 0x40 MLOAD PUSH32 0x8C379A000000000000000000000000000000000000000000000000000000000 DUP2 MSTORE PUSH1 0x4 ADD PUSH2 0x91C SWAP1 PUSH2 0x1797 JUMP JUMPDEST PUSH1 0x40 MLOAD DUP1 SWAP2 SUB SWAP1 REVERT JUMPDEST PUSH1 0x40 MLOAD DUP1 PUSH1 0x40 ADD PUSH1 0x40 MSTORE DUP1 PUSH1 0x17 DUP2 MSTORE PUSH1 0x20 ADD PUSH32 0x63726561746520766F7465207375636365737366756C21000000000000000000 DUP2 MSTORE POP SWAP1 POP SWAP3 SWAP2 POP POP JUMP JUMPDEST PUSH1 0x0 DUP1 DUP3 PUSH1 0x40 MLOAD PUSH2 0x974 SWAP2 SWAP1 PUSH2 0x135A JUMP JUMPDEST SWAP1 DUP2 MSTORE PUSH1 0x20 ADD PUSH1 0x40 MLOAD DUP1 SWAP2 SUB SWAP1 KECCAK256 DUP1 SLOAD SWAP1 POP SWAP1 POP SWAP2 SWAP1 POP JUMP JUMPDEST PUSH1 0x2 DUP3 DUP1 MLOAD PUSH1 0x20 DUP2 ADD DUP3 ADD DUP1 MLOAD DUP5 DUP3 MSTORE PUSH1 0x20 DUP4 ADD PUSH1 0x20 DUP6 ADD KECCAK256 DUP2 DUP4 MSTORE DUP1 SWAP6 POP POP POP POP POP POP PUSH1 0x20 MSTORE DUP1 PUSH1 0x0 MSTORE PUSH1 0x40 PUSH1 0x0 KECCAK256 PUSH1 0x0 SWAP2 POP SWAP2 POP SWAP1 SLOAD SWAP1 PUSH2 0x100 EXP SWAP1 DIV PUSH1 0xFF AND DUP2 JUMP JUMPDEST PUSH1 0x60 PUSH1 0x40 MLOAD DUP1 PUSH1 0x40 ADD PUSH1 0x40 MSTORE DUP1 PUSH1 0xA DUP2 MSTORE PUSH1 0x20 ADD PUSH32 0x786D727261626269747800000000000000000000000000000000000000000000 DUP2 MSTORE POP SWAP1 POP SWAP1 JUMP JUMPDEST PUSH1 0x3 PUSH1 0x0 SWAP1 SLOAD SWAP1 PUSH2 0x100 EXP SWAP1 DIV PUSH20 0xFFFFFFFFFFFFFFFFFFFFFFFFFFFFFFFFFFFFFFFF AND DUP2 JUMP JUMPDEST PUSH1 0x40 MLOAD DUP1 PUSH1 0x40 ADD PUSH1 0x40 MSTORE DUP1 PUSH1 0x60 DUP2 MSTORE PUSH1 0x20 ADD PUSH1 0x0 DUP2 MSTORE POP SWAP1 JUMP JUMPDEST DUP3 DUP1 SLOAD DUP3 DUP3 SSTORE SWAP1 PUSH1 0x0 MSTORE PUSH1 0x20 PUSH1 0x0 KECCAK256 SWAP1 DUP2 ADD SWAP3 DUP3 ISZERO PUSH2 0xA97 JUMPI SWAP2 PUSH1 0x20 MUL DUP3 ADD JUMPDEST DUP3 DUP2 GT ISZERO PUSH2 0xA96 JUMPI DUP3 MLOAD DUP3 SWAP1 DUP2 PUSH2 0xA86 SWAP2 SWAP1 PUSH2 0x1963 JUMP JUMPDEST POP SWAP2 PUSH1 0x20 ADD SWAP2 SWAP1 PUSH1 0x1 ADD SWAP1 PUSH2 0xA6F JUMP JUMPDEST JUMPDEST POP SWAP1 POP PUSH2 0xAA4 SWAP2 SWAP1 PUSH2 0xAA8 JUMP JUMPDEST POP SWAP1 JUMP JUMPDEST JUMPDEST DUP1 DUP3 GT ISZERO PUSH2 0xAC8 JUMPI PUSH1 0x0 DUP2 DUP2 PUSH2 0xABF SWAP2 SWAP1 PUSH2 0xACC JUMP JUMPDEST POP PUSH1 0x1 ADD PUSH2 0xAA9 JUMP JUMPDEST POP SWAP1 JUMP JUMPDEST POP DUP1 SLOAD PUSH2 0xAD8 SWAP1 PUSH2 0x155B JUMP JUMPDEST PUSH1 0x0 DUP3 SSTORE DUP1 PUSH1 0x1F LT PUSH2 0xAEA JUMPI POP PUSH2 0xB09 JUMP JUMPDEST PUSH1 0x1F ADD PUSH1 0x20 SWAP1 DIV SWAP1 PUSH1 0x0 MSTORE PUSH1 0x20 PUSH1 0x0 KECCAK256 SWAP1 DUP2 ADD SWAP1 PUSH2 0xB08 SWAP2 SWAP1 PUSH2 0xB0C JUMP JUMPDEST JUMPDEST POP JUMP JUMPDEST JUMPDEST DUP1 DUP3 GT ISZERO PUSH2 0xB25 JUMPI PUSH1 0x0 DUP2 PUSH1 0x0 SWAP1 SSTORE POP PUSH1 0x1 ADD PUSH2 0xB0D JUMP JUMPDEST POP SWAP1 JUMP JUMPDEST PUSH1 0x0 PUSH1 0x40 MLOAD SWAP1 POP SWAP1 JUMP JUMPDEST PUSH1 0x0 DUP1 REVERT JUMPDEST PUSH1 0x0 DUP1 REVERT JUMPDEST PUSH1 0x0 DUP1 REVERT JUMPDEST PUSH1 0x0 DUP1 REVERT JUMPDEST PUSH1 0x0 PUSH1 0x1F NOT PUSH1 0x1F DUP4 ADD AND SWAP1 POP SWAP2 SWAP1 POP JUMP JUMPDEST PUSH32 0x4E487B7100000000000000000000000000000000000000000000000000000000 PUSH1 0x0 MSTORE PUSH1 0x41 PUSH1 0x4 MSTORE PUSH1 0x24 PUSH1 0x0 REVERT JUMPDEST PUSH2 0xB90 DUP3 PUSH2 0xB47 JUMP JUMPDEST DUP2 ADD DUP2 DUP2 LT PUSH8 0xFFFFFFFFFFFFFFFF DUP3 GT OR ISZERO PUSH2 0xBAF JUMPI PUSH2 0xBAE PUSH2 0xB58 JUMP JUMPDEST JUMPDEST DUP1 PUSH1 0x40 MSTORE POP POP POP JUMP JUMPDEST PUSH1 0x0 PUSH2 0xBC2 PUSH2 0xB29 JUMP JUMPDEST SWAP1 POP PUSH2 0xBCE DUP3 DUP3 PUSH2 0xB87 JUMP JUMPDEST SWAP2 SWAP1 POP JUMP JUMPDEST PUSH1 0x0 PUSH8 0xFFFFFFFFFFFFFFFF DUP3 GT ISZERO PUSH2 0xBEE JUMPI PUSH2 0xBED PUSH2 0xB58 JUMP JUMPDEST JUMPDEST PUSH2 0xBF7 DUP3 PUSH2 0xB47 JUMP JUMPDEST SWAP1 POP PUSH1 0x20 DUP2 ADD SWAP1 POP SWAP2 SWAP1 POP JUMP JUMPDEST DUP3 DUP2 DUP4 CALLDATACOPY PUSH1 0x0 DUP4 DUP4 ADD MSTORE POP POP POP JUMP JUMPDEST PUSH1 0x0 PUSH2 0xC26 PUSH2 0xC21 DUP5 PUSH2 0xBD3 JUMP JUMPDEST PUSH2 0xBB8 JUMP JUMPDEST SWAP1 POP DUP3 DUP2 MSTORE PUSH1 0x20 DUP2 ADD DUP5 DUP5 DUP5 ADD GT ISZERO PUSH2 0xC42 JUMPI PUSH2 0xC41 PUSH2 0xB42 JUMP JUMPDEST JUMPDEST PUSH2 0xC4D DUP5 DUP3 DUP6 PUSH2 0xC04 JUMP JUMPDEST POP SWAP4 SWAP3 POP POP POP JUMP JUMPDEST PUSH1 0x0 DUP3 PUSH1 0x1F DUP4 ADD SLT PUSH2 0xC6A JUMPI PUSH2 0xC69 PUSH2 0xB3D JUMP JUMPDEST JUMPDEST DUP2 CALLDATALOAD PUSH2 0xC7A DUP5 DUP3 PUSH1 0x20 DUP7 ADD PUSH2 0xC13 JUMP JUMPDEST SWAP2 POP POP SWAP3 SWAP2 POP POP JUMP JUMPDEST PUSH1 0x0 PUSH20 0xFFFFFFFFFFFFFFFFFFFFFFFFFFFFFFFFFFFFFFFF DUP3 AND SWAP1 POP SWAP2 SWAP1 POP JUMP JUMPDEST PUSH1 0x0 PUSH2 0xCAE DUP3 PUSH2 0xC83 JUMP JUMPDEST SWAP1 POP SWAP2 SWAP1 POP JUMP JUMPDEST PUSH2 0xCBE DUP2 PUSH2 0xCA3 JUMP JUMPDEST DUP2 EQ PUSH2 0xCC9 JUMPI PUSH1 0x0 DUP1 REVERT JUMPDEST POP JUMP JUMPDEST PUSH1 0x0 DUP2 CALLDATALOAD SWAP1 POP PUSH2 0xCDB DUP2 PUSH2 0xCB5 JUMP JUMPDEST SWAP3 SWAP2 POP POP JUMP JUMPDEST PUSH1 0x0 DUP1 PUSH1 0x0 PUSH1 0x60 DUP5 DUP7 SUB SLT ISZERO PUSH2 0xCFA JUMPI PUSH2 0xCF9 PUSH2 0xB33 JUMP JUMPDEST JUMPDEST PUSH1 0x0 DUP5 ADD CALLDATALOAD PUSH8 0xFFFFFFFFFFFFFFFF DUP2 GT ISZERO PUSH2 0xD18 JUMPI PUSH2 0xD17 PUSH2 0xB38 JUMP JUMPDEST JUMPDEST PUSH2 0xD24 DUP7 DUP3 DUP8 ADD PUSH2 0xC55 JUMP JUMPDEST SWAP4 POP POP PUSH1 0x20 DUP5 ADD CALLDATALOAD PUSH8 0xFFFFFFFFFFFFFFFF DUP2 GT ISZERO PUSH2 0xD45 JUMPI PUSH2 0xD44 PUSH2 0xB38 JUMP JUMPDEST JUMPDEST PUSH2 0xD51 DUP7 DUP3 DUP8 ADD PUSH2 0xC55 JUMP JUMPDEST SWAP3 POP POP PUSH1 0x40 PUSH2 0xD62 DUP7 DUP3 DUP8 ADD PUSH2 0xCCC JUMP JUMPDEST SWAP2 POP POP SWAP3 POP SWAP3 POP SWAP3 JUMP JUMPDEST PUSH1 0x0 DUP2 MLOAD SWAP1 POP SWAP2 SWAP1 POP JUMP JUMPDEST PUSH1 0x0 DUP3 DUP3 MSTORE PUSH1 0x20 DUP3 ADD SWAP1 POP SWAP3 SWAP2 POP POP JUMP JUMPDEST PUSH1 0x0 JUMPDEST DUP4 DUP2 LT ISZERO PUSH2 0xDA6 JUMPI DUP1 DUP3 ADD MLOAD DUP2 DUP5 ADD MSTORE PUSH1 0x20 DUP2 ADD SWAP1 POP PUSH2 0xD8B JUMP JUMPDEST PUSH1 0x0 DUP5 DUP5 ADD MSTORE POP POP POP POP JUMP JUMPDEST PUSH1 0x0 PUSH2 0xDBD DUP3 PUSH2 0xD6C JUMP JUMPDEST PUSH2 0xDC7 DUP2 DUP6 PUSH2 0xD77 JUMP JUMPDEST SWAP4 POP PUSH2 0xDD7 DUP2 DUP6 PUSH1 0x20 DUP7 ADD PUSH2 0xD88 JUMP JUMPDEST PUSH2 0xDE0 DUP2 PUSH2 0xB47 JUMP JUMPDEST DUP5 ADD SWAP2 POP POP SWAP3 SWAP2 POP POP JUMP JUMPDEST PUSH1 0x0 PUSH1 0x20 DUP3 ADD SWAP1 POP DUP2 DUP2 SUB PUSH1 0x0 DUP4 ADD MSTORE PUSH2 0xE05 DUP2 DUP5 PUSH2 0xDB2 JUMP JUMPDEST SWAP1 POP SWAP3 SWAP2 POP POP JUMP JUMPDEST PUSH1 0x0 DUP1 PUSH1 0x40 DUP4 DUP6 SUB SLT ISZERO PUSH2 0xE24 JUMPI PUSH2 0xE23 PUSH2 0xB33 JUMP JUMPDEST JUMPDEST PUSH1 0x0 DUP4 ADD CALLDATALOAD PUSH8 0xFFFFFFFFFFFFFFFF DUP2 GT ISZERO PUSH2 0xE42 JUMPI PUSH2 0xE41 PUSH2 0xB38 JUMP JUMPDEST JUMPDEST PUSH2 0xE4E DUP6 DUP3 DUP7 ADD PUSH2 0xC55 JUMP JUMPDEST SWAP3 POP POP PUSH1 0x20 DUP4 ADD CALLDATALOAD PUSH8 0xFFFFFFFFFFFFFFFF DUP2 GT ISZERO PUSH2 0xE6F JUMPI PUSH2 0xE6E PUSH2 0xB38 JUMP JUMPDEST JUMPDEST PUSH2 0xE7B DUP6 DUP3 DUP7 ADD PUSH2 0xC55 JUMP JUMPDEST SWAP2 POP POP SWAP3 POP SWAP3 SWAP1 POP JUMP JUMPDEST PUSH1 0x0 DUP2 SWAP1 POP SWAP2 SWAP1 POP JUMP JUMPDEST PUSH2 0xE98 DUP2 PUSH2 0xE85 JUMP JUMPDEST DUP3 MSTORE POP POP JUMP JUMPDEST PUSH1 0x0 PUSH1 0x20 DUP3 ADD SWAP1 POP PUSH2 0xEB3 PUSH1 0x0 DUP4 ADD DUP5 PUSH2 0xE8F JUMP JUMPDEST SWAP3 SWAP2 POP POP JUMP JUMPDEST PUSH1 0x0 PUSH1 0x20 DUP3 DUP5 SUB SLT ISZERO PUSH2 0xECF JUMPI PUSH2 0xECE PUSH2 0xB33 JUMP JUMPDEST JUMPDEST PUSH1 0x0 DUP3 ADD CALLDATALOAD PUSH8 0xFFFFFFFFFFFFFFFF DUP2 GT ISZERO PUSH2 0xEED JUMPI PUSH2 0xEEC PUSH2 0xB38 JUMP JUMPDEST JUMPDEST PUSH2 0xEF9 DUP5 DUP3 DUP6 ADD PUSH2 0xC55 JUMP JUMPDEST SWAP2 POP POP SWAP3 SWAP2 POP POP JUMP JUMPDEST PUSH1 0x0 DUP2 MLOAD SWAP1 POP SWAP2 SWAP1 POP JUMP JUMPDEST PUSH1 0x0 DUP3 DUP3 MSTORE PUSH1 0x20 DUP3 ADD SWAP1 POP SWAP3 SWAP2 POP POP JUMP JUMPDEST PUSH1 0x0 DUP2 SWAP1 POP PUSH1 0x20 DUP3 ADD SWAP1 POP SWAP2 SWAP1 POP JUMP JUMPDEST PUSH1 0x0 DUP3 DUP3 MSTORE PUSH1 0x20 DUP3 ADD SWAP1 POP SWAP3 SWAP2 POP POP JUMP JUMPDEST PUSH1 0x0 PUSH2 0xF4A DUP3 PUSH2 0xD6C JUMP JUMPDEST PUSH2 0xF54 DUP2 DUP6 PUSH2 0xF2E JUMP JUMPDEST SWAP4 POP PUSH2 0xF64 DUP2 DUP6 PUSH1 0x20 DUP7 ADD PUSH2 0xD88 JUMP JUMPDEST PUSH2 0xF6D DUP2 PUSH2 0xB47 JUMP JUMPDEST DUP5 ADD SWAP2 POP POP SWAP3 SWAP2 POP POP JUMP JUMPDEST PUSH2 0xF81 DUP2 PUSH2 0xE85 JUMP JUMPDEST DUP3 MSTORE POP POP JUMP JUMPDEST PUSH1 0x0 PUSH1 0x40 DUP4 ADD PUSH1 0x0 DUP4 ADD MLOAD DUP5 DUP3 SUB PUSH1 0x0 DUP7 ADD MSTORE PUSH2 0xFA4 DUP3 DUP3 PUSH2 0xF3F JUMP JUMPDEST SWAP2 POP POP PUSH1 0x20 DUP4 ADD MLOAD PUSH2 0xFB9 PUSH1 0x20 DUP7 ADD DUP3 PUSH2 0xF78 JUMP JUMPDEST POP DUP1 SWAP2 POP POP SWAP3 SWAP2 POP POP JUMP JUMPDEST PUSH1 0x0 PUSH2 0xFD0 DUP4 DUP4 PUSH2 0xF87 JUMP JUMPDEST SWAP1 POP SWAP3 SWAP2 POP POP JUMP JUMPDEST PUSH1 0x0 PUSH1 0x20 DUP3 ADD SWAP1 POP SWAP2 SWAP1 POP JUMP JUMPDEST PUSH1 0x0 PUSH2 0xFF0 DUP3 PUSH2 0xF02 JUMP JUMPDEST PUSH2 0xFFA DUP2 DUP6 PUSH2 0xF0D JUMP JUMPDEST SWAP4 POP DUP4 PUSH1 0x20 DUP3 MUL DUP6 ADD PUSH2 0x100C DUP6 PUSH2 0xF1E JUMP JUMPDEST DUP1 PUSH1 0x0 JUMPDEST DUP6 DUP2 LT ISZERO PUSH2 0x1048 JUMPI DUP5 DUP5 SUB DUP10 MSTORE DUP2 MLOAD PUSH2 0x1029 DUP6 DUP3 PUSH2 0xFC4 JUMP JUMPDEST SWAP5 POP PUSH2 0x1034 DUP4 PUSH2 0xFD8 JUMP JUMPDEST SWAP3 POP PUSH1 0x20 DUP11 ADD SWAP10 POP POP PUSH1 0x1 DUP2 ADD SWAP1 POP PUSH2 0x1010 JUMP JUMPDEST POP DUP3 SWAP8 POP DUP8 SWAP6 POP POP POP POP POP POP SWAP3 SWAP2 POP POP JUMP JUMPDEST PUSH1 0x0 PUSH1 0x20 DUP3 ADD SWAP1 POP DUP2 DUP2 SUB PUSH1 0x0 DUP4 ADD MSTORE PUSH2 0x1074 DUP2 DUP5 PUSH2 0xFE5 JUMP JUMPDEST SWAP1 POP SWAP3 SWAP2 POP POP JUMP JUMPDEST PUSH2 0x1085 DUP2 PUSH2 0xE85 JUMP JUMPDEST DUP2 EQ PUSH2 0x1090 JUMPI PUSH1 0x0 DUP1 REVERT JUMPDEST POP JUMP JUMPDEST PUSH1 0x0 DUP2 CALLDATALOAD SWAP1 POP PUSH2 0x10A2 DUP2 PUSH2 0x107C JUMP JUMPDEST SWAP3 SWAP2 POP POP JUMP JUMPDEST PUSH1 0x0 DUP1 PUSH1 0x40 DUP4 DUP6 SUB SLT ISZERO PUSH2 0x10BF JUMPI PUSH2 0x10BE PUSH2 0xB33 JUMP JUMPDEST JUMPDEST PUSH1 0x0 DUP4 ADD CALLDATALOAD PUSH8 0xFFFFFFFFFFFFFFFF DUP2 GT ISZERO PUSH2 0x10DD JUMPI PUSH2 0x10DC PUSH2 0xB38 JUMP JUMPDEST JUMPDEST PUSH2 0x10E9 DUP6 DUP3 DUP7 ADD PUSH2 0xC55 JUMP JUMPDEST SWAP3 POP POP PUSH1 0x20 PUSH2 0x10FA DUP6 DUP3 DUP7 ADD PUSH2 0x1093 JUMP JUMPDEST SWAP2 POP POP SWAP3 POP SWAP3 SWAP1 POP JUMP JUMPDEST PUSH1 0x0 PUSH8 0xFFFFFFFFFFFFFFFF DUP3 GT ISZERO PUSH2 0x111F JUMPI PUSH2 0x111E PUSH2 0xB58 JUMP JUMPDEST JUMPDEST PUSH1 0x20 DUP3 MUL SWAP1 POP PUSH1 0x20 DUP2 ADD SWAP1 POP SWAP2 SWAP1 POP JUMP JUMPDEST PUSH1 0x0 DUP1 REVERT JUMPDEST PUSH1 0x0 PUSH2 0x1148 PUSH2 0x1143 DUP5 PUSH2 0x1104 JUMP JUMPDEST PUSH2 0xBB8 JUMP JUMPDEST SWAP1 POP DUP1 DUP4 DUP3 MSTORE PUSH1 0x20 DUP3 ADD SWAP1 POP PUSH1 0x20 DUP5 MUL DUP4 ADD DUP6 DUP2 GT ISZERO PUSH2 0x116B JUMPI PUSH2 0x116A PUSH2 0x1130 JUMP JUMPDEST JUMPDEST DUP4 JUMPDEST DUP2 DUP2 LT ISZERO PUSH2 0x11B2 JUMPI DUP1 CALLDATALOAD PUSH8 0xFFFFFFFFFFFFFFFF DUP2 GT ISZERO PUSH2 0x1190 JUMPI PUSH2 0x118F PUSH2 0xB3D JUMP JUMPDEST JUMPDEST DUP1 DUP7 ADD PUSH2 0x119D DUP10 DUP3 PUSH2 0xC55 JUMP JUMPDEST DUP6 MSTORE PUSH1 0x20 DUP6 ADD SWAP5 POP POP POP PUSH1 0x20 DUP2 ADD SWAP1 POP PUSH2 0x116D JUMP JUMPDEST POP POP POP SWAP4 SWAP3 POP POP POP JUMP JUMPDEST PUSH1 0x0 DUP3 PUSH1 0x1F DUP4 ADD SLT PUSH2 0x11D1 JUMPI PUSH2 0x11D0 PUSH2 0xB3D JUMP JUMPDEST JUMPDEST DUP2 CALLDATALOAD PUSH2 0x11E1 DUP5 DUP3 PUSH1 0x20 DUP7 ADD PUSH2 0x1135 JUMP JUMPDEST SWAP2 POP POP SWAP3 SWAP2 POP POP JUMP JUMPDEST PUSH1 0x0 DUP1 PUSH1 0x40 DUP4 DUP6 SUB SLT ISZERO PUSH2 0x1201 JUMPI PUSH2 0x1200 PUSH2 0xB33 JUMP JUMPDEST JUMPDEST PUSH1 0x0 DUP4 ADD CALLDATALOAD PUSH8 0xFFFFFFFFFFFFFFFF DUP2 GT ISZERO PUSH2 0x121F JUMPI PUSH2 0x121E PUSH2 0xB38 JUMP JUMPDEST JUMPDEST PUSH2 0x122B DUP6 DUP3 DUP7 ADD PUSH2 0xC55 JUMP JUMPDEST SWAP3 POP POP PUSH1 0x20 DUP4 ADD CALLDATALOAD PUSH8 0xFFFFFFFFFFFFFFFF DUP2 GT ISZERO PUSH2 0x124C JUMPI PUSH2 0x124B PUSH2 0xB38 JUMP JUMPDEST JUMPDEST PUSH2 0x1258 DUP6 DUP3 DUP7 ADD PUSH2 0x11BC JUMP JUMPDEST SWAP2 POP POP SWAP3 POP SWAP3 SWAP1 POP JUMP JUMPDEST PUSH1 0x0 DUP1 PUSH1 0x40 DUP4 DUP6 SUB SLT ISZERO PUSH2 0x1279 JUMPI PUSH2 0x1278 PUSH2 0xB33 JUMP JUMPDEST JUMPDEST PUSH1 0x0 DUP4 ADD CALLDATALOAD PUSH8 0xFFFFFFFFFFFFFFFF DUP2 GT ISZERO PUSH2 0x1297 JUMPI PUSH2 0x1296 PUSH2 0xB38 JUMP JUMPDEST JUMPDEST PUSH2 0x12A3 DUP6 DUP3 DUP7 ADD PUSH2 0xC55 JUMP JUMPDEST SWAP3 POP POP PUSH1 0x20 PUSH2 0x12B4 DUP6 DUP3 DUP7 ADD PUSH2 0xCCC JUMP JUMPDEST SWAP2 POP POP SWAP3 POP SWAP3 SWAP1 POP JUMP JUMPDEST PUSH1 0x0 DUP2 ISZERO ISZERO SWAP1 POP SWAP2 SWAP1 POP JUMP JUMPDEST PUSH2 0x12D3 DUP2 PUSH2 0x12BE JUMP JUMPDEST DUP3 MSTORE POP POP JUMP JUMPDEST PUSH1 0x0 PUSH1 0x20 DUP3 ADD SWAP1 POP PUSH2 0x12EE PUSH1 0x0 DUP4 ADD DUP5 PUSH2 0x12CA JUMP JUMPDEST SWAP3 SWAP2 POP POP JUMP JUMPDEST PUSH2 0x12FD DUP2 PUSH2 0xCA3 JUMP JUMPDEST DUP3 MSTORE POP POP JUMP JUMPDEST PUSH1 0x0 PUSH1 0x20 DUP3 ADD SWAP1 POP PUSH2 0x1318 PUSH1 0x0 DUP4 ADD DUP5 PUSH2 0x12F4 JUMP JUMPDEST SWAP3 SWAP2 POP POP JUMP JUMPDEST PUSH1 0x0 DUP2 SWAP1 POP SWAP3 SWAP2 POP POP JUMP JUMPDEST PUSH1 0x0 PUSH2 0x1334 DUP3 PUSH2 0xD6C JUMP JUMPDEST PUSH2 0x133E DUP2 DUP6 PUSH2 0x131E JUMP JUMPDEST SWAP4 POP PUSH2 0x134E DUP2 DUP6 PUSH1 0x20 DUP7 ADD PUSH2 0xD88 JUMP JUMPDEST DUP1 DUP5 ADD SWAP2 POP POP SWAP3 SWAP2 POP POP JUMP JUMPDEST PUSH1 0x0 PUSH2 0x1366 DUP3 DUP5 PUSH2 0x1329 JUMP JUMPDEST SWAP2 POP DUP2 SWAP1 POP SWAP3 SWAP2 POP POP JUMP JUMPDEST PUSH32 0x566F746520646F6573206E6F742065786973742E000000000000000000000000 PUSH1 0x0 DUP3 ADD MSTORE POP JUMP JUMPDEST PUSH1 0x0 PUSH2 0x13A7 PUSH1 0x14 DUP4 PUSH2 0xD77 JUMP JUMPDEST SWAP2 POP PUSH2 0x13B2 DUP3 PUSH2 0x1371 JUMP JUMPDEST PUSH1 0x20 DUP3 ADD SWAP1 POP SWAP2 SWAP1 POP JUMP JUMPDEST PUSH1 0x0 PUSH1 0x20 DUP3 ADD SWAP1 POP DUP2 DUP2 SUB PUSH1 0x0 DUP4 ADD MSTORE PUSH2 0x13D6 DUP2 PUSH2 0x139A JUMP JUMPDEST SWAP1 POP SWAP2 SWAP1 POP JUMP JUMPDEST PUSH32 0x416464726573732068617320616C726561647920766F74656421000000000000 PUSH1 0x0 DUP3 ADD MSTORE POP JUMP JUMPDEST PUSH1 0x0 PUSH2 0x1413 PUSH1 0x1A DUP4 PUSH2 0xD77 JUMP JUMPDEST SWAP2 POP PUSH2 0x141E DUP3 PUSH2 0x13DD JUMP JUMPDEST PUSH1 0x20 DUP3 ADD SWAP1 POP SWAP2 SWAP1 POP JUMP JUMPDEST PUSH1 0x0 PUSH1 0x20 DUP3 ADD SWAP1 POP DUP2 DUP2 SUB PUSH1 0x0 DUP4 ADD MSTORE PUSH2 0x1442 DUP2 PUSH2 0x1406 JUMP JUMPDEST SWAP1 POP SWAP2 SWAP1 POP JUMP JUMPDEST PUSH32 0x4E487B7100000000000000000000000000000000000000000000000000000000 PUSH1 0x0 MSTORE PUSH1 0x11 PUSH1 0x4 MSTORE PUSH1 0x24 PUSH1 0x0 REVERT JUMPDEST PUSH1 0x0 PUSH2 0x1483 DUP3 PUSH2 0xE85 JUMP JUMPDEST SWAP2 POP PUSH32 0xFFFFFFFFFFFFFFFFFFFFFFFFFFFFFFFFFFFFFFFFFFFFFFFFFFFFFFFFFFFFFFFF DUP3 SUB PUSH2 0x14B5 JUMPI PUSH2 0x14B4 PUSH2 0x1449 JUMP JUMPDEST JUMPDEST PUSH1 0x1 DUP3 ADD SWAP1 POP SWAP2 SWAP1 POP JUMP JUMPDEST PUSH32 0x566F7465206E616D652063616E6E6F7420626520656D70747900000000000000 PUSH1 0x0 DUP3 ADD MSTORE POP JUMP JUMPDEST PUSH1 0x0 PUSH2 0x14F6 PUSH1 0x19 DUP4 PUSH2 0xD77 JUMP JUMPDEST SWAP2 POP PUSH2 0x1501 DUP3 PUSH2 0x14C0 JUMP JUMPDEST PUSH1 0x20 DUP3 ADD SWAP1 POP SWAP2 SWAP1 POP JUMP JUMPDEST PUSH1 0x0 PUSH1 0x20 DUP3 ADD SWAP1 POP DUP2 DUP2 SUB PUSH1 0x0 DUP4 ADD MSTORE PUSH2 0x1525 DUP2 PUSH2 0x14E9 JUMP JUMPDEST SWAP1 POP SWAP2 SWAP1 POP JUMP JUMPDEST PUSH32 0x4E487B7100000000000000000000000000000000000000000000000000000000 PUSH1 0x0 MSTORE PUSH1 0x22 PUSH1 0x4 MSTORE PUSH1 0x24 PUSH1 0x0 REVERT JUMPDEST PUSH1 0x0 PUSH1 0x2 DUP3 DIV SWAP1 POP PUSH1 0x1 DUP3 AND DUP1 PUSH2 0x1573 JUMPI PUSH1 0x7F DUP3 AND SWAP2 POP JUMPDEST PUSH1 0x20 DUP3 LT DUP2 SUB PUSH2 0x1586 JUMPI PUSH2 0x1585 PUSH2 0x152C JUMP JUMPDEST JUMPDEST POP SWAP2 SWAP1 POP JUMP JUMPDEST PUSH32 0x4E487B7100000000000000000000000000000000000000000000000000000000 PUSH1 0x0 MSTORE PUSH1 0x32 PUSH1 0x4 MSTORE PUSH1 0x24 PUSH1 0x0 REVERT JUMPDEST PUSH32 0x796F75206D757374207365742061206E616D6520666F7220796F757220766F74 PUSH1 0x0 DUP3 ADD MSTORE PUSH32 0x696E672E00000000000000000000000000000000000000000000000000000000 PUSH1 0x20 DUP3 ADD MSTORE POP JUMP JUMPDEST PUSH1 0x0 PUSH2 0x1617 PUSH1 0x24 DUP4 PUSH2 0xD77 JUMP JUMPDEST SWAP2 POP PUSH2 0x1622 DUP3 PUSH2 0x15BB JUMP JUMPDEST PUSH1 0x40 DUP3 ADD SWAP1 POP SWAP2 SWAP1 POP JUMP JUMPDEST PUSH1 0x0 PUSH1 0x20 DUP3 ADD SWAP1 POP DUP2 DUP2 SUB PUSH1 0x0 DUP4 ADD MSTORE PUSH2 0x1646 DUP2 PUSH2 0x160A JUMP JUMPDEST SWAP1 POP SWAP2 SWAP1 POP JUMP JUMPDEST PUSH32 0x43616E646964617465206F7074696F6E732063616E6E6F7420626520656D7074 PUSH1 0x0 DUP3 ADD MSTORE PUSH32 0x792E000000000000000000000000000000000000000000000000000000000000 PUSH1 0x20 DUP3 ADD MSTORE POP JUMP JUMPDEST PUSH1 0x0 PUSH2 0x16A9 PUSH1 0x22 DUP4 PUSH2 0xD77 JUMP JUMPDEST SWAP2 POP PUSH2 0x16B4 DUP3 PUSH2 0x164D JUMP JUMPDEST PUSH1 0x40 DUP3 ADD SWAP1 POP SWAP2 SWAP1 POP JUMP JUMPDEST PUSH1 0x0 PUSH1 0x20 DUP3 ADD SWAP1 POP DUP2 DUP2 SUB PUSH1 0x0 DUP4 ADD MSTORE PUSH2 0x16D8 DUP2 PUSH2 0x169C JUMP JUMPDEST SWAP1 POP SWAP2 SWAP1 POP JUMP JUMPDEST PUSH32 0x74686520566F746520616C726561647920657869737465642100000000000000 PUSH1 0x0 DUP3 ADD MSTORE POP JUMP JUMPDEST PUSH1 0x0 PUSH2 0x1715 PUSH1 0x19 DUP4 PUSH2 0xD77 JUMP JUMPDEST SWAP2 POP PUSH2 0x1720 DUP3 PUSH2 0x16DF JUMP JUMPDEST PUSH1 0x20 DUP3 ADD SWAP1 POP SWAP2 SWAP1 POP JUMP JUMPDEST PUSH1 0x0 PUSH1 0x20 DUP3 ADD SWAP1 POP DUP2 DUP2 SUB PUSH1 0x0 DUP4 ADD MSTORE PUSH2 0x1744 DUP2 PUSH2 0x1708 JUMP JUMPDEST SWAP1 POP SWAP2 SWAP1 POP JUMP JUMPDEST PUSH32 0x736F6D657468696E672069732077726F6E672100000000000000000000000000 PUSH1 0x0 DUP3 ADD MSTORE POP JUMP JUMPDEST PUSH1 0x0 PUSH2 0x1781 PUSH1 0x13 DUP4 PUSH2 0xD77 JUMP JUMPDEST SWAP2 POP PUSH2 0x178C DUP3 PUSH2 0x174B JUMP JUMPDEST PUSH1 0x20 DUP3 ADD SWAP1 POP SWAP2 SWAP1 POP JUMP JUMPDEST PUSH1 0x0 PUSH1 0x20 DUP3 ADD SWAP1 POP DUP2 DUP2 SUB PUSH1 0x0 DUP4 ADD MSTORE PUSH2 0x17B0 DUP2 PUSH2 0x1774 JUMP JUMPDEST SWAP1 POP SWAP2 SWAP1 POP JUMP JUMPDEST PUSH1 0x0 DUP2 SWAP1 POP DUP2 PUSH1 0x0 MSTORE PUSH1 0x20 PUSH1 0x0 KECCAK256 SWAP1 POP SWAP2 SWAP1 POP JUMP JUMPDEST PUSH1 0x0 PUSH1 0x20 PUSH1 0x1F DUP4 ADD DIV SWAP1 POP SWAP2 SWAP1 POP JUMP JUMPDEST PUSH1 0x0 DUP3 DUP3 SHL SWAP1 POP SWAP3 SWAP2 POP POP JUMP JUMPDEST PUSH1 0x0 PUSH1 0x8 DUP4 MUL PUSH2 0x1819 PUSH32 0xFFFFFFFFFFFFFFFFFFFFFFFFFFFFFFFFFFFFFFFFFFFFFFFFFFFFFFFFFFFFFFFF DUP3 PUSH2 0x17DC JUMP JUMPDEST PUSH2 0x1823 DUP7 DUP4 PUSH2 0x17DC JUMP JUMPDEST SWAP6 POP DUP1 NOT DUP5 AND SWAP4 POP DUP1 DUP7 AND DUP5 OR SWAP3 POP POP POP SWAP4 SWAP3 POP POP POP JUMP JUMPDEST PUSH1 0x0 DUP2 SWAP1 POP SWAP2 SWAP1 POP JUMP JUMPDEST PUSH1 0x0 PUSH2 0x1860 PUSH2 0x185B PUSH2 0x1856 DUP5 PUSH2 0xE85 JUMP JUMPDEST PUSH2 0x183B JUMP JUMPDEST PUSH2 0xE85 JUMP JUMPDEST SWAP1 POP SWAP2 SWAP1 POP JUMP JUMPDEST PUSH1 0x0 DUP2 SWAP1 POP SWAP2 SWAP1 POP JUMP JUMPDEST PUSH2 0x187A DUP4 PUSH2 0x1845 JUMP JUMPDEST PUSH2 0x188E PUSH2 0x1886 DUP3 PUSH2 0x1867 JUMP JUMPDEST DUP5 DUP5 SLOAD PUSH2 0x17E9 JUMP JUMPDEST DUP3 SSTORE POP POP POP POP JUMP JUMPDEST PUSH1 0x0 SWAP1 JUMP JUMPDEST PUSH2 0x18A3 PUSH2 0x1896 JUMP JUMPDEST PUSH2 0x18AE DUP2 DUP5 DUP5 PUSH2 0x1871 JUMP JUMPDEST POP POP POP JUMP JUMPDEST JUMPDEST DUP2 DUP2 LT ISZERO PUSH2 0x18D2 JUMPI PUSH2 0x18C7 PUSH1 0x0 DUP3 PUSH2 0x189B JUMP JUMPDEST PUSH1 0x1 DUP2 ADD SWAP1 POP PUSH2 0x18B4 JUMP JUMPDEST POP POP JUMP JUMPDEST PUSH1 0x1F DUP3 GT ISZERO PUSH2 0x1917 JUMPI PUSH2 0x18E8 DUP2 PUSH2 0x17B7 JUMP JUMPDEST PUSH2 0x18F1 DUP5 PUSH2 0x17CC JUMP JUMPDEST DUP2 ADD PUSH1 0x20 DUP6 LT ISZERO PUSH2 0x1900 JUMPI DUP2 SWAP1 POP JUMPDEST PUSH2 0x1914 PUSH2 0x190C DUP6 PUSH2 0x17CC JUMP JUMPDEST DUP4 ADD DUP3 PUSH2 0x18B3 JUMP JUMPDEST POP POP JUMPDEST POP POP POP JUMP JUMPDEST PUSH1 0x0 DUP3 DUP3 SHR SWAP1 POP SWAP3 SWAP2 POP POP JUMP JUMPDEST PUSH1 0x0 PUSH2 0x193A PUSH1 0x0 NOT DUP5 PUSH1 0x8 MUL PUSH2 0x191C JUMP JUMPDEST NOT DUP1 DUP4 AND SWAP2 POP POP SWAP3 SWAP2 POP POP JUMP JUMPDEST PUSH1 0x0 PUSH2 0x1953 DUP4 DUP4 PUSH2 0x1929 JUMP JUMPDEST SWAP2 POP DUP3 PUSH1 0x2 MUL DUP3 OR SWAP1 POP SWAP3 SWAP2 POP POP JUMP JUMPDEST PUSH2 0x196C DUP3 PUSH2 0xD6C JUMP JUMPDEST PUSH8 0xFFFFFFFFFFFFFFFF DUP2 GT ISZERO PUSH2 0x1985 JUMPI PUSH2 0x1984 PUSH2 0xB58 JUMP JUMPDEST JUMPDEST PUSH2 0x198F DUP3 SLOAD PUSH2 0x155B JUMP JUMPDEST PUSH2 0x199A DUP3 DUP3 DUP6 PUSH2 0x18D6 JUMP JUMPDEST PUSH1 0x0 PUSH1 0x20 SWAP1 POP PUSH1 0x1F DUP4 GT PUSH1 0x1 DUP2 EQ PUSH2 0x19CD JUMPI PUSH1 0x0 DUP5 ISZERO PUSH2 0x19BB JUMPI DUP3 DUP8 ADD MLOAD SWAP1 POP JUMPDEST PUSH2 0x19C5 DUP6 DUP3 PUSH2 0x1947 JUMP JUMPDEST DUP7 SSTORE POP PUSH2 0x1A2D JUMP JUMPDEST PUSH1 0x1F NOT DUP5 AND PUSH2 0x19DB DUP7 PUSH2 0x17B7 JUMP JUMPDEST PUSH1 0x0 JUMPDEST DUP3 DUP2 LT ISZERO PUSH2 0x1A03 JUMPI DUP5 DUP10 ADD MLOAD DUP3 SSTORE PUSH1 0x1 DUP3 ADD SWAP2 POP PUSH1 0x20 DUP6 ADD SWAP5 POP PUSH1 0x20 DUP2 ADD SWAP1 POP PUSH2 0x19DE JUMP JUMPDEST DUP7 DUP4 LT ISZERO PUSH2 0x1A20 JUMPI DUP5 DUP10 ADD MLOAD PUSH2 0x1A1C PUSH1 0x1F DUP10 AND DUP3 PUSH2 0x1929 JUMP JUMPDEST DUP4 SSTORE POP JUMPDEST PUSH1 0x1 PUSH1 0x2 DUP9 MUL ADD DUP9 SSTORE POP POP POP JUMPDEST POP POP POP POP POP POP JUMP INVALID LOG2 PUSH5 0x6970667358 0x22 SLT KECCAK256 PUSH29 0xAD9DB45F137F24C0739AC696A6C9648A1E15A3078A25B769915D42F0A3 CODESIZE PUSH31 0x64736F6C634300081200330000000000000000000000000000000000000000 "
				},
				"gasEstimates": {
					"creation": {
						"codeDepositCost": "1352600",
						"executionCost": "1410",
						"totalCost": "1354010"
					},
					"external": {
						"addVote(string,string,address)": "infinite",
						"candidateVote(string,uint256)": "infinite",
						"createVote(string,string[])": "infinite",
						"lvm(string)": "infinite",
						"myaddress()": "2602",
						"test()": "infinite",
						"voteCount(string,string)": "infinite",
						"voteResult(string)": "infinite",
						"voters(string,address)": "infinite"
					}
				},
				"methodIdentifiers": {
					"addVote(string,string,address)": "22404b9d",
					"candidateVote(string,uint256)": "85e5b801",
					"createVote(string,string[])": "90a3a11f",
					"lvm(string)": "af1651c2",
					"myaddress()": "fcf814c3",
					"test()": "f8a8fd6d",
					"voteCount(string,string)": "371da07b",
					"voteResult(string)": "7d5529ec",
					"voters(string,address)": "d4ed9329"
				}
			},
			"storageLayout": {
				"storage": [
					{
						"astId": 6,
						"contract": "contracts/Vote.sol:Vote",
						"label": "candidateVote",
						"offset": 0,
						"slot": "0",
						"type": "t_mapping(t_string_memory_ptr,t_array(t_string_storage)dyn_storage)"
					},
					{
						"astId": 12,
						"contract": "contracts/Vote.sol:Vote",
						"label": "voteCount",
						"offset": 0,
						"slot": "1",
						"type": "t_mapping(t_string_memory_ptr,t_mapping(t_string_memory_ptr,t_uint256))"
					},
					{
						"astId": 18,
						"contract": "contracts/Vote.sol:Vote",
						"label": "voters",
						"offset": 0,
						"slot": "2",
						"type": "t_mapping(t_string_memory_ptr,t_mapping(t_address,t_bool))"
					},
					{
						"astId": 20,
						"contract": "contracts/Vote.sol:Vote",
						"label": "myaddress",
						"offset": 0,
						"slot": "3",
						"type": "t_address"
					}
				],
				"types": {
					"t_address": {
						"encoding": "inplace",
						"label": "address",
						"numberOfBytes": "20"
					},
					"t_array(t_string_storage)dyn_storage": {
						"base": "t_string_storage",
						"encoding": "dynamic_array",
						"label": "string[]",
						"numberOfBytes": "32"
					},
					"t_bool": {
						"encoding": "inplace",
						"label": "bool",
						"numberOfBytes": "1"
					},
					"t_mapping(t_address,t_bool)": {
						"encoding": "mapping",
						"key": "t_address",
						"label": "mapping(address => bool)",
						"numberOfBytes": "32",
						"value": "t_bool"
					},
					"t_mapping(t_string_memory_ptr,t_array(t_string_storage)dyn_storage)": {
						"encoding": "mapping",
						"key": "t_string_memory_ptr",
						"label": "mapping(string => string[])",
						"numberOfBytes": "32",
						"value": "t_array(t_string_storage)dyn_storage"
					},
					"t_mapping(t_string_memory_ptr,t_mapping(t_address,t_bool))": {
						"encoding": "mapping",
						"key": "t_string_memory_ptr",
						"label": "mapping(string => mapping(address => bool))",
						"numberOfBytes": "32",
						"value": "t_mapping(t_address,t_bool)"
					},
					"t_mapping(t_string_memory_ptr,t_mapping(t_string_memory_ptr,t_uint256))": {
						"encoding": "mapping",
						"key": "t_string_memory_ptr",
						"label": "mapping(string => mapping(string => uint256))",
						"numberOfBytes": "32",
						"value": "t_mapping(t_string_memory_ptr,t_uint256)"
					},
					"t_mapping(t_string_memory_ptr,t_uint256)": {
						"encoding": "mapping",
						"key": "t_string_memory_ptr",
						"label": "mapping(string => uint256)",
						"numberOfBytes": "32",
						"value": "t_uint256"
					},
					"t_string_memory_ptr": {
						"encoding": "bytes",
						"label": "string",
						"numberOfBytes": "32"
					},
					"t_string_storage": {
						"encoding": "bytes",
						"label": "string",
						"numberOfBytes": "32"
					},
					"t_uint256": {
						"encoding": "inplace",
						"label": "uint256",
						"numberOfBytes": "32"
					}
				}
			},
			"userdoc": {
				"kind": "user",
				"methods": {},
				"version": 1
			}
		}
	}
}